{
  "contractName": "initializeGame",
  "abi": [
    {
      "inputs": [],
      "stateMutability": "nonpayable",
      "type": "constructor"
    },
    {
      "inputs": [],
      "name": "cardModValue",
      "outputs": [
        {
          "internalType": "uint256",
          "name": "",
          "type": "uint256"
        }
      ],
      "stateMutability": "view",
      "type": "function"
    },
    {
      "inputs": [
        {
          "internalType": "uint256",
          "name": "",
          "type": "uint256"
        }
      ],
      "name": "cardToOwner",
      "outputs": [
        {
          "internalType": "uint256",
          "name": "",
          "type": "uint256"
        }
      ],
      "stateMutability": "view",
      "type": "function"
    },
    {
      "inputs": [
        {
          "internalType": "uint256",
          "name": "",
          "type": "uint256"
        }
      ],
      "name": "cards",
      "outputs": [
        {
          "internalType": "uint256",
          "name": "",
          "type": "uint256"
        }
      ],
      "stateMutability": "view",
      "type": "function"
    },
    {
      "inputs": [],
      "name": "nonceForRand",
      "outputs": [
        {
          "internalType": "uint256",
          "name": "",
          "type": "uint256"
        }
      ],
      "stateMutability": "view",
      "type": "function"
    },
    {
      "inputs": [],
      "name": "owner",
      "outputs": [
        {
          "internalType": "address payable",
          "name": "",
          "type": "address"
        }
      ],
      "stateMutability": "view",
      "type": "function"
    },
    {
      "inputs": [
        {
          "internalType": "uint256",
          "name": "",
          "type": "uint256"
        }
      ],
      "name": "players",
      "outputs": [
        {
          "internalType": "uint256",
          "name": "balance",
          "type": "uint256"
        },
        {
          "internalType": "address",
          "name": "playerAddr",
          "type": "address"
        },
        {
          "internalType": "uint256",
          "name": "round",
          "type": "uint256"
        }
      ],
      "stateMutability": "view",
      "type": "function"
    },
    {
      "inputs": [],
      "name": "startGame",
      "outputs": [
        {
          "internalType": "bool",
          "name": "",
          "type": "bool"
        }
      ],
      "stateMutability": "view",
      "type": "function"
    },
    {
      "inputs": [],
      "name": "totalPlayers",
      "outputs": [
        {
          "internalType": "uint256",
          "name": "",
          "type": "uint256"
        }
      ],
      "stateMutability": "view",
      "type": "function"
    },
    {
      "inputs": [],
      "name": "createPlayer",
      "outputs": [],
      "stateMutability": "nonpayable",
      "type": "function"
    },
    {
      "inputs": [],
      "name": "startTheGame",
      "outputs": [],
      "stateMutability": "nonpayable",
      "type": "function"
    },
    {
      "inputs": [
        {
          "internalType": "uint256",
          "name": "_cardModValue",
          "type": "uint256"
        }
      ],
      "name": "generateCards",
      "outputs": [
        {
          "internalType": "uint256",
          "name": "",
          "type": "uint256"
        }
      ],
      "stateMutability": "nonpayable",
      "type": "function"
    },
    {
      "inputs": [
        {
          "internalType": "uint256",
          "name": "_newCard",
          "type": "uint256"
        }
      ],
      "name": "checkCard",
      "outputs": [
        {
          "internalType": "bool",
          "name": "",
          "type": "bool"
        }
      ],
      "stateMutability": "view",
      "type": "function"
    }
  ],
  "bytecode": "0x60806040526000805560006001556000600260006101000a81548160ff02191690831515021790555061271060035534801561003a57600080fd5b5033600460006101000a81548173ffffffffffffffffffffffffffffffffffffffff021916908373ffffffffffffffffffffffffffffffffffffffff160217905550600080819055506109a8806100926000396000f3fe608060405234801561001057600080fd5b50600436106100b45760003560e01c80638da5cb5b116100715780638da5cb5b146101695780638dc1076814610187578063d65ab5f2146101b7578063f60cdcf6146101d5578063f71d96cb146101f3578063ffb976ec14610225576100b4565b806301fb72cf146100b95780631f47390c146100e95780633fa9fcf814610107578063555f8f5114610111578063569277671461014157806366c7ef3a1461015f575b600080fd5b6100d360048036038101906100ce9190610648565b610255565b6040516100e09190610690565b60405180910390f35b6100f1610284565b6040516100fe91906106ba565b60405180910390f35b61010f61028a565b005b61012b60048036038101906101269190610648565b6103f0565b60405161013891906106ba565b60405180910390f35b61014961048f565b60405161015691906106ba565b60405180910390f35b610167610495565b005b61017161050c565b60405161017e9190610716565b60405180910390f35b6101a1600480360381019061019c9190610648565b610532565b6040516101ae91906106ba565b60405180910390f35b6101bf610556565b6040516101cc9190610690565b60405180910390f35b6101dd610569565b6040516101ea91906106ba565b60405180910390f35b61020d60048036038101906102089190610648565b61056f565b60405161021c93929190610752565b60405180910390f35b61023f600480360381019061023a9190610648565b6105c9565b60405161024c91906106ba565b60405180910390f35b60008060076000848152602001908152602001600020541461027a576000905061027f565b600190505b919050565b60035481565b60001515600260009054906101000a900460ff161515146102aa57600080fd5b60056040518060600160405280606481526020013373ffffffffffffffffffffffffffffffffffffffff168152602001600181525090806001815401808255809150506001900390600052602060002090600302016000909190919091506000820151816000015560208201518160010160006101000a81548173ffffffffffffffffffffffffffffffffffffffff021916908373ffffffffffffffffffffffffffffffffffffffff16021790555060408201518160020155505060066103726003546103f0565b9080600181540180825580915050600190039060005260206000200160009091909190915055600054600760006006600054815481106103b5576103b4610789565b5b90600052602060002001548152602001908152602001600020819055506103e860016000546105e190919063ffffffff16565b600081905550565b60005b60011561047857600082423360015460405160200161041493929190610821565b6040516020818303038152906040528051906020012060001c610437919061088d565b90506001151561044682610255565b15151415610457578091505061048a565b61046c600180546105e190919063ffffffff16565b600181905550506103f3565b8162bc614e610487919061088d565b90505b919050565b60015481565b600460009054906101000a900473ffffffffffffffffffffffffffffffffffffffff1673ffffffffffffffffffffffffffffffffffffffff163373ffffffffffffffffffffffffffffffffffffffff16146104ef57600080fd5b6001600260006101000a81548160ff021916908315150217905550565b600460009054906101000a900473ffffffffffffffffffffffffffffffffffffffff1681565b6006818154811061054257600080fd5b906000526020600020016000915090505481565b600260009054906101000a900460ff1681565b60005481565b6005818154811061057f57600080fd5b90600052602060002090600302016000915090508060000154908060010160009054906101000a900473ffffffffffffffffffffffffffffffffffffffff16908060020154905083565b60076020528060005260406000206000915090505481565b60008082846105f091906108ed565b90508381101561060357610602610943565b5b8091505092915050565b600080fd5b6000819050919050565b61062581610612565b811461063057600080fd5b50565b6000813590506106428161061c565b92915050565b60006020828403121561065e5761065d61060d565b5b600061066c84828501610633565b91505092915050565b60008115159050919050565b61068a81610675565b82525050565b60006020820190506106a56000830184610681565b92915050565b6106b481610612565b82525050565b60006020820190506106cf60008301846106ab565b92915050565b600073ffffffffffffffffffffffffffffffffffffffff82169050919050565b6000610700826106d5565b9050919050565b610710816106f5565b82525050565b600060208201905061072b6000830184610707565b92915050565b600061073c826106d5565b9050919050565b61074c81610731565b82525050565b600060608201905061076760008301866106ab565b6107746020830185610743565b61078160408301846106ab565b949350505050565b7f4e487b7100000000000000000000000000000000000000000000000000000000600052603260045260246000fd5b6000819050919050565b6107d36107ce82610612565b6107b8565b82525050565b60008160601b9050919050565b60006107f1826107d9565b9050919050565b6000610803826107e6565b9050919050565b61081b61081682610731565b6107f8565b82525050565b600061082d82866107c2565b60208201915061083d828561080a565b60148201915061084d82846107c2565b602082019150819050949350505050565b7f4e487b7100000000000000000000000000000000000000000000000000000000600052601260045260246000fd5b600061089882610612565b91506108a383610612565b9250826108b3576108b261085e565b5b828206905092915050565b7f4e487b7100000000000000000000000000000000000000000000000000000000600052601160045260246000fd5b60006108f882610612565b915061090383610612565b9250827fffffffffffffffffffffffffffffffffffffffffffffffffffffffffffffffff03821115610938576109376108be565b5b828201905092915050565b7f4e487b7100000000000000000000000000000000000000000000000000000000600052600160045260246000fdfea264697066735822122086f97972950213636a64576c01b4c678511a7a54e12f5034b1e040396d605b4a64736f6c634300080a0033",
  "immutableReferences": {},
  "source": "pragma solidity >=0.6.0;\r\n\r\nimport \"./safemath.sol\";\r\n\r\ncontract initializeGame {\r\n    uint256 public totalPlayers = 0;\r\n    uint256 public nonceForRand = 0;\r\n    bool public startGame = false;\r\n\r\n    /*first 2 numbers identify the card Type \r\n    (e.g if its 01 it will be a +1 point card)\r\n    */\r\n\r\n    //In order to simplify, addresses etc htaa denge but can add in later versions\r\n\r\n    uint256 public cardModValue = 10000;\r\n    address payable public owner;\r\n\r\n    struct Player {\r\n        uint256 balance;\r\n        address playerAddr;\r\n        uint256 round; //Makes sure everyone is on the smae round\r\n    }\r\n\r\n    Player[] public players;\r\n    uint256[] public cards;\r\n    mapping(uint256 => uint256) public cardToOwner;\r\n\r\n    /*\r\n    Will call player according to id\r\n    planning on opening a new page for each player\r\n    */\r\n    using SafeMath for uint256;\r\n    // using SafeMath32 for uint32;\r\n    // using SafeMath16 for uint16;\r\n\r\n    modifier onlyOwnerAllowed() {\r\n        require(msg.sender == owner);\r\n        _;\r\n    }\r\n\r\n    constructor() {\r\n        owner = payable(msg.sender);\r\n        totalPlayers = 0;\r\n    }\r\n\r\n    //Will add a player into the game\r\n\r\n    function createPlayer() public {\r\n        require(startGame == false);\r\n        // uint256[] memory tempCards;\r\n        // tempCards[0] = generateCards(cardModValue);\r\n        players.push(Player(100, address(msg.sender), 1));\r\n        cards.push(generateCards(cardModValue)); //Creates one card for player to start with\r\n\r\n        cardToOwner[cards[totalPlayers]] = totalPlayers; //Assigns currentPlayer as the owner of card\r\n\r\n        totalPlayers = totalPlayers.add(1); //Increments total players\r\n    }\r\n\r\n    function startTheGame() public onlyOwnerAllowed {\r\n        startGame = true;\r\n    }\r\n\r\n    //used to Generate Cards for the game\r\n\r\n    function generateCards(uint256 _cardModValue) public returns (uint256) {\r\n        while (true) {\r\n            uint256 newCard = uint256(\r\n                keccak256(\r\n                    abi.encodePacked(block.timestamp, msg.sender, nonceForRand)\r\n                )\r\n            ) % _cardModValue;\r\n\r\n            //9560\r\n            //9300\r\n\r\n            if (checkCard(newCard) == true) {\r\n                return newCard;\r\n            }\r\n            nonceForRand = nonceForRand.add(1);\r\n        }\r\n        return 12345678 % _cardModValue;\r\n    }\r\n\r\n    function checkCard(uint256 _newCard) public view returns (bool) {\r\n        //check if key exists thn false\r\n        if (cardToOwner[_newCard] != 0) {\r\n            //means that it exists\r\n            return false;\r\n        }\r\n        return true;\r\n    }\r\n}\r\n",
  "sourcePath": "E:\\ProgrammingStuff\\BlockChain\\truffle\\Projects\\FastCards\\truffle\\contracts\\initializeGame.sol",
  "compiler": {
    "name": "solc",
    "version": "0.8.10+commit.fc410830.Emscripten.clang"
  },
  "schemaVersion": "3.4.3",
  "updatedAt": "2021-12-19T18:32:11.239Z",
  "devdoc": {
    "kind": "dev",
    "methods": {},
    "version": 1
  },
  "userdoc": {
    "kind": "user",
    "methods": {},
    "version": 1
  }
}