{
  "contractName": "projectGame",
  "abi": [
    {
      "inputs": [],
      "name": "cardModValue",
      "outputs": [
        {
          "internalType": "uint256",
          "name": "",
          "type": "uint256"
        }
      ],
      "stateMutability": "view",
      "type": "function",
      "constant": true
    },
    {
      "inputs": [
        {
          "internalType": "uint256",
          "name": "_card",
          "type": "uint256"
        }
      ],
      "name": "cardOwner",
      "outputs": [
        {
          "internalType": "address",
          "name": "",
          "type": "address"
        }
      ],
      "stateMutability": "view",
      "type": "function",
      "constant": true
    },
    {
      "inputs": [
        {
          "internalType": "uint256",
          "name": "",
          "type": "uint256"
        }
      ],
      "name": "cardToOwner",
      "outputs": [
        {
          "internalType": "address",
          "name": "",
          "type": "address"
        }
      ],
      "stateMutability": "view",
      "type": "function",
      "constant": true
    },
    {
      "inputs": [
        {
          "internalType": "uint256",
          "name": "",
          "type": "uint256"
        }
      ],
      "name": "cards",
      "outputs": [
        {
          "internalType": "uint256",
          "name": "",
          "type": "uint256"
        }
      ],
      "stateMutability": "view",
      "type": "function",
      "constant": true
    },
    {
      "inputs": [
        {
          "internalType": "uint256",
          "name": "_newCard",
          "type": "uint256"
        }
      ],
      "name": "checkCard",
      "outputs": [
        {
          "internalType": "bool",
          "name": "",
          "type": "bool"
        }
      ],
      "stateMutability": "view",
      "type": "function",
      "constant": true
    },
    {
      "inputs": [],
      "name": "createPlayer",
      "outputs": [],
      "stateMutability": "nonpayable",
      "type": "function"
    },
    {
      "inputs": [],
      "name": "currentRound",
      "outputs": [
        {
          "internalType": "uint256",
          "name": "",
          "type": "uint256"
        }
      ],
      "stateMutability": "view",
      "type": "function",
      "constant": true
    },
    {
      "inputs": [
        {
          "internalType": "uint256",
          "name": "_cardModValue",
          "type": "uint256"
        }
      ],
      "name": "generateCards",
      "outputs": [
        {
          "internalType": "uint256",
          "name": "",
          "type": "uint256"
        }
      ],
      "stateMutability": "nonpayable",
      "type": "function"
    },
    {
      "inputs": [],
      "name": "nonceForRand",
      "outputs": [
        {
          "internalType": "uint256",
          "name": "",
          "type": "uint256"
        }
      ],
      "stateMutability": "view",
      "type": "function",
      "constant": true
    },
    {
      "inputs": [
        {
          "internalType": "uint16",
          "name": "_buyerOffer",
          "type": "uint16"
        },
        {
          "internalType": "uint16",
          "name": "_buyerCard",
          "type": "uint16"
        },
        {
          "internalType": "uint256",
          "name": "index",
          "type": "uint256"
        }
      ],
      "name": "offerTrade",
      "outputs": [],
      "stateMutability": "nonpayable",
      "type": "function"
    },
    {
      "inputs": [],
      "name": "owner",
      "outputs": [
        {
          "internalType": "address payable",
          "name": "",
          "type": "address"
        }
      ],
      "stateMutability": "view",
      "type": "function",
      "constant": true
    },
    {
      "inputs": [
        {
          "internalType": "address",
          "name": "",
          "type": "address"
        }
      ],
      "name": "ownerToPlayer",
      "outputs": [
        {
          "internalType": "uint16",
          "name": "balance",
          "type": "uint16"
        },
        {
          "internalType": "uint16",
          "name": "round",
          "type": "uint16"
        },
        {
          "internalType": "uint16",
          "name": "cardsOwned",
          "type": "uint16"
        },
        {
          "internalType": "uint16",
          "name": "playerNumber",
          "type": "uint16"
        },
        {
          "internalType": "address",
          "name": "playerAddr",
          "type": "address"
        }
      ],
      "stateMutability": "view",
      "type": "function",
      "constant": true
    },
    {
      "inputs": [
        {
          "internalType": "address",
          "name": "",
          "type": "address"
        }
      ],
      "name": "ownerToTrade",
      "outputs": [
        {
          "internalType": "uint16",
          "name": "ownerOffer",
          "type": "uint16"
        },
        {
          "internalType": "uint16",
          "name": "ownerCard",
          "type": "uint16"
        },
        {
          "internalType": "uint16",
          "name": "buyerOffer",
          "type": "uint16"
        },
        {
          "internalType": "uint16",
          "name": "buyerCard",
          "type": "uint16"
        },
        {
          "internalType": "uint16",
          "name": "index",
          "type": "uint16"
        },
        {
          "internalType": "bool",
          "name": "tradeComplete",
          "type": "bool"
        },
        {
          "internalType": "bool",
          "name": "tradeAvailable",
          "type": "bool"
        },
        {
          "internalType": "address",
          "name": "ownerAddr",
          "type": "address"
        },
        {
          "internalType": "address",
          "name": "buyerAddr",
          "type": "address"
        }
      ],
      "stateMutability": "view",
      "type": "function",
      "constant": true
    },
    {
      "inputs": [],
      "name": "playerTurnsDone",
      "outputs": [
        {
          "internalType": "uint256",
          "name": "",
          "type": "uint256"
        }
      ],
      "stateMutability": "view",
      "type": "function",
      "constant": true
    },
    {
      "inputs": [],
      "name": "playerWon",
      "outputs": [
        {
          "internalType": "address",
          "name": "",
          "type": "address"
        }
      ],
      "stateMutability": "view",
      "type": "function",
      "constant": true
    },
    {
      "inputs": [],
      "name": "randomCard",
      "outputs": [],
      "stateMutability": "nonpayable",
      "type": "function"
    },
    {
      "inputs": [],
      "name": "randomCost",
      "outputs": [
        {
          "internalType": "uint16",
          "name": "",
          "type": "uint16"
        }
      ],
      "stateMutability": "view",
      "type": "function",
      "constant": true
    },
    {
      "inputs": [],
      "name": "retAllTrades",
      "outputs": [
        {
          "components": [
            {
              "internalType": "uint16",
              "name": "ownerOffer",
              "type": "uint16"
            },
            {
              "internalType": "uint16",
              "name": "ownerCard",
              "type": "uint16"
            },
            {
              "internalType": "uint16",
              "name": "buyerOffer",
              "type": "uint16"
            },
            {
              "internalType": "uint16",
              "name": "buyerCard",
              "type": "uint16"
            },
            {
              "internalType": "uint16",
              "name": "index",
              "type": "uint16"
            },
            {
              "internalType": "bool",
              "name": "tradeComplete",
              "type": "bool"
            },
            {
              "internalType": "bool",
              "name": "tradeAvailable",
              "type": "bool"
            },
            {
              "internalType": "address",
              "name": "ownerAddr",
              "type": "address"
            },
            {
              "internalType": "address",
              "name": "buyerAddr",
              "type": "address"
            }
          ],
          "internalType": "struct tradeGame.tradeCard[]",
          "name": "",
          "type": "tuple[]"
        }
      ],
      "stateMutability": "view",
      "type": "function",
      "constant": true
    },
    {
      "inputs": [],
      "name": "retCards",
      "outputs": [
        {
          "internalType": "uint256[]",
          "name": "",
          "type": "uint256[]"
        }
      ],
      "stateMutability": "view",
      "type": "function",
      "constant": true
    },
    {
      "inputs": [],
      "name": "retPlayer",
      "outputs": [
        {
          "components": [
            {
              "internalType": "uint16",
              "name": "balance",
              "type": "uint16"
            },
            {
              "internalType": "uint16",
              "name": "round",
              "type": "uint16"
            },
            {
              "internalType": "uint16",
              "name": "cardsOwned",
              "type": "uint16"
            },
            {
              "internalType": "uint16",
              "name": "playerNumber",
              "type": "uint16"
            },
            {
              "internalType": "address",
              "name": "playerAddr",
              "type": "address"
            }
          ],
          "internalType": "struct initializeGame.Player",
          "name": "",
          "type": "tuple"
        }
      ],
      "stateMutability": "view",
      "type": "function",
      "constant": true
    },
    {
      "inputs": [],
      "name": "retTrade",
      "outputs": [
        {
          "components": [
            {
              "internalType": "uint16",
              "name": "ownerOffer",
              "type": "uint16"
            },
            {
              "internalType": "uint16",
              "name": "ownerCard",
              "type": "uint16"
            },
            {
              "internalType": "uint16",
              "name": "buyerOffer",
              "type": "uint16"
            },
            {
              "internalType": "uint16",
              "name": "buyerCard",
              "type": "uint16"
            },
            {
              "internalType": "uint16",
              "name": "index",
              "type": "uint16"
            },
            {
              "internalType": "bool",
              "name": "tradeComplete",
              "type": "bool"
            },
            {
              "internalType": "bool",
              "name": "tradeAvailable",
              "type": "bool"
            },
            {
              "internalType": "address",
              "name": "ownerAddr",
              "type": "address"
            },
            {
              "internalType": "address",
              "name": "buyerAddr",
              "type": "address"
            }
          ],
          "internalType": "struct tradeGame.tradeCard",
          "name": "",
          "type": "tuple"
        }
      ],
      "stateMutability": "view",
      "type": "function",
      "constant": true
    },
    {
      "inputs": [
        {
          "internalType": "address",
          "name": "_ownerAddr",
          "type": "address"
        }
      ],
      "name": "retTradeAddr",
      "outputs": [
        {
          "components": [
            {
              "internalType": "uint16",
              "name": "ownerOffer",
              "type": "uint16"
            },
            {
              "internalType": "uint16",
              "name": "ownerCard",
              "type": "uint16"
            },
            {
              "internalType": "uint16",
              "name": "buyerOffer",
              "type": "uint16"
            },
            {
              "internalType": "uint16",
              "name": "buyerCard",
              "type": "uint16"
            },
            {
              "internalType": "uint16",
              "name": "index",
              "type": "uint16"
            },
            {
              "internalType": "bool",
              "name": "tradeComplete",
              "type": "bool"
            },
            {
              "internalType": "bool",
              "name": "tradeAvailable",
              "type": "bool"
            },
            {
              "internalType": "address",
              "name": "ownerAddr",
              "type": "address"
            },
            {
              "internalType": "address",
              "name": "buyerAddr",
              "type": "address"
            }
          ],
          "internalType": "struct tradeGame.tradeCard",
          "name": "",
          "type": "tuple"
        }
      ],
      "stateMutability": "view",
      "type": "function",
      "constant": true
    },
    {
      "inputs": [],
      "name": "retcurrentRound",
      "outputs": [
        {
          "internalType": "uint256",
          "name": "",
          "type": "uint256"
        }
      ],
      "stateMutability": "view",
      "type": "function",
      "constant": true
    },
    {
      "inputs": [],
      "name": "retplayerCards",
      "outputs": [
        {
          "internalType": "uint256[]",
          "name": "",
          "type": "uint256[]"
        }
      ],
      "stateMutability": "view",
      "type": "function",
      "constant": true
    },
    {
      "inputs": [],
      "name": "retplayerScore",
      "outputs": [
        {
          "internalType": "uint256",
          "name": "",
          "type": "uint256"
        }
      ],
      "stateMutability": "view",
      "type": "function",
      "constant": true
    },
    {
      "inputs": [],
      "name": "retplayerTurnsDone",
      "outputs": [
        {
          "internalType": "uint256",
          "name": "",
          "type": "uint256"
        }
      ],
      "stateMutability": "view",
      "type": "function",
      "constant": true
    },
    {
      "inputs": [],
      "name": "startGame",
      "outputs": [
        {
          "internalType": "bool",
          "name": "",
          "type": "bool"
        }
      ],
      "stateMutability": "view",
      "type": "function",
      "constant": true
    },
    {
      "inputs": [],
      "name": "startTheGame",
      "outputs": [],
      "stateMutability": "nonpayable",
      "type": "function"
    },
    {
      "inputs": [
        {
          "internalType": "uint16",
          "name": "_ownerOffer",
          "type": "uint16"
        },
        {
          "internalType": "uint16",
          "name": "_ownerCard",
          "type": "uint16"
        }
      ],
      "name": "startTrade",
      "outputs": [],
      "stateMutability": "nonpayable",
      "type": "function"
    },
    {
      "inputs": [],
      "name": "totalPlayers",
      "outputs": [
        {
          "internalType": "uint16",
          "name": "",
          "type": "uint16"
        }
      ],
      "stateMutability": "view",
      "type": "function",
      "constant": true
    },
    {
      "inputs": [
        {
          "internalType": "bool",
          "name": "_tradeConfirm",
          "type": "bool"
        }
      ],
      "name": "tradeComplete",
      "outputs": [],
      "stateMutability": "nonpayable",
      "type": "function"
    },
    {
      "inputs": [
        {
          "internalType": "uint256",
          "name": "",
          "type": "uint256"
        }
      ],
      "name": "trades",
      "outputs": [
        {
          "internalType": "uint16",
          "name": "ownerOffer",
          "type": "uint16"
        },
        {
          "internalType": "uint16",
          "name": "ownerCard",
          "type": "uint16"
        },
        {
          "internalType": "uint16",
          "name": "buyerOffer",
          "type": "uint16"
        },
        {
          "internalType": "uint16",
          "name": "buyerCard",
          "type": "uint16"
        },
        {
          "internalType": "uint16",
          "name": "index",
          "type": "uint16"
        },
        {
          "internalType": "bool",
          "name": "tradeComplete",
          "type": "bool"
        },
        {
          "internalType": "bool",
          "name": "tradeAvailable",
          "type": "bool"
        },
        {
          "internalType": "address",
          "name": "ownerAddr",
          "type": "address"
        },
        {
          "internalType": "address",
          "name": "buyerAddr",
          "type": "address"
        }
      ],
      "stateMutability": "view",
      "type": "function",
      "constant": true
    }
  ],
  "bytecode": "0x608060405260008060006101000a81548161ffff021916908361ffff16021790555060006001556000600260006101000a81548160ff02191690831515021790555061271060035560016008556000600955600a8060006101000a81548161ffff021916908361ffff1602179055506000600a60026101000a81548173ffffffffffffffffffffffffffffffffffffffff021916908373ffffffffffffffffffffffffffffffffffffffff1602179055506000600b553480156100c157600080fd5b5033600460006101000a81548173ffffffffffffffffffffffffffffffffffffffff021916908373ffffffffffffffffffffffffffffffffffffffff16021790555060008060006101000a81548161ffff021916908361ffff1602179055506144918061012f6000396000f3fe608060405234801561001057600080fd5b50600436106101f05760003560e01c80638a19c8bc1161010f578063d65ab5f2116100a2578063ef75dff911610071578063ef75dff914610585578063f60cdcf6146105bd578063fb4cdcf0146105db578063ffb976ec146105f9576101f0565b8063d65ab5f21461050d578063e4fda6361461052b578063ee42179414610549578063ef034d8a14610567576101f0565b8063a7def311116100de578063a7def3111461049b578063aa467ed2146104b7578063ac89fa63146104d3578063b401f22114610503576101f0565b80638a19c8bc146104115780638da5cb5b1461042f5780638dc107681461044d578063a61135511461047d576101f0565b80633fb876cc11610187578063604c528d11610156578063604c528d1461039d57806362e925c0146103b957806366c7ef3a146103e95780636e3afc1d146103f3576101f0565b80633fb876cc146103135780634eee0f4614610331578063555f8f511461034f578063569277671461037f576101f0565b80631f47390c116101c35780631f47390c146102995780633a3fc6fc146102b75780633ca7aac3146102d55780633fa9fcf814610309576101f0565b806301fb72cf146101f557806309b6056f1461022557806318d7f572146102435780631e6c598e14610261575b600080fd5b61020f600480360381019061020a91906139ef565b610629565b60405161021c9190613a37565b60405180910390f35b61022d6106a4565b60405161023a9190613a61565b60405180910390f35b61024b6106ae565b6040516102589190613a61565b60405180910390f35b61027b600480360381019061027691906139ef565b6106b8565b60405161029099989796959493929190613ada565b60405180910390f35b6102a16107b6565b6040516102ae9190613a61565b60405180910390f35b6102bf6107bc565b6040516102cc9190613c25565b60405180910390f35b6102ef60048036038101906102ea9190613c73565b610919565b604051610300959493929190613ca0565b60405180910390f35b6103116109a7565b005b61031b610c38565b6040516103289190613c25565b60405180910390f35b610339610c90565b6040516103469190613a61565b60405180910390f35b610369600480360381019061036491906139ef565b610e13565b6040516103769190613a61565b60405180910390f35b610387610eb0565b6040516103949190613a61565b60405180910390f35b6103b760048036038101906103b29190613d1f565b610eb6565b005b6103d360048036038101906103ce9190613c73565b611607565b6040516103e09190613e43565b60405180910390f35b6103f161187d565b005b6103fb6118f4565b6040516104089190613ec7565b60405180910390f35b610419611a21565b6040516104269190613a61565b60405180910390f35b610437611a27565b6040516104449190613f03565b60405180910390f35b610467600480360381019061046291906139ef565b611a4d565b6040516104749190613a61565b60405180910390f35b610485611a71565b6040516104929190614085565b60405180910390f35b6104b560048036038101906104b091906140d3565b611c53565b005b6104d160048036038101906104cc9190614100565b612a36565b005b6104ed60048036038101906104e891906139ef565b612e6f565b6040516104fa9190614153565b60405180910390f35b61050b612eac565b005b6105156130f3565b6040516105229190613a37565b60405180910390f35b610533613106565b604051610540919061416e565b60405180910390f35b61055161311a565b60405161055e9190613a61565b60405180910390f35b61056f613120565b60405161057c9190614153565b60405180910390f35b61059f600480360381019061059a9190613c73565b613146565b6040516105b499989796959493929190613ada565b60405180910390f35b6105c5613234565b6040516105d2919061416e565b60405180910390f35b6105e3613246565b6040516105f09190613e43565b60405180910390f35b610613600480360381019061060e91906139ef565b6134ba565b6040516106209190614153565b60405180910390f35b60008073ffffffffffffffffffffffffffffffffffffffff166006600084815260200190815260200160002060009054906101000a900473ffffffffffffffffffffffffffffffffffffffff1673ffffffffffffffffffffffffffffffffffffffff161461069a576000905061069f565b600190505b919050565b6000600854905090565b6000600954905090565b600c81815481106106c857600080fd5b90600052602060002090600202016000915090508060000160009054906101000a900461ffff16908060000160029054906101000a900461ffff16908060000160049054906101000a900461ffff16908060000160069054906101000a900461ffff16908060000160089054906101000a900461ffff169080600001600a9054906101000a900460ff169080600001600b9054906101000a900460ff169080600001600c9054906101000a900473ffffffffffffffffffffffffffffffffffffffff16908060010160009054906101000a900473ffffffffffffffffffffffffffffffffffffffff16905089565b60035481565b606060006107c86118f4565b6040015161ffff1667ffffffffffffffff8111156107e9576107e8614189565b5b6040519080825280602002602001820160405280156108175781602001602082028036833780820191505090505b5090506000805b600580549050811015610910573373ffffffffffffffffffffffffffffffffffffffff16600660006005848154811061085a576108596141b8565b5b9060005260206000200154815260200190815260200160002060009054906101000a900473ffffffffffffffffffffffffffffffffffffffff1673ffffffffffffffffffffffffffffffffffffffff1614156108fd57600581815481106108c4576108c36141b8565b5b90600052602060002001548383815181106108e2576108e16141b8565b5b60200260200101818152505081806108f990614216565b9250505b808061090890614216565b91505061081e565b50819250505090565b60076020528060005260406000206000915090508060000160009054906101000a900461ffff16908060000160029054906101000a900461ffff16908060000160049054906101000a900461ffff16908060000160069054906101000a900461ffff16908060000160089054906101000a900473ffffffffffffffffffffffffffffffffffffffff16905085565b60001515600260009054906101000a900460ff161515146109c757600080fd5b600073ffffffffffffffffffffffffffffffffffffffff16600760003373ffffffffffffffffffffffffffffffffffffffff1673ffffffffffffffffffffffffffffffffffffffff16815260200190815260200160002060000160089054906101000a900473ffffffffffffffffffffffffffffffffffffffff1673ffffffffffffffffffffffffffffffffffffffff1614610a6257600080fd5b60016000808282829054906101000a900461ffff16610a81919061425f565b92506101000a81548161ffff021916908361ffff1602179055506040518060a00160405280606461ffff168152602001600161ffff168152602001600061ffff16815260200160008054906101000a900461ffff1661ffff1681526020013373ffffffffffffffffffffffffffffffffffffffff16815250600760003373ffffffffffffffffffffffffffffffffffffffff1673ffffffffffffffffffffffffffffffffffffffff16815260200190815260200160002060008201518160000160006101000a81548161ffff021916908361ffff16021790555060208201518160000160026101000a81548161ffff021916908361ffff16021790555060408201518160000160046101000a81548161ffff021916908361ffff16021790555060608201518160000160066101000a81548161ffff021916908361ffff16021790555060808201518160000160086101000a81548173ffffffffffffffffffffffffffffffffffffffff021916908373ffffffffffffffffffffffffffffffffffffffff16021790555090505060005b6003811015610c3557610c226134ed565b8080610c2d90614216565b915050610c11565b50565b60606005805480602002602001604051908101604052809291908181526020018280548015610c8657602002820191906000526020600020905b815481526020019060010190808311610c72575b5050505050905090565b600080610c9b6118f4565b6040015161ffff1667ffffffffffffffff811115610cbc57610cbb614189565b5b604051908082528060200260200182016040528015610cea5781602001602082028036833780820191505090505b509050610cf56107bc565b90506000805b8251811015610e0a576103e8838281518110610d1a57610d196141b8565b5b60200260200101511015610d3c57600a82610d359190614297565b9150610df7565b611388838281518110610d5257610d516141b8565b5b60200260200101511015610d7457600582610d6d91906142cb565b9150610df6565b611b58838281518110610d8a57610d896141b8565b5b60200260200101511015610dac57600a82610da591906142cb565b9150610df5565b612328838281518110610dc257610dc16141b8565b5b60200260200101511015610de457600f82610ddd91906142cb565b9150610df4565b601e82610df191906142cb565b91505b5b5b5b8080610e0290614216565b915050610cfb565b50809250505090565b60005b600115610e99576000824233600154604051602001610e379392919061438a565b6040516020818303038152906040528051906020012060001c610e5a91906143f6565b905060011515610e6982610629565b15151415610e7a5780915050610eab565b6001806000828254610e8c91906142cb565b9250508190555050610e16565b8162bc614e610ea891906143f6565b90505b919050565b60015481565b8161ffff16600760003373ffffffffffffffffffffffffffffffffffffffff1673ffffffffffffffffffffffffffffffffffffffff16815260200190815260200160002060000160009054906101000a900461ffff1661ffff161015610f1b57600080fd5b3373ffffffffffffffffffffffffffffffffffffffff16600d60003373ffffffffffffffffffffffffffffffffffffffff1673ffffffffffffffffffffffffffffffffffffffff168152602001908152602001600020600001600c9054906101000a900473ffffffffffffffffffffffffffffffffffffffff1673ffffffffffffffffffffffffffffffffffffffff161415610fb657600080fd5b60006001600c80549050610fca9190614297565b90506040518061012001604052808461ffff1681526020018361ffff168152602001600061ffff168152602001600061ffff1681526020018261ffff1681526020016000151581526020016001151581526020013373ffffffffffffffffffffffffffffffffffffffff168152602001600073ffffffffffffffffffffffffffffffffffffffff16815250600d60003373ffffffffffffffffffffffffffffffffffffffff1673ffffffffffffffffffffffffffffffffffffffff16815260200190815260200160002060008201518160000160006101000a81548161ffff021916908361ffff16021790555060208201518160000160026101000a81548161ffff021916908361ffff16021790555060408201518160000160046101000a81548161ffff021916908361ffff16021790555060608201518160000160066101000a81548161ffff021916908361ffff16021790555060808201518160000160086101000a81548161ffff021916908361ffff16021790555060a082015181600001600a6101000a81548160ff02191690831515021790555060c082015181600001600b6101000a81548160ff02191690831515021790555060e082015181600001600c6101000a81548173ffffffffffffffffffffffffffffffffffffffff021916908373ffffffffffffffffffffffffffffffffffffffff1602179055506101008201518160010160006101000a81548173ffffffffffffffffffffffffffffffffffffffff021916908373ffffffffffffffffffffffffffffffffffffffff1602179055509050506001600760003373ffffffffffffffffffffffffffffffffffffffff1673ffffffffffffffffffffffffffffffffffffffff16815260200190815260200160002060000160048282829054906101000a900461ffff166112759190614427565b92506101000a81548161ffff021916908361ffff160217905550600c600d60003373ffffffffffffffffffffffffffffffffffffffff1673ffffffffffffffffffffffffffffffffffffffff16815260200190815260200160002090806001815401808255809150506001900390600052602060002090600202016000909190919091506000820160009054906101000a900461ffff168160000160006101000a81548161ffff021916908361ffff1602179055506000820160029054906101000a900461ffff168160000160026101000a81548161ffff021916908361ffff1602179055506000820160049054906101000a900461ffff168160000160046101000a81548161ffff021916908361ffff1602179055506000820160069054906101000a900461ffff168160000160066101000a81548161ffff021916908361ffff1602179055506000820160089054906101000a900461ffff168160000160086101000a81548161ffff021916908361ffff16021790555060008201600a9054906101000a900460ff1681600001600a6101000a81548160ff02191690831515021790555060008201600b9054906101000a900460ff1681600001600b6101000a81548160ff02191690831515021790555060008201600c9054906101000a900473ffffffffffffffffffffffffffffffffffffffff1681600001600c6101000a81548173ffffffffffffffffffffffffffffffffffffffff021916908373ffffffffffffffffffffffffffffffffffffffff1602179055506001820160009054906101000a900473ffffffffffffffffffffffffffffffffffffffff168160010160006101000a81548173ffffffffffffffffffffffffffffffffffffffff021916908373ffffffffffffffffffffffffffffffffffffffff16021790555050506000600660008461ffff16815260200190815260200160002060006101000a81548173ffffffffffffffffffffffffffffffffffffffff021916908373ffffffffffffffffffffffffffffffffffffffff16021790555082600760003373ffffffffffffffffffffffffffffffffffffffff1673ffffffffffffffffffffffffffffffffffffffff16815260200190815260200160002060000160008282829054906101000a900461ffff166115ce9190614427565b92506101000a81548161ffff021916908361ffff1602179055506001600b60008282546115fb91906142cb565b92505081905550505050565b61160f6138cf565b3373ffffffffffffffffffffffffffffffffffffffff16600d60008473ffffffffffffffffffffffffffffffffffffffff1673ffffffffffffffffffffffffffffffffffffffff168152602001908152602001600020600001600c9054906101000a900473ffffffffffffffffffffffffffffffffffffffff1673ffffffffffffffffffffffffffffffffffffffff16146116a957600080fd5b600d60008373ffffffffffffffffffffffffffffffffffffffff1673ffffffffffffffffffffffffffffffffffffffff168152602001908152602001600020604051806101200160405290816000820160009054906101000a900461ffff1661ffff1661ffff1681526020016000820160029054906101000a900461ffff1661ffff1661ffff1681526020016000820160049054906101000a900461ffff1661ffff1661ffff1681526020016000820160069054906101000a900461ffff1661ffff1661ffff1681526020016000820160089054906101000a900461ffff1661ffff1661ffff16815260200160008201600a9054906101000a900460ff1615151515815260200160008201600b9054906101000a900460ff1615151515815260200160008201600c9054906101000a900473ffffffffffffffffffffffffffffffffffffffff1673ffffffffffffffffffffffffffffffffffffffff1673ffffffffffffffffffffffffffffffffffffffff1681526020016001820160009054906101000a900473ffffffffffffffffffffffffffffffffffffffff1673ffffffffffffffffffffffffffffffffffffffff1673ffffffffffffffffffffffffffffffffffffffff16815250509050919050565b600460009054906101000a900473ffffffffffffffffffffffffffffffffffffffff1673ffffffffffffffffffffffffffffffffffffffff163373ffffffffffffffffffffffffffffffffffffffff16146118d757600080fd5b6001600260006101000a81548160ff021916908315150217905550565b6118fc61395f565b600760003373ffffffffffffffffffffffffffffffffffffffff1673ffffffffffffffffffffffffffffffffffffffff1681526020019081526020016000206040518060a00160405290816000820160009054906101000a900461ffff1661ffff1661ffff1681526020016000820160029054906101000a900461ffff1661ffff1661ffff1681526020016000820160049054906101000a900461ffff1661ffff1661ffff1681526020016000820160069054906101000a900461ffff1661ffff1661ffff1681526020016000820160089054906101000a900473ffffffffffffffffffffffffffffffffffffffff1673ffffffffffffffffffffffffffffffffffffffff1673ffffffffffffffffffffffffffffffffffffffff1681525050905090565b60085481565b600460009054906101000a900473ffffffffffffffffffffffffffffffffffffffff1681565b60058181548110611a5d57600080fd5b906000526020600020016000915090505481565b6060600c805480602002602001604051908101604052809291908181526020016000905b82821015611c4a5783829060005260206000209060020201604051806101200160405290816000820160009054906101000a900461ffff1661ffff1661ffff1681526020016000820160029054906101000a900461ffff1661ffff1661ffff1681526020016000820160049054906101000a900461ffff1661ffff1661ffff1681526020016000820160069054906101000a900461ffff1661ffff1661ffff1681526020016000820160089054906101000a900461ffff1661ffff1661ffff16815260200160008201600a9054906101000a900460ff1615151515815260200160008201600b9054906101000a900460ff1615151515815260200160008201600c9054906101000a900473ffffffffffffffffffffffffffffffffffffffff1673ffffffffffffffffffffffffffffffffffffffff1673ffffffffffffffffffffffffffffffffffffffff1681526020016001820160009054906101000a900473ffffffffffffffffffffffffffffffffffffffff1673ffffffffffffffffffffffffffffffffffffffff1673ffffffffffffffffffffffffffffffffffffffff168152505081526020019060010190611a95565b50505050905090565b600d60003373ffffffffffffffffffffffffffffffffffffffff1673ffffffffffffffffffffffffffffffffffffffff168152602001908152602001600020600001600c9054906101000a900473ffffffffffffffffffffffffffffffffffffffff1673ffffffffffffffffffffffffffffffffffffffff163373ffffffffffffffffffffffffffffffffffffffff1614611ced57600080fd5b60001515600d60003373ffffffffffffffffffffffffffffffffffffffff1673ffffffffffffffffffffffffffffffffffffffff168152602001908152602001600020600001600b9054906101000a900460ff16151514611d4d57600080fd5b60001515811515141561220357600d60003373ffffffffffffffffffffffffffffffffffffffff1673ffffffffffffffffffffffffffffffffffffffff16815260200190815260200160002060000160049054906101000a900461ffff1660076000600d60003373ffffffffffffffffffffffffffffffffffffffff1673ffffffffffffffffffffffffffffffffffffffff168152602001908152602001600020600001600c9054906101000a900473ffffffffffffffffffffffffffffffffffffffff1673ffffffffffffffffffffffffffffffffffffffff1673ffffffffffffffffffffffffffffffffffffffff16815260200190815260200160002060000160008282829054906101000a900461ffff16611e6b919061425f565b92506101000a81548161ffff021916908361ffff160217905550600d60003373ffffffffffffffffffffffffffffffffffffffff1673ffffffffffffffffffffffffffffffffffffffff16815260200190815260200160002060010160009054906101000a900473ffffffffffffffffffffffffffffffffffffffff1660066000600d60003373ffffffffffffffffffffffffffffffffffffffff1673ffffffffffffffffffffffffffffffffffffffff16815260200190815260200160002060000160069054906101000a900461ffff1661ffff16815260200190815260200160002060006101000a81548173ffffffffffffffffffffffffffffffffffffffff021916908373ffffffffffffffffffffffffffffffffffffffff160217905550600160076000600d60003373ffffffffffffffffffffffffffffffffffffffff1673ffffffffffffffffffffffffffffffffffffffff168152602001908152602001600020600001600c9054906101000a900473ffffffffffffffffffffffffffffffffffffffff1673ffffffffffffffffffffffffffffffffffffffff1673ffffffffffffffffffffffffffffffffffffffff16815260200190815260200160002060000160048282829054906101000a900461ffff1661204f919061425f565b92506101000a81548161ffff021916908361ffff1602179055506000600d60003373ffffffffffffffffffffffffffffffffffffffff1673ffffffffffffffffffffffffffffffffffffffff16815260200190815260200160002060000160046101000a81548161ffff021916908361ffff1602179055506000600d60003373ffffffffffffffffffffffffffffffffffffffff1673ffffffffffffffffffffffffffffffffffffffff16815260200190815260200160002060000160066101000a81548161ffff021916908361ffff1602179055506000600d60003373ffffffffffffffffffffffffffffffffffffffff1673ffffffffffffffffffffffffffffffffffffffff16815260200190815260200160002060010160006101000a81548173ffffffffffffffffffffffffffffffffffffffff021916908373ffffffffffffffffffffffffffffffffffffffff1602179055506001600d60003373ffffffffffffffffffffffffffffffffffffffff1673ffffffffffffffffffffffffffffffffffffffff168152602001908152602001600020600001600b6101000a81548160ff0219169083151502179055505b600115158115151415612a3357600d60003373ffffffffffffffffffffffffffffffffffffffff1673ffffffffffffffffffffffffffffffffffffffff16815260200190815260200160002060000160049054906101000a900461ffff16600760003373ffffffffffffffffffffffffffffffffffffffff1673ffffffffffffffffffffffffffffffffffffffff16815260200190815260200160002060000160008282829054906101000a900461ffff166122bf919061425f565b92506101000a81548161ffff021916908361ffff1602179055503360066000600d60003373ffffffffffffffffffffffffffffffffffffffff1673ffffffffffffffffffffffffffffffffffffffff16815260200190815260200160002060000160069054906101000a900461ffff1661ffff16815260200190815260200160002060006101000a81548173ffffffffffffffffffffffffffffffffffffffff021916908373ffffffffffffffffffffffffffffffffffffffff1602179055506001600760003373ffffffffffffffffffffffffffffffffffffffff1673ffffffffffffffffffffffffffffffffffffffff16815260200190815260200160002060000160048282829054906101000a900461ffff166123df919061425f565b92506101000a81548161ffff021916908361ffff1602179055506000600d60003373ffffffffffffffffffffffffffffffffffffffff1673ffffffffffffffffffffffffffffffffffffffff16815260200190815260200160002060000160046101000a81548161ffff021916908361ffff1602179055506000600d60003373ffffffffffffffffffffffffffffffffffffffff1673ffffffffffffffffffffffffffffffffffffffff16815260200190815260200160002060000160066101000a81548161ffff021916908361ffff1602179055506000600d60003373ffffffffffffffffffffffffffffffffffffffff1673ffffffffffffffffffffffffffffffffffffffff16815260200190815260200160002060010160006101000a81548173ffffffffffffffffffffffffffffffffffffffff021916908373ffffffffffffffffffffffffffffffffffffffff1602179055506001600d60003373ffffffffffffffffffffffffffffffffffffffff1673ffffffffffffffffffffffffffffffffffffffff168152602001908152602001600020600001600b6101000a81548160ff0219169083151502179055506000600c6001600c805490506125a89190614297565b815481106125b9576125b86141b8565b5b9060005260206000209060020201604051806101200160405290816000820160009054906101000a900461ffff1661ffff1661ffff1681526020016000820160029054906101000a900461ffff1661ffff1661ffff1681526020016000820160049054906101000a900461ffff1661ffff1661ffff1681526020016000820160069054906101000a900461ffff1661ffff1661ffff1681526020016000820160089054906101000a900461ffff1661ffff1661ffff16815260200160008201600a9054906101000a900460ff1615151515815260200160008201600b9054906101000a900460ff1615151515815260200160008201600c9054906101000a900473ffffffffffffffffffffffffffffffffffffffff1673ffffffffffffffffffffffffffffffffffffffff1673ffffffffffffffffffffffffffffffffffffffff1681526020016001820160009054906101000a900473ffffffffffffffffffffffffffffffffffffffff1673ffffffffffffffffffffffffffffffffffffffff1673ffffffffffffffffffffffffffffffffffffffff16815250509050600c6001600c8054905061276b9190614297565b8154811061277c5761277b6141b8565b5b9060005260206000209060020201600080820160006101000a81549061ffff02191690556000820160026101000a81549061ffff02191690556000820160046101000a81549061ffff02191690556000820160066101000a81549061ffff02191690556000820160086101000a81549061ffff021916905560008201600a6101000a81549060ff021916905560008201600b6101000a81549060ff021916905560008201600c6101000a81549073ffffffffffffffffffffffffffffffffffffffff02191690556001820160006101000a81549073ffffffffffffffffffffffffffffffffffffffff0219169055505080600c6128776135f4565b81548110612888576128876141b8565b5b906000526020600020906002020160008201518160000160006101000a81548161ffff021916908361ffff16021790555060208201518160000160026101000a81548161ffff021916908361ffff16021790555060408201518160000160046101000a81548161ffff021916908361ffff16021790555060608201518160000160066101000a81548161ffff021916908361ffff16021790555060808201518160000160086101000a81548161ffff021916908361ffff16021790555060a082015181600001600a6101000a81548160ff02191690831515021790555060c082015181600001600b6101000a81548160ff02191690831515021790555060e082015181600001600c6101000a81548173ffffffffffffffffffffffffffffffffffffffff021916908373ffffffffffffffffffffffffffffffffffffffff1602179055506101008201518160010160006101000a81548173ffffffffffffffffffffffffffffffffffffffff021916908373ffffffffffffffffffffffffffffffffffffffff1602179055509050506001600b6000828254612a2a9190614297565b92505081905550505b50565b6000600c8281548110612a4c57612a4b6141b8565b5b9060005260206000209060020201600001600c9054906101000a900473ffffffffffffffffffffffffffffffffffffffff1690508361ffff16600760003373ffffffffffffffffffffffffffffffffffffffff1673ffffffffffffffffffffffffffffffffffffffff16815260200190815260200160002060000160009054906101000a900461ffff1661ffff161015612ae557600080fd5b600d60008273ffffffffffffffffffffffffffffffffffffffff1673ffffffffffffffffffffffffffffffffffffffff168152602001908152602001600020600001600b9054906101000a900460ff16612b3e57600080fd5b60008461ffff161015612b5057600080fd5b3373ffffffffffffffffffffffffffffffffffffffff168173ffffffffffffffffffffffffffffffffffffffff161415612b8957600080fd5b83600d60008373ffffffffffffffffffffffffffffffffffffffff1673ffffffffffffffffffffffffffffffffffffffff16815260200190815260200160002060000160046101000a81548161ffff021916908361ffff16021790555082600d60008373ffffffffffffffffffffffffffffffffffffffff1673ffffffffffffffffffffffffffffffffffffffff16815260200190815260200160002060000160066101000a81548161ffff021916908361ffff16021790555033600d60008373ffffffffffffffffffffffffffffffffffffffff1673ffffffffffffffffffffffffffffffffffffffff16815260200190815260200160002060010160006101000a81548173ffffffffffffffffffffffffffffffffffffffff021916908373ffffffffffffffffffffffffffffffffffffffff1602179055506000600d60008373ffffffffffffffffffffffffffffffffffffffff1673ffffffffffffffffffffffffffffffffffffffff168152602001908152602001600020600001600b6101000a81548160ff02191690831515021790555083600760003373ffffffffffffffffffffffffffffffffffffffff1673ffffffffffffffffffffffffffffffffffffffff16815260200190815260200160002060000160008282829054906101000a900461ffff16612d7e9190614427565b92506101000a81548161ffff021916908361ffff1602179055506001600760003373ffffffffffffffffffffffffffffffffffffffff1673ffffffffffffffffffffffffffffffffffffffff16815260200190815260200160002060000160048282829054906101000a900461ffff16612df89190614427565b92506101000a81548161ffff021916908361ffff1602179055506000600660008561ffff16815260200190815260200160002060006101000a81548173ffffffffffffffffffffffffffffffffffffffff021916908373ffffffffffffffffffffffffffffffffffffffff16021790555050505050565b60006006600083815260200190815260200160002060009054906101000a900473ffffffffffffffffffffffffffffffffffffffff169050919050565b60011515600260009054906101000a900460ff16151514612ecc57600080fd5b60008054906101000a900461ffff1661ffff1660095410612eec57600080fd5b600854600760003373ffffffffffffffffffffffffffffffffffffffff1673ffffffffffffffffffffffffffffffffffffffff16815260200190815260200160002060000160029054906101000a900461ffff1661ffff161115612f4f57600080fd5b600a60009054906101000a900461ffff1661ffff16600760003373ffffffffffffffffffffffffffffffffffffffff1673ffffffffffffffffffffffffffffffffffffffff16815260200190815260200160002060000160009054906101000a900461ffff1661ffff161015612fc457600080fd5b612fcc6134ed565b600a60009054906101000a900461ffff16600760003373ffffffffffffffffffffffffffffffffffffffff1673ffffffffffffffffffffffffffffffffffffffff16815260200190815260200160002060000160008282829054906101000a900461ffff1661303b9190614427565b92506101000a81548161ffff021916908361ffff16021790555060016009600082825461306891906142cb565b925050819055506001600760003373ffffffffffffffffffffffffffffffffffffffff1673ffffffffffffffffffffffffffffffffffffffff16815260200190815260200160002060000160028282829054906101000a900461ffff166130cf919061425f565b92506101000a81548161ffff021916908361ffff1602179055506130f16136aa565b565b600260009054906101000a900460ff1681565b600a60009054906101000a900461ffff1681565b60095481565b600a60029054906101000a900473ffffffffffffffffffffffffffffffffffffffff1681565b600d6020528060005260406000206000915090508060000160009054906101000a900461ffff16908060000160029054906101000a900461ffff16908060000160049054906101000a900461ffff16908060000160069054906101000a900461ffff16908060000160089054906101000a900461ffff169080600001600a9054906101000a900460ff169080600001600b9054906101000a900460ff169080600001600c9054906101000a900473ffffffffffffffffffffffffffffffffffffffff16908060010160009054906101000a900473ffffffffffffffffffffffffffffffffffffffff16905089565b60008054906101000a900461ffff1681565b61324e6138cf565b3373ffffffffffffffffffffffffffffffffffffffff16600d60003373ffffffffffffffffffffffffffffffffffffffff1673ffffffffffffffffffffffffffffffffffffffff168152602001908152602001600020600001600c9054906101000a900473ffffffffffffffffffffffffffffffffffffffff1673ffffffffffffffffffffffffffffffffffffffff16146132e857600080fd5b600d60003373ffffffffffffffffffffffffffffffffffffffff1673ffffffffffffffffffffffffffffffffffffffff168152602001908152602001600020604051806101200160405290816000820160009054906101000a900461ffff1661ffff1661ffff1681526020016000820160029054906101000a900461ffff1661ffff1661ffff1681526020016000820160049054906101000a900461ffff1661ffff1661ffff1681526020016000820160069054906101000a900461ffff1661ffff1661ffff1681526020016000820160089054906101000a900461ffff1661ffff1661ffff16815260200160008201600a9054906101000a900460ff1615151515815260200160008201600b9054906101000a900460ff1615151515815260200160008201600c9054906101000a900473ffffffffffffffffffffffffffffffffffffffff1673ffffffffffffffffffffffffffffffffffffffff1673ffffffffffffffffffffffffffffffffffffffff1681526020016001820160009054906101000a900473ffffffffffffffffffffffffffffffffffffffff1673ffffffffffffffffffffffffffffffffffffffff1673ffffffffffffffffffffffffffffffffffffffff1681525050905090565b60066020528060005260406000206000915054906101000a900473ffffffffffffffffffffffffffffffffffffffff1681565b60006134fa600354610e13565b90506005819080600181540180825580915050600190039060005260206000200160009091909190915055336006600083815260200190815260200160002060006101000a81548173ffffffffffffffffffffffffffffffffffffffff021916908373ffffffffffffffffffffffffffffffffffffffff1602179055506001600760003373ffffffffffffffffffffffffffffffffffffffff1673ffffffffffffffffffffffffffffffffffffffff16815260200190815260200160002060000160048282829054906101000a900461ffff166135d7919061425f565b92506101000a81548161ffff021916908361ffff16021790555050565b60008060009050600090505b600c805490508110156136a2573373ffffffffffffffffffffffffffffffffffffffff16600c8281548110613638576136376141b8565b5b9060005260206000209060020201600001600c9054906101000a900473ffffffffffffffffffffffffffffffffffffffff1673ffffffffffffffffffffffffffffffffffffffff16141561368f57809150506136a7565b808061369a90614216565b915050613600565b600080fd5b90565b60011515600260009054906101000a900460ff161515146136ca57600080fd5b60646136d4610c90565b50506000600760003373ffffffffffffffffffffffffffffffffffffffff1673ffffffffffffffffffffffffffffffffffffffff16815260200190815260200160002060000160009054906101000a900461ffff1661ffff16116138435760016000808282829054906101000a900461ffff166137519190614427565b92506101000a81548161ffff021916908361ffff16021790555060016009600082825461377e9190614297565b92505081905550600760003373ffffffffffffffffffffffffffffffffffffffff1673ffffffffffffffffffffffffffffffffffffffff168152602001908152602001600020600080820160006101000a81549061ffff02191690556000820160026101000a81549061ffff02191690556000820160046101000a81549061ffff02191690556000820160066101000a81549061ffff02191690556000820160086101000a81549073ffffffffffffffffffffffffffffffffffffffff021916905550505b60008054906101000a900461ffff1661ffff1660095414156138685761386761386a565b5b565b60011515600260009054906101000a900460ff1615151461388a57600080fd5b60008054906101000a900461ffff1661ffff1660095410156138ab57600080fd5b60006009819055506001600860008282546138c691906142cb565b92505081905550565b604051806101200160405280600061ffff168152602001600061ffff168152602001600061ffff168152602001600061ffff168152602001600061ffff168152602001600015158152602001600015158152602001600073ffffffffffffffffffffffffffffffffffffffff168152602001600073ffffffffffffffffffffffffffffffffffffffff1681525090565b6040518060a00160405280600061ffff168152602001600061ffff168152602001600061ffff168152602001600061ffff168152602001600073ffffffffffffffffffffffffffffffffffffffff1681525090565b600080fd5b6000819050919050565b6139cc816139b9565b81146139d757600080fd5b50565b6000813590506139e9816139c3565b92915050565b600060208284031215613a0557613a046139b4565b5b6000613a13848285016139da565b91505092915050565b60008115159050919050565b613a3181613a1c565b82525050565b6000602082019050613a4c6000830184613a28565b92915050565b613a5b816139b9565b82525050565b6000602082019050613a766000830184613a52565b92915050565b600061ffff82169050919050565b613a9381613a7c565b82525050565b600073ffffffffffffffffffffffffffffffffffffffff82169050919050565b6000613ac482613a99565b9050919050565b613ad481613ab9565b82525050565b600061012082019050613af0600083018c613a8a565b613afd602083018b613a8a565b613b0a604083018a613a8a565b613b176060830189613a8a565b613b246080830188613a8a565b613b3160a0830187613a28565b613b3e60c0830186613a28565b613b4b60e0830185613acb565b613b59610100830184613acb565b9a9950505050505050505050565b600081519050919050565b600082825260208201905092915050565b6000819050602082019050919050565b613b9c816139b9565b82525050565b6000613bae8383613b93565b60208301905092915050565b6000602082019050919050565b6000613bd282613b67565b613bdc8185613b72565b9350613be783613b83565b8060005b83811015613c18578151613bff8882613ba2565b9750613c0a83613bba565b925050600181019050613beb565b5085935050505092915050565b60006020820190508181036000830152613c3f8184613bc7565b905092915050565b613c5081613ab9565b8114613c5b57600080fd5b50565b600081359050613c6d81613c47565b92915050565b600060208284031215613c8957613c886139b4565b5b6000613c9784828501613c5e565b91505092915050565b600060a082019050613cb56000830188613a8a565b613cc26020830187613a8a565b613ccf6040830186613a8a565b613cdc6060830185613a8a565b613ce96080830184613acb565b9695505050505050565b613cfc81613a7c565b8114613d0757600080fd5b50565b600081359050613d1981613cf3565b92915050565b60008060408385031215613d3657613d356139b4565b5b6000613d4485828601613d0a565b9250506020613d5585828601613d0a565b9150509250929050565b613d6881613a7c565b82525050565b613d7781613a1c565b82525050565b613d8681613ab9565b82525050565b61012082016000820151613da36000850182613d5f565b506020820151613db66020850182613d5f565b506040820151613dc96040850182613d5f565b506060820151613ddc6060850182613d5f565b506080820151613def6080850182613d5f565b5060a0820151613e0260a0850182613d6e565b5060c0820151613e1560c0850182613d6e565b5060e0820151613e2860e0850182613d7d565b50610100820151613e3d610100850182613d7d565b50505050565b600061012082019050613e596000830184613d8c565b92915050565b60a082016000820151613e756000850182613d5f565b506020820151613e886020850182613d5f565b506040820151613e9b6040850182613d5f565b506060820151613eae6060850182613d5f565b506080820151613ec16080850182613d7d565b50505050565b600060a082019050613edc6000830184613e5f565b92915050565b6000613eed82613a99565b9050919050565b613efd81613ee2565b82525050565b6000602082019050613f186000830184613ef4565b92915050565b600081519050919050565b600082825260208201905092915050565b6000819050602082019050919050565b61012082016000820151613f616000850182613d5f565b506020820151613f746020850182613d5f565b506040820151613f876040850182613d5f565b506060820151613f9a6060850182613d5f565b506080820151613fad6080850182613d5f565b5060a0820151613fc060a0850182613d6e565b5060c0820151613fd360c0850182613d6e565b5060e0820151613fe660e0850182613d7d565b50610100820151613ffb610100850182613d7d565b50505050565b600061400d8383613f4a565b6101208301905092915050565b6000602082019050919050565b600061403282613f1e565b61403c8185613f29565b935061404783613f3a565b8060005b8381101561407857815161405f8882614001565b975061406a8361401a565b92505060018101905061404b565b5085935050505092915050565b6000602082019050818103600083015261409f8184614027565b905092915050565b6140b081613a1c565b81146140bb57600080fd5b50565b6000813590506140cd816140a7565b92915050565b6000602082840312156140e9576140e86139b4565b5b60006140f7848285016140be565b91505092915050565b600080600060608486031215614119576141186139b4565b5b600061412786828701613d0a565b935050602061413886828701613d0a565b9250506040614149868287016139da565b9150509250925092565b60006020820190506141686000830184613acb565b92915050565b60006020820190506141836000830184613a8a565b92915050565b7f4e487b7100000000000000000000000000000000000000000000000000000000600052604160045260246000fd5b7f4e487b7100000000000000000000000000000000000000000000000000000000600052603260045260246000fd5b7f4e487b7100000000000000000000000000000000000000000000000000000000600052601160045260246000fd5b6000614221826139b9565b91507fffffffffffffffffffffffffffffffffffffffffffffffffffffffffffffffff821415614254576142536141e7565b5b600182019050919050565b600061426a82613a7c565b915061427583613a7c565b92508261ffff0382111561428c5761428b6141e7565b5b828201905092915050565b60006142a2826139b9565b91506142ad836139b9565b9250828210156142c0576142bf6141e7565b5b828203905092915050565b60006142d6826139b9565b91506142e1836139b9565b9250827fffffffffffffffffffffffffffffffffffffffffffffffffffffffffffffffff03821115614316576143156141e7565b5b828201905092915050565b6000819050919050565b61433c614337826139b9565b614321565b82525050565b60008160601b9050919050565b600061435a82614342565b9050919050565b600061436c8261434f565b9050919050565b61438461437f82613ab9565b614361565b82525050565b6000614396828661432b565b6020820191506143a68285614373565b6014820191506143b6828461432b565b602082019150819050949350505050565b7f4e487b7100000000000000000000000000000000000000000000000000000000600052601260045260246000fd5b6000614401826139b9565b915061440c836139b9565b92508261441c5761441b6143c7565b5b828206905092915050565b600061443282613a7c565b915061443d83613a7c565b9250828210156144505761444f6141e7565b5b82820390509291505056fea2646970667358221220eb19da283e00884fe5832624f8e9cf29faded1d54580679cd4f6dd59b938eebe64736f6c634300080a0033",
  "immutableReferences": {},
  "source": "pragma solidity >=0.6.0;\r\n\r\nimport \"./tradeGame.sol\";\r\n\r\ncontract projectGame is tradeGame {}\r\n",
  "sourcePath": "E:\\ProgrammingStuff\\BlockChain\\truffle\\Projects\\FastCards\\truffle\\contracts\\projectGame.sol",
  "compiler": {
    "name": "solc",
    "version": "0.8.10+commit.fc410830.Emscripten.clang"
  },
  "schemaVersion": "3.4.3",
  "updatedAt": "2021-12-20T13:12:56.913Z",
  "networkType": "ethereum",
  "devdoc": {
    "kind": "dev",
    "methods": {},
    "version": 1
  },
  "userdoc": {
    "kind": "user",
    "methods": {},
    "version": 1
  }
}