{
  "contractName": "projectGame",
  "abi": [
    {
      "inputs": [],
      "name": "cardModValue",
      "outputs": [
        {
          "internalType": "uint256",
          "name": "",
          "type": "uint256"
        }
      ],
      "stateMutability": "view",
      "type": "function",
      "constant": true
    },
    {
      "inputs": [
        {
          "internalType": "uint256",
          "name": "",
          "type": "uint256"
        }
      ],
      "name": "cardToOwner",
      "outputs": [
        {
          "internalType": "uint256",
          "name": "",
          "type": "uint256"
        }
      ],
      "stateMutability": "view",
      "type": "function",
      "constant": true
    },
    {
      "inputs": [
        {
          "internalType": "uint256",
          "name": "",
          "type": "uint256"
        }
      ],
      "name": "cards",
      "outputs": [
        {
          "internalType": "uint256",
          "name": "",
          "type": "uint256"
        }
      ],
      "stateMutability": "view",
      "type": "function",
      "constant": true
    },
    {
      "inputs": [
        {
          "internalType": "uint256",
          "name": "_newCard",
          "type": "uint256"
        }
      ],
      "name": "checkCard",
      "outputs": [
        {
          "internalType": "bool",
          "name": "",
          "type": "bool"
        }
      ],
      "stateMutability": "view",
      "type": "function",
      "constant": true
    },
    {
      "inputs": [],
      "name": "createPlayer",
      "outputs": [],
      "stateMutability": "nonpayable",
      "type": "function"
    },
    {
      "inputs": [],
      "name": "currentRound",
      "outputs": [
        {
          "internalType": "uint256",
          "name": "",
          "type": "uint256"
        }
      ],
      "stateMutability": "view",
      "type": "function",
      "constant": true
    },
    {
      "inputs": [
        {
          "internalType": "uint256",
          "name": "_cardModValue",
          "type": "uint256"
        }
      ],
      "name": "generateCards",
      "outputs": [
        {
          "internalType": "uint256",
          "name": "",
          "type": "uint256"
        }
      ],
      "stateMutability": "nonpayable",
      "type": "function"
    },
    {
      "inputs": [],
      "name": "nonceForRand",
      "outputs": [
        {
          "internalType": "uint256",
          "name": "",
          "type": "uint256"
        }
      ],
      "stateMutability": "view",
      "type": "function",
      "constant": true
    },
    {
      "inputs": [],
      "name": "owner",
      "outputs": [
        {
          "internalType": "address payable",
          "name": "",
          "type": "address"
        }
      ],
      "stateMutability": "view",
      "type": "function",
      "constant": true
    },
    {
      "inputs": [
        {
          "internalType": "uint256",
          "name": "",
          "type": "uint256"
        }
      ],
      "name": "players",
      "outputs": [
        {
          "internalType": "uint256",
          "name": "balance",
          "type": "uint256"
        },
        {
          "internalType": "address",
          "name": "playerAddr",
          "type": "address"
        },
        {
          "internalType": "uint256",
          "name": "round",
          "type": "uint256"
        }
      ],
      "stateMutability": "view",
      "type": "function",
      "constant": true
    },
    {
      "inputs": [],
      "name": "startGame",
      "outputs": [
        {
          "internalType": "bool",
          "name": "",
          "type": "bool"
        }
      ],
      "stateMutability": "view",
      "type": "function",
      "constant": true
    },
    {
      "inputs": [],
      "name": "startTheGame",
      "outputs": [],
      "stateMutability": "nonpayable",
      "type": "function"
    },
    {
      "inputs": [],
      "name": "totalPlayers",
      "outputs": [
        {
          "internalType": "uint256",
          "name": "",
          "type": "uint256"
        }
      ],
      "stateMutability": "view",
      "type": "function",
      "constant": true
    },
    {
      "inputs": [],
      "name": "listCards",
      "outputs": [
        {
          "internalType": "uint256[]",
          "name": "",
          "type": "uint256[]"
        }
      ],
      "stateMutability": "view",
      "type": "function",
      "constant": true
    },
    {
      "inputs": [
        {
          "internalType": "uint256",
          "name": "_player",
          "type": "uint256"
        }
      ],
      "name": "randomCard",
      "outputs": [],
      "stateMutability": "nonpayable",
      "type": "function"
    }
  ],
  "bytecode": "0x60806040526000805560006001556000600260006101000a81548160ff021916908315150217905550612710600355600160085534801561003f57600080fd5b5033600460006101000a81548173ffffffffffffffffffffffffffffffffffffffff021916908373ffffffffffffffffffffffffffffffffffffffff16021790555060008081905550610c9b806100976000396000f3fe608060405234801561001057600080fd5b50600436106100f55760003560e01c80638a19c8bc11610097578063db5f973511610066578063db5f973514610250578063f60cdcf61461026e578063f71d96cb1461028c578063ffb976ec146102be576100f5565b80638a19c8bc146101c65780638da5cb5b146101e45780638dc1076814610202578063d65ab5f214610232576100f5565b8063555f8f51116100d3578063555f8f5114610152578063569277671461018257806366c7ef3a146101a057806375f39f4a146101aa576100f5565b806301fb72cf146100fa5780631f47390c1461012a5780633fa9fcf814610148575b600080fd5b610114600480360381019061010f9190610827565b6102ee565b604051610121919061086f565b60405180910390f35b61013261031d565b60405161013f9190610899565b60405180910390f35b610150610323565b005b61016c60048036038101906101679190610827565b610489565b6040516101799190610899565b60405180910390f35b61018a610528565b6040516101979190610899565b60405180910390f35b6101a861052e565b005b6101c460048036038101906101bf9190610827565b6105a5565b005b6101ce610666565b6040516101db9190610899565b60405180910390f35b6101ec61066c565b6040516101f991906108f5565b60405180910390f35b61021c60048036038101906102179190610827565b610692565b6040516102299190610899565b60405180910390f35b61023a6106b6565b604051610247919061086f565b60405180910390f35b6102586106c9565b60405161026591906109ce565b60405180910390f35b610276610721565b6040516102839190610899565b60405180910390f35b6102a660048036038101906102a19190610827565b610727565b6040516102b593929190610a11565b60405180910390f35b6102d860048036038101906102d39190610827565b610781565b6040516102e59190610899565b60405180910390f35b6000806007600084815260200190815260200160002054146103135760009050610318565b600190505b919050565b60035481565b60001515600260009054906101000a900460ff1615151461034357600080fd5b60056040518060600160405280606481526020013373ffffffffffffffffffffffffffffffffffffffff168152602001600181525090806001815401808255809150506001900390600052602060002090600302016000909190919091506000820151816000015560208201518160010160006101000a81548173ffffffffffffffffffffffffffffffffffffffff021916908373ffffffffffffffffffffffffffffffffffffffff160217905550604082015181600201555050600661040b600354610489565b90806001815401808255809150506001900390600052602060002001600090919091909150556000546007600060066000548154811061044e5761044d610a48565b5b9060005260206000200154815260200190815260200160002081905550610481600160005461079990919063ffffffff16565b600081905550565b60005b6001156105115760008242336001546040516020016104ad93929190610ae0565b6040516020818303038152906040528051906020012060001c6104d09190610b4c565b9050600115156104df826102ee565b151514156104f05780915050610523565b6105056001805461079990919063ffffffff16565b6001819055505061048c565b8162bc614e6105209190610b4c565b90505b919050565b60015481565b600460009054906101000a900473ffffffffffffffffffffffffffffffffffffffff1673ffffffffffffffffffffffffffffffffffffffff163373ffffffffffffffffffffffffffffffffffffffff161461058857600080fd5b6001600260006101000a81548160ff021916908315150217905550565b600a600582815481106105bb576105ba610a48565b5b90600052602060002090600302016000015410156105d857600080fd5b60006105e5600354610489565b90506006819080600181540180825580915050600190039060005260206000200160009091909190915055816007600083815260200190815260200160002081905550610661600a6005848154811061064157610640610a48565b5b9060005260206000209060030201600001546107c590919063ffffffff16565b505050565b60085481565b600460009054906101000a900473ffffffffffffffffffffffffffffffffffffffff1681565b600681815481106106a257600080fd5b906000526020600020016000915090505481565b600260009054906101000a900460ff1681565b6060600680548060200260200160405190810160405280929190818152602001828054801561071757602002820191906000526020600020905b815481526020019060010190808311610703575b5050505050905090565b60005481565b6005818154811061073757600080fd5b90600052602060002090600302016000915090508060000154908060010160009054906101000a900473ffffffffffffffffffffffffffffffffffffffff16908060020154905083565b60076020528060005260406000206000915090505481565b60008082846107a89190610bac565b9050838110156107bb576107ba610c02565b5b8091505092915050565b6000828211156107d8576107d7610c02565b5b81836107e49190610c31565b905092915050565b600080fd5b6000819050919050565b610804816107f1565b811461080f57600080fd5b50565b600081359050610821816107fb565b92915050565b60006020828403121561083d5761083c6107ec565b5b600061084b84828501610812565b91505092915050565b60008115159050919050565b61086981610854565b82525050565b60006020820190506108846000830184610860565b92915050565b610893816107f1565b82525050565b60006020820190506108ae600083018461088a565b92915050565b600073ffffffffffffffffffffffffffffffffffffffff82169050919050565b60006108df826108b4565b9050919050565b6108ef816108d4565b82525050565b600060208201905061090a60008301846108e6565b92915050565b600081519050919050565b600082825260208201905092915050565b6000819050602082019050919050565b610945816107f1565b82525050565b6000610957838361093c565b60208301905092915050565b6000602082019050919050565b600061097b82610910565b610985818561091b565b93506109908361092c565b8060005b838110156109c15781516109a8888261094b565b97506109b383610963565b925050600181019050610994565b5085935050505092915050565b600060208201905081810360008301526109e88184610970565b905092915050565b60006109fb826108b4565b9050919050565b610a0b816109f0565b82525050565b6000606082019050610a26600083018661088a565b610a336020830185610a02565b610a40604083018461088a565b949350505050565b7f4e487b7100000000000000000000000000000000000000000000000000000000600052603260045260246000fd5b6000819050919050565b610a92610a8d826107f1565b610a77565b82525050565b60008160601b9050919050565b6000610ab082610a98565b9050919050565b6000610ac282610aa5565b9050919050565b610ada610ad5826109f0565b610ab7565b82525050565b6000610aec8286610a81565b602082019150610afc8285610ac9565b601482019150610b0c8284610a81565b602082019150819050949350505050565b7f4e487b7100000000000000000000000000000000000000000000000000000000600052601260045260246000fd5b6000610b57826107f1565b9150610b62836107f1565b925082610b7257610b71610b1d565b5b828206905092915050565b7f4e487b7100000000000000000000000000000000000000000000000000000000600052601160045260246000fd5b6000610bb7826107f1565b9150610bc2836107f1565b9250827fffffffffffffffffffffffffffffffffffffffffffffffffffffffffffffffff03821115610bf757610bf6610b7d565b5b828201905092915050565b7f4e487b7100000000000000000000000000000000000000000000000000000000600052600160045260246000fd5b6000610c3c826107f1565b9150610c47836107f1565b925082821015610c5a57610c59610b7d565b5b82820390509291505056fea2646970667358221220e79a5056cf712e52fe2faf5b0de12e8e6639b575038b048513eba9bbde771fef64736f6c634300080a0033",
  "immutableReferences": {},
  "source": "pragma solidity >=0.6.0;\r\n\r\nimport \"./safemath.sol\";\r\nimport \"./initializeGame.sol\";\r\n\r\ncontract projectGame is initializeGame {\r\n    using SafeMath for uint256;\r\n    uint256 public currentRound = 1;\r\n\r\n    function listCards() public view returns (uint256[] memory) {\r\n        return (cards);\r\n    }\r\n\r\n    function randomCard(uint256 _player) public {\r\n        require(players[_player].balance >= 10);\r\n        uint256 newCard = generateCards(cardModValue);\r\n        cards.push(newCard);\r\n        cardToOwner[newCard] = _player;\r\n        players[_player].balance.sub(10);\r\n    }\r\n}\r\n",
  "sourcePath": "E:\\ProgrammingStuff\\BlockChain\\truffle\\Projects\\FastCards\\truffle\\contracts\\projectGame.sol",
  "compiler": {
    "name": "solc",
    "version": "0.8.10+commit.fc410830.Emscripten.clang"
  },
  "schemaVersion": "3.4.3",
  "updatedAt": "2021-12-19T18:32:14.020Z",
  "networkType": "ethereum",
  "devdoc": {
    "kind": "dev",
    "methods": {},
    "version": 1
  },
  "userdoc": {
    "kind": "user",
    "methods": {},
    "version": 1
  }
}