{
  "contractName": "roundsGame",
  "abi": [
    {
      "inputs": [],
      "name": "cardModValue",
      "outputs": [
        {
          "internalType": "uint256",
          "name": "",
          "type": "uint256"
        }
      ],
      "stateMutability": "view",
      "type": "function"
    },
    {
      "inputs": [
        {
          "internalType": "uint256",
          "name": "",
          "type": "uint256"
        }
      ],
      "name": "cardToOwner",
      "outputs": [
        {
          "internalType": "address",
          "name": "",
          "type": "address"
        }
      ],
      "stateMutability": "view",
      "type": "function"
    },
    {
      "inputs": [
        {
          "internalType": "uint256",
          "name": "",
          "type": "uint256"
        }
      ],
      "name": "cards",
      "outputs": [
        {
          "internalType": "uint256",
          "name": "",
          "type": "uint256"
        }
      ],
      "stateMutability": "view",
      "type": "function"
    },
    {
      "inputs": [
        {
          "internalType": "uint256",
          "name": "_newCard",
          "type": "uint256"
        }
      ],
      "name": "checkCard",
      "outputs": [
        {
          "internalType": "bool",
          "name": "",
          "type": "bool"
        }
      ],
      "stateMutability": "view",
      "type": "function"
    },
    {
      "inputs": [],
      "name": "createPlayer",
      "outputs": [],
      "stateMutability": "nonpayable",
      "type": "function"
    },
    {
      "inputs": [],
      "name": "currentRound",
      "outputs": [
        {
          "internalType": "uint256",
          "name": "",
          "type": "uint256"
        }
      ],
      "stateMutability": "view",
      "type": "function"
    },
    {
      "inputs": [
        {
          "internalType": "uint256",
          "name": "_cardModValue",
          "type": "uint256"
        }
      ],
      "name": "generateCards",
      "outputs": [
        {
          "internalType": "uint256",
          "name": "",
          "type": "uint256"
        }
      ],
      "stateMutability": "nonpayable",
      "type": "function"
    },
    {
      "inputs": [],
      "name": "nonceForRand",
      "outputs": [
        {
          "internalType": "uint256",
          "name": "",
          "type": "uint256"
        }
      ],
      "stateMutability": "view",
      "type": "function"
    },
    {
      "inputs": [],
      "name": "owner",
      "outputs": [
        {
          "internalType": "address payable",
          "name": "",
          "type": "address"
        }
      ],
      "stateMutability": "view",
      "type": "function"
    },
    {
      "inputs": [
        {
          "internalType": "address",
          "name": "",
          "type": "address"
        }
      ],
      "name": "ownerToPlayer",
      "outputs": [
        {
          "internalType": "uint16",
          "name": "balance",
          "type": "uint16"
        },
        {
          "internalType": "uint16",
          "name": "round",
          "type": "uint16"
        },
        {
          "internalType": "uint16",
          "name": "cardsOwned",
          "type": "uint16"
        },
        {
          "internalType": "uint16",
          "name": "playerNumber",
          "type": "uint16"
        },
        {
          "internalType": "address",
          "name": "playerAddr",
          "type": "address"
        }
      ],
      "stateMutability": "view",
      "type": "function"
    },
    {
      "inputs": [],
      "name": "playerTurnsDone",
      "outputs": [
        {
          "internalType": "uint256",
          "name": "",
          "type": "uint256"
        }
      ],
      "stateMutability": "view",
      "type": "function"
    },
    {
      "inputs": [],
      "name": "playerWon",
      "outputs": [
        {
          "internalType": "address",
          "name": "",
          "type": "address"
        }
      ],
      "stateMutability": "view",
      "type": "function"
    },
    {
      "inputs": [],
      "name": "randomCost",
      "outputs": [
        {
          "internalType": "uint16",
          "name": "",
          "type": "uint16"
        }
      ],
      "stateMutability": "view",
      "type": "function"
    },
    {
      "inputs": [],
      "name": "startGame",
      "outputs": [
        {
          "internalType": "bool",
          "name": "",
          "type": "bool"
        }
      ],
      "stateMutability": "view",
      "type": "function"
    },
    {
      "inputs": [],
      "name": "startTheGame",
      "outputs": [],
      "stateMutability": "nonpayable",
      "type": "function"
    },
    {
      "inputs": [],
      "name": "totalPlayers",
      "outputs": [
        {
          "internalType": "uint16",
          "name": "",
          "type": "uint16"
        }
      ],
      "stateMutability": "view",
      "type": "function"
    },
    {
      "inputs": [],
      "name": "retCards",
      "outputs": [
        {
          "internalType": "uint256[]",
          "name": "",
          "type": "uint256[]"
        }
      ],
      "stateMutability": "view",
      "type": "function"
    },
    {
      "inputs": [],
      "name": "retPlayer",
      "outputs": [
        {
          "components": [
            {
              "internalType": "uint16",
              "name": "balance",
              "type": "uint16"
            },
            {
              "internalType": "uint16",
              "name": "round",
              "type": "uint16"
            },
            {
              "internalType": "uint16",
              "name": "cardsOwned",
              "type": "uint16"
            },
            {
              "internalType": "uint16",
              "name": "playerNumber",
              "type": "uint16"
            },
            {
              "internalType": "address",
              "name": "playerAddr",
              "type": "address"
            }
          ],
          "internalType": "struct initializeGame.Player",
          "name": "",
          "type": "tuple"
        }
      ],
      "stateMutability": "view",
      "type": "function"
    },
    {
      "inputs": [
        {
          "internalType": "uint256",
          "name": "_card",
          "type": "uint256"
        }
      ],
      "name": "cardOwner",
      "outputs": [
        {
          "internalType": "address",
          "name": "",
          "type": "address"
        }
      ],
      "stateMutability": "view",
      "type": "function"
    },
    {
      "inputs": [],
      "name": "retPlayerTurnsDone",
      "outputs": [
        {
          "internalType": "uint256",
          "name": "",
          "type": "uint256"
        }
      ],
      "stateMutability": "view",
      "type": "function"
    },
    {
      "inputs": [],
      "name": "retCurrentRound",
      "outputs": [
        {
          "internalType": "uint256",
          "name": "",
          "type": "uint256"
        }
      ],
      "stateMutability": "view",
      "type": "function"
    },
    {
      "inputs": [],
      "name": "retPlayerCards",
      "outputs": [
        {
          "internalType": "uint256[]",
          "name": "",
          "type": "uint256[]"
        }
      ],
      "stateMutability": "view",
      "type": "function"
    },
    {
      "inputs": [],
      "name": "retPlayerScore",
      "outputs": [
        {
          "internalType": "uint256",
          "name": "",
          "type": "uint256"
        }
      ],
      "stateMutability": "view",
      "type": "function"
    },
    {
      "inputs": [],
      "name": "randomCard",
      "outputs": [],
      "stateMutability": "nonpayable",
      "type": "function"
    }
  ],
  "bytecode": "0x608060405260008060006101000a81548161ffff021916908361ffff16021790555060006001556000600260006101000a81548160ff02191690831515021790555061271060035560016008556000600955600a8060006101000a81548161ffff021916908361ffff1602179055506000600a60026101000a81548173ffffffffffffffffffffffffffffffffffffffff021916908373ffffffffffffffffffffffffffffffffffffffff1602179055506000600b553480156100c157600080fd5b5033600460006101000a81548173ffffffffffffffffffffffffffffffffffffffff021916908373ffffffffffffffffffffffffffffffffffffffff16021790555060008060006101000a81548161ffff021916908361ffff160217905550611b4e8061012f6000396000f3fe608060405234801561001057600080fd5b50600436106101585760003560e01c80638a19c8bc116100c3578063d65ab5f21161007c578063d65ab5f21461039b578063e4fda636146103b9578063ee421794146103d7578063ef034d8a146103f5578063f60cdcf614610413578063ffb976ec1461043157610158565b80638a19c8bc146102d75780638da5cb5b146102f55780638dc10768146103135780639f3c9c9714610343578063ac89fa6314610361578063b401f2211461039157610158565b80633fa9fcf8116101155780633fa9fcf8146102395780633fb876cc14610243578063555f8f5114610261578063569277671461029157806366c7ef3a146102af5780636e3afc1d146102b957610158565b806301fb72cf1461015d5780631b95ba761461018d5780631f47390c146101ab57806327d978cf146101c95780632c9984da146101e75780633ca7aac314610205575b600080fd5b610177600480360381019061017291906114bc565b610461565b6040516101849190611504565b60405180910390f35b6101956104dc565b6040516101a2919061152e565b60405180910390f35b6101b36104e6565b6040516101c0919061152e565b60405180910390f35b6101d16104ec565b6040516101de919061152e565b60405180910390f35b6101ef61066f565b6040516101fc919061152e565b60405180910390f35b61021f600480360381019061021a91906115a7565b610679565b604051610230959493929190611600565b60405180910390f35b610241610707565b005b61024b610998565b6040516102589190611711565b60405180910390f35b61027b600480360381019061027691906114bc565b6109f0565b604051610288919061152e565b60405180910390f35b610299610a8d565b6040516102a6919061152e565b60405180910390f35b6102b7610a93565b005b6102c1610b0a565b6040516102ce91906117b9565b60405180910390f35b6102df610c37565b6040516102ec919061152e565b60405180910390f35b6102fd610c3d565b60405161030a91906117f5565b60405180910390f35b61032d600480360381019061032891906114bc565b610c63565b60405161033a919061152e565b60405180910390f35b61034b610c87565b6040516103589190611711565b60405180910390f35b61037b600480360381019061037691906114bc565b610de4565b6040516103889190611810565b60405180910390f35b610399610e21565b005b6103a3611068565b6040516103b09190611504565b60405180910390f35b6103c161107b565b6040516103ce919061182b565b60405180910390f35b6103df61108f565b6040516103ec919061152e565b60405180910390f35b6103fd611095565b60405161040a9190611810565b60405180910390f35b61041b6110bb565b604051610428919061182b565b60405180910390f35b61044b600480360381019061044691906114bc565b6110cd565b6040516104589190611810565b60405180910390f35b60008073ffffffffffffffffffffffffffffffffffffffff166006600084815260200190815260200160002060009054906101000a900473ffffffffffffffffffffffffffffffffffffffff1673ffffffffffffffffffffffffffffffffffffffff16146104d257600090506104d7565b600190505b919050565b6000600954905090565b60035481565b6000806104f7610b0a565b6040015161ffff1667ffffffffffffffff81111561051857610517611846565b5b6040519080825280602002602001820160405280156105465781602001602082028036833780820191505090505b509050610551610c87565b90506000805b8251811015610666576103e883828151811061057657610575611875565b5b6020026020010151101561059857600a8261059191906118d3565b9150610653565b6113888382815181106105ae576105ad611875565b5b602002602001015110156105d0576005826105c99190611907565b9150610652565b611b588382815181106105e6576105e5611875565b5b6020026020010151101561060857600a826106019190611907565b9150610651565b61232883828151811061061e5761061d611875565b5b6020026020010151101561064057600f826106399190611907565b9150610650565b601e8261064d9190611907565b91505b5b5b5b808061065e9061195d565b915050610557565b50809250505090565b6000600854905090565b60076020528060005260406000206000915090508060000160009054906101000a900461ffff16908060000160029054906101000a900461ffff16908060000160049054906101000a900461ffff16908060000160069054906101000a900461ffff16908060000160089054906101000a900473ffffffffffffffffffffffffffffffffffffffff16905085565b60001515600260009054906101000a900460ff1615151461072757600080fd5b600073ffffffffffffffffffffffffffffffffffffffff16600760003373ffffffffffffffffffffffffffffffffffffffff1673ffffffffffffffffffffffffffffffffffffffff16815260200190815260200160002060000160089054906101000a900473ffffffffffffffffffffffffffffffffffffffff1673ffffffffffffffffffffffffffffffffffffffff16146107c257600080fd5b60016000808282829054906101000a900461ffff166107e191906119a6565b92506101000a81548161ffff021916908361ffff1602179055506040518060a00160405280606461ffff168152602001600161ffff168152602001600061ffff16815260200160008054906101000a900461ffff1661ffff1681526020013373ffffffffffffffffffffffffffffffffffffffff16815250600760003373ffffffffffffffffffffffffffffffffffffffff1673ffffffffffffffffffffffffffffffffffffffff16815260200190815260200160002060008201518160000160006101000a81548161ffff021916908361ffff16021790555060208201518160000160026101000a81548161ffff021916908361ffff16021790555060408201518160000160046101000a81548161ffff021916908361ffff16021790555060608201518160000160066101000a81548161ffff021916908361ffff16021790555060808201518160000160086101000a81548173ffffffffffffffffffffffffffffffffffffffff021916908373ffffffffffffffffffffffffffffffffffffffff16021790555090505060005b600381101561099557610982611100565b808061098d9061195d565b915050610971565b50565b606060058054806020026020016040519081016040528092919081815260200182805480156109e657602002820191906000526020600020905b8154815260200190600101908083116109d2575b5050505050905090565b60005b600115610a76576000824233600154604051602001610a1493929190611a47565b6040516020818303038152906040528051906020012060001c610a379190611ab3565b905060011515610a4682610461565b15151415610a575780915050610a88565b6001806000828254610a699190611907565b92505081905550506109f3565b8162bc614e610a859190611ab3565b90505b919050565b60015481565b600460009054906101000a900473ffffffffffffffffffffffffffffffffffffffff1673ffffffffffffffffffffffffffffffffffffffff163373ffffffffffffffffffffffffffffffffffffffff1614610aed57600080fd5b6001600260006101000a81548160ff021916908315150217905550565b610b1261142c565b600760003373ffffffffffffffffffffffffffffffffffffffff1673ffffffffffffffffffffffffffffffffffffffff1681526020019081526020016000206040518060a00160405290816000820160009054906101000a900461ffff1661ffff1661ffff1681526020016000820160029054906101000a900461ffff1661ffff1661ffff1681526020016000820160049054906101000a900461ffff1661ffff1661ffff1681526020016000820160069054906101000a900461ffff1661ffff1661ffff1681526020016000820160089054906101000a900473ffffffffffffffffffffffffffffffffffffffff1673ffffffffffffffffffffffffffffffffffffffff1673ffffffffffffffffffffffffffffffffffffffff1681525050905090565b60085481565b600460009054906101000a900473ffffffffffffffffffffffffffffffffffffffff1681565b60058181548110610c7357600080fd5b906000526020600020016000915090505481565b60606000610c93610b0a565b6040015161ffff1667ffffffffffffffff811115610cb457610cb3611846565b5b604051908082528060200260200182016040528015610ce25781602001602082028036833780820191505090505b5090506000805b600580549050811015610ddb573373ffffffffffffffffffffffffffffffffffffffff166006600060058481548110610d2557610d24611875565b5b9060005260206000200154815260200190815260200160002060009054906101000a900473ffffffffffffffffffffffffffffffffffffffff1673ffffffffffffffffffffffffffffffffffffffff161415610dc85760058181548110610d8f57610d8e611875565b5b9060005260206000200154838381518110610dad57610dac611875565b5b6020026020010181815250508180610dc49061195d565b9250505b8080610dd39061195d565b915050610ce9565b50819250505090565b60006006600083815260200190815260200160002060009054906101000a900473ffffffffffffffffffffffffffffffffffffffff169050919050565b60011515600260009054906101000a900460ff16151514610e4157600080fd5b60008054906101000a900461ffff1661ffff1660095410610e6157600080fd5b600854600760003373ffffffffffffffffffffffffffffffffffffffff1673ffffffffffffffffffffffffffffffffffffffff16815260200190815260200160002060000160029054906101000a900461ffff1661ffff161115610ec457600080fd5b600a60009054906101000a900461ffff1661ffff16600760003373ffffffffffffffffffffffffffffffffffffffff1673ffffffffffffffffffffffffffffffffffffffff16815260200190815260200160002060000160009054906101000a900461ffff1661ffff161015610f3957600080fd5b610f41611100565b600a60009054906101000a900461ffff16600760003373ffffffffffffffffffffffffffffffffffffffff1673ffffffffffffffffffffffffffffffffffffffff16815260200190815260200160002060000160008282829054906101000a900461ffff16610fb09190611ae4565b92506101000a81548161ffff021916908361ffff160217905550600160096000828254610fdd9190611907565b925050819055506001600760003373ffffffffffffffffffffffffffffffffffffffff1673ffffffffffffffffffffffffffffffffffffffff16815260200190815260200160002060000160028282829054906101000a900461ffff1661104491906119a6565b92506101000a81548161ffff021916908361ffff160217905550611066611207565b565b600260009054906101000a900460ff1681565b600a60009054906101000a900461ffff1681565b60095481565b600a60029054906101000a900473ffffffffffffffffffffffffffffffffffffffff1681565b60008054906101000a900461ffff1681565b60066020528060005260406000206000915054906101000a900473ffffffffffffffffffffffffffffffffffffffff1681565b600061110d6003546109f0565b90506005819080600181540180825580915050600190039060005260206000200160009091909190915055336006600083815260200190815260200160002060006101000a81548173ffffffffffffffffffffffffffffffffffffffff021916908373ffffffffffffffffffffffffffffffffffffffff1602179055506001600760003373ffffffffffffffffffffffffffffffffffffffff1673ffffffffffffffffffffffffffffffffffffffff16815260200190815260200160002060000160048282829054906101000a900461ffff166111ea91906119a6565b92506101000a81548161ffff021916908361ffff16021790555050565b60011515600260009054906101000a900460ff1615151461122757600080fd5b60646112316104ec565b50506000600760003373ffffffffffffffffffffffffffffffffffffffff1673ffffffffffffffffffffffffffffffffffffffff16815260200190815260200160002060000160009054906101000a900461ffff1661ffff16116113a05760016000808282829054906101000a900461ffff166112ae9190611ae4565b92506101000a81548161ffff021916908361ffff1602179055506001600960008282546112db91906118d3565b92505081905550600760003373ffffffffffffffffffffffffffffffffffffffff1673ffffffffffffffffffffffffffffffffffffffff168152602001908152602001600020600080820160006101000a81549061ffff02191690556000820160026101000a81549061ffff02191690556000820160046101000a81549061ffff02191690556000820160066101000a81549061ffff02191690556000820160086101000a81549073ffffffffffffffffffffffffffffffffffffffff021916905550505b60008054906101000a900461ffff1661ffff1660095414156113c5576113c46113c7565b5b565b60011515600260009054906101000a900460ff161515146113e757600080fd5b60008054906101000a900461ffff1661ffff16600954101561140857600080fd5b60006009819055506001600860008282546114239190611907565b92505081905550565b6040518060a00160405280600061ffff168152602001600061ffff168152602001600061ffff168152602001600061ffff168152602001600073ffffffffffffffffffffffffffffffffffffffff1681525090565b600080fd5b6000819050919050565b61149981611486565b81146114a457600080fd5b50565b6000813590506114b681611490565b92915050565b6000602082840312156114d2576114d1611481565b5b60006114e0848285016114a7565b91505092915050565b60008115159050919050565b6114fe816114e9565b82525050565b600060208201905061151960008301846114f5565b92915050565b61152881611486565b82525050565b6000602082019050611543600083018461151f565b92915050565b600073ffffffffffffffffffffffffffffffffffffffff82169050919050565b600061157482611549565b9050919050565b61158481611569565b811461158f57600080fd5b50565b6000813590506115a18161157b565b92915050565b6000602082840312156115bd576115bc611481565b5b60006115cb84828501611592565b91505092915050565b600061ffff82169050919050565b6115eb816115d4565b82525050565b6115fa81611569565b82525050565b600060a08201905061161560008301886115e2565b61162260208301876115e2565b61162f60408301866115e2565b61163c60608301856115e2565b61164960808301846115f1565b9695505050505050565b600081519050919050565b600082825260208201905092915050565b6000819050602082019050919050565b61168881611486565b82525050565b600061169a838361167f565b60208301905092915050565b6000602082019050919050565b60006116be82611653565b6116c8818561165e565b93506116d38361166f565b8060005b838110156117045781516116eb888261168e565b97506116f6836116a6565b9250506001810190506116d7565b5085935050505092915050565b6000602082019050818103600083015261172b81846116b3565b905092915050565b61173c816115d4565b82525050565b61174b81611569565b82525050565b60a0820160008201516117676000850182611733565b50602082015161177a6020850182611733565b50604082015161178d6040850182611733565b5060608201516117a06060850182611733565b5060808201516117b36080850182611742565b50505050565b600060a0820190506117ce6000830184611751565b92915050565b60006117df82611549565b9050919050565b6117ef816117d4565b82525050565b600060208201905061180a60008301846117e6565b92915050565b600060208201905061182560008301846115f1565b92915050565b600060208201905061184060008301846115e2565b92915050565b7f4e487b7100000000000000000000000000000000000000000000000000000000600052604160045260246000fd5b7f4e487b7100000000000000000000000000000000000000000000000000000000600052603260045260246000fd5b7f4e487b7100000000000000000000000000000000000000000000000000000000600052601160045260246000fd5b60006118de82611486565b91506118e983611486565b9250828210156118fc576118fb6118a4565b5b828203905092915050565b600061191282611486565b915061191d83611486565b9250827fffffffffffffffffffffffffffffffffffffffffffffffffffffffffffffffff03821115611952576119516118a4565b5b828201905092915050565b600061196882611486565b91507fffffffffffffffffffffffffffffffffffffffffffffffffffffffffffffffff82141561199b5761199a6118a4565b5b600182019050919050565b60006119b1826115d4565b91506119bc836115d4565b92508261ffff038211156119d3576119d26118a4565b5b828201905092915050565b6000819050919050565b6119f96119f482611486565b6119de565b82525050565b60008160601b9050919050565b6000611a17826119ff565b9050919050565b6000611a2982611a0c565b9050919050565b611a41611a3c82611569565b611a1e565b82525050565b6000611a5382866119e8565b602082019150611a638285611a30565b601482019150611a7382846119e8565b602082019150819050949350505050565b7f4e487b7100000000000000000000000000000000000000000000000000000000600052601260045260246000fd5b6000611abe82611486565b9150611ac983611486565b925082611ad957611ad8611a84565b5b828206905092915050565b6000611aef826115d4565b9150611afa836115d4565b925082821015611b0d57611b0c6118a4565b5b82820390509291505056fea2646970667358221220afb4c1c38ca39b54fdca97b379ea4b0690949b292338f4a3ba04a39ac596741d64736f6c634300080a0033",
  "immutableReferences": {},
  "source": "pragma solidity >=0.6.0;\r\n\r\nimport \"./initializeGame.sol\";\r\n\r\n/*==================================================================\r\nContains\r\n-Majority of the Modifiers\r\n-Return Options \r\n-Round Change\r\n-Random Card\r\n-Score Calculation\r\nFunctionality \r\n==================================================================*/\r\n\r\ncontract roundsGame is initializeGame {\r\n    //--------------------Variables----------------------\r\n\r\n    // using SafeMath for uint256;\r\n    // using SafeMath16 for uint16;\r\n    uint256 public currentRound = 1;\r\n    uint256 public playerTurnsDone = 0; //players who have finished their turn\r\n    uint16 public randomCost = 10;\r\n    address public playerWon = address(0);\r\n\r\n    uint256 currentTrades = 0; //current amount of trades pending\r\n\r\n    //--------------------Modifier----------------------\r\n\r\n    modifier gameStarted() {\r\n        require(startGame == true);\r\n        _;\r\n    }\r\n    //make sure all players havent done their turns\r\n    modifier turnsLeft() {\r\n        require(playerTurnsDone < totalPlayers);\r\n        _;\r\n    }\r\n    //make sure current player has not done their turn\r\n    modifier turnAvailable() {\r\n        require(ownerToPlayer[msg.sender].round <= currentRound);\r\n        _;\r\n    }\r\n\r\n    //--------------------Functions----------------------\r\n\r\n    function retCards() public view returns (uint256[] memory) {\r\n        return (cards);\r\n    }\r\n\r\n    function retPlayer() public view returns (Player memory) {\r\n        return (ownerToPlayer[msg.sender]);\r\n    }\r\n\r\n    function cardOwner(uint256 _card) public view returns (address) {\r\n        return (cardToOwner[_card]);\r\n    }\r\n\r\n    function retPlayerTurnsDone() public view returns (uint256) {\r\n        return playerTurnsDone;\r\n    }\r\n\r\n    function retCurrentRound() public view returns (uint256) {\r\n        return currentRound;\r\n    }\r\n\r\n    function retPlayerCards() public view returns (uint256[] memory) {\r\n        uint256[] memory result = new uint256[](retPlayer().cardsOwned);\r\n        uint256 counter = 0;\r\n        for (uint256 i = 0; i < cards.length; i++) {\r\n            if (cardToOwner[cards[i]] == msg.sender) {\r\n                result[counter] = cards[i];\r\n                counter++;\r\n            }\r\n        }\r\n        return result;\r\n    }\r\n\r\n    //Calculates total costs and points according to cards\r\n\r\n    function retPlayerScore() public view returns (uint256) {\r\n        uint256[] memory playerCards = new uint256[](retPlayer().cardsOwned);\r\n        playerCards = retPlayerCards();\r\n        uint256 totalScore = 0;\r\n        for (uint256 i = 0; i < playerCards.length; i++) {\r\n            if (playerCards[i] < 1000) {\r\n                totalScore -= 10;\r\n            } else if (playerCards[i] < 5000) {\r\n                totalScore += 5;\r\n            } else if (playerCards[i] < 7000) {\r\n                totalScore += 10;\r\n            } else if (playerCards[i] < 9000) {\r\n                totalScore += 15;\r\n            } else {\r\n                totalScore += 30;\r\n            }\r\n        }\r\n        return totalScore;\r\n    }\r\n\r\n    //Currently costs 10 Tokens for each random card creation\r\n    function randomCard() public gameStarted turnsLeft turnAvailable {\r\n        require(ownerToPlayer[msg.sender].balance >= randomCost);\r\n        addCard();\r\n        ownerToPlayer[msg.sender].balance -= randomCost;\r\n        playerTurnsDone += 1;\r\n        ownerToPlayer[msg.sender].round += 1;\r\n        advancePlay();\r\n    }\r\n\r\n    //-------ADVANCE ROUND OR END GAME IF SCORE REACHED--------\r\n    function advancePlay() internal gameStarted {\r\n        if (retPlayerScore() >= 100) {} //NO CONDITION SET RN\r\n        if (ownerToPlayer[msg.sender].balance <= 0) {\r\n            totalPlayers -= 1;\r\n            playerTurnsDone -= 1;\r\n            delete ownerToPlayer[msg.sender];\r\n        }\r\n        if (playerTurnsDone == totalPlayers) {\r\n            advanceRound();\r\n        }\r\n    }\r\n\r\n    function advanceRound() internal gameStarted {\r\n        require(playerTurnsDone >= totalPlayers);\r\n        playerTurnsDone = 0;\r\n        currentRound += 1;\r\n    }\r\n}\r\n",
  "sourcePath": "E:\\ProgrammingStuff\\BlockChain\\truffle\\Projects\\FastCards\\truffle\\contracts\\roundsGame.sol",
  "compiler": {
    "name": "solc",
    "version": "0.8.10+commit.fc410830.Emscripten.clang"
  },
  "schemaVersion": "3.4.3",
  "updatedAt": "2021-12-20T14:42:54.761Z",
  "devdoc": {
    "kind": "dev",
    "methods": {},
    "version": 1
  },
  "userdoc": {
    "kind": "user",
    "methods": {},
    "version": 1
  }
}