{
  "contractName": "tradeGame",
  "abi": [
    {
      "inputs": [],
      "name": "cardModValue",
      "outputs": [
        {
          "internalType": "uint256",
          "name": "",
          "type": "uint256"
        }
      ],
      "stateMutability": "view",
      "type": "function"
    },
    {
      "inputs": [
        {
          "internalType": "uint256",
          "name": "_card",
          "type": "uint256"
        }
      ],
      "name": "cardOwner",
      "outputs": [
        {
          "internalType": "address",
          "name": "",
          "type": "address"
        }
      ],
      "stateMutability": "view",
      "type": "function"
    },
    {
      "inputs": [
        {
          "internalType": "uint256",
          "name": "",
          "type": "uint256"
        }
      ],
      "name": "cardToOwner",
      "outputs": [
        {
          "internalType": "address",
          "name": "",
          "type": "address"
        }
      ],
      "stateMutability": "view",
      "type": "function"
    },
    {
      "inputs": [
        {
          "internalType": "uint256",
          "name": "",
          "type": "uint256"
        }
      ],
      "name": "cards",
      "outputs": [
        {
          "internalType": "uint256",
          "name": "",
          "type": "uint256"
        }
      ],
      "stateMutability": "view",
      "type": "function"
    },
    {
      "inputs": [
        {
          "internalType": "uint256",
          "name": "_newCard",
          "type": "uint256"
        }
      ],
      "name": "checkCard",
      "outputs": [
        {
          "internalType": "bool",
          "name": "",
          "type": "bool"
        }
      ],
      "stateMutability": "view",
      "type": "function"
    },
    {
      "inputs": [],
      "name": "createPlayer",
      "outputs": [],
      "stateMutability": "nonpayable",
      "type": "function"
    },
    {
      "inputs": [],
      "name": "currentRound",
      "outputs": [
        {
          "internalType": "uint256",
          "name": "",
          "type": "uint256"
        }
      ],
      "stateMutability": "view",
      "type": "function"
    },
    {
      "inputs": [
        {
          "internalType": "uint256",
          "name": "_cardModValue",
          "type": "uint256"
        }
      ],
      "name": "generateCards",
      "outputs": [
        {
          "internalType": "uint256",
          "name": "",
          "type": "uint256"
        }
      ],
      "stateMutability": "nonpayable",
      "type": "function"
    },
    {
      "inputs": [],
      "name": "nonceForRand",
      "outputs": [
        {
          "internalType": "uint256",
          "name": "",
          "type": "uint256"
        }
      ],
      "stateMutability": "view",
      "type": "function"
    },
    {
      "inputs": [],
      "name": "owner",
      "outputs": [
        {
          "internalType": "address payable",
          "name": "",
          "type": "address"
        }
      ],
      "stateMutability": "view",
      "type": "function"
    },
    {
      "inputs": [
        {
          "internalType": "address",
          "name": "",
          "type": "address"
        }
      ],
      "name": "ownerToPlayer",
      "outputs": [
        {
          "internalType": "uint16",
          "name": "balance",
          "type": "uint16"
        },
        {
          "internalType": "uint16",
          "name": "round",
          "type": "uint16"
        },
        {
          "internalType": "uint16",
          "name": "cardsOwned",
          "type": "uint16"
        },
        {
          "internalType": "uint16",
          "name": "playerNumber",
          "type": "uint16"
        },
        {
          "internalType": "address",
          "name": "playerAddr",
          "type": "address"
        }
      ],
      "stateMutability": "view",
      "type": "function"
    },
    {
      "inputs": [
        {
          "internalType": "address",
          "name": "",
          "type": "address"
        }
      ],
      "name": "ownerToTrade",
      "outputs": [
        {
          "internalType": "uint16",
          "name": "ownerOffer",
          "type": "uint16"
        },
        {
          "internalType": "uint16",
          "name": "ownerCard",
          "type": "uint16"
        },
        {
          "internalType": "uint16",
          "name": "buyerOffer",
          "type": "uint16"
        },
        {
          "internalType": "uint16",
          "name": "buyerCard",
          "type": "uint16"
        },
        {
          "internalType": "bool",
          "name": "tradeComplete",
          "type": "bool"
        },
        {
          "internalType": "bool",
          "name": "tradeAvailable",
          "type": "bool"
        },
        {
          "internalType": "address",
          "name": "ownerAddr",
          "type": "address"
        },
        {
          "internalType": "address",
          "name": "buyerAddr",
          "type": "address"
        }
      ],
      "stateMutability": "view",
      "type": "function"
    },
    {
      "inputs": [],
      "name": "playerTurnsDone",
      "outputs": [
        {
          "internalType": "uint256",
          "name": "",
          "type": "uint256"
        }
      ],
      "stateMutability": "view",
      "type": "function"
    },
    {
      "inputs": [],
      "name": "playerWon",
      "outputs": [
        {
          "internalType": "address",
          "name": "",
          "type": "address"
        }
      ],
      "stateMutability": "view",
      "type": "function"
    },
    {
      "inputs": [],
      "name": "randomCard",
      "outputs": [],
      "stateMutability": "nonpayable",
      "type": "function"
    },
    {
      "inputs": [],
      "name": "randomCost",
      "outputs": [
        {
          "internalType": "uint16",
          "name": "",
          "type": "uint16"
        }
      ],
      "stateMutability": "view",
      "type": "function"
    },
    {
      "inputs": [],
      "name": "retCards",
      "outputs": [
        {
          "internalType": "uint256[]",
          "name": "",
          "type": "uint256[]"
        }
      ],
      "stateMutability": "view",
      "type": "function"
    },
    {
      "inputs": [],
      "name": "retPlayer",
      "outputs": [
        {
          "components": [
            {
              "internalType": "uint16",
              "name": "balance",
              "type": "uint16"
            },
            {
              "internalType": "uint16",
              "name": "round",
              "type": "uint16"
            },
            {
              "internalType": "uint16",
              "name": "cardsOwned",
              "type": "uint16"
            },
            {
              "internalType": "uint16",
              "name": "playerNumber",
              "type": "uint16"
            },
            {
              "internalType": "address",
              "name": "playerAddr",
              "type": "address"
            }
          ],
          "internalType": "struct initializeGame.Player",
          "name": "",
          "type": "tuple"
        }
      ],
      "stateMutability": "view",
      "type": "function"
    },
    {
      "inputs": [],
      "name": "retcurrentRound",
      "outputs": [
        {
          "internalType": "uint256",
          "name": "",
          "type": "uint256"
        }
      ],
      "stateMutability": "view",
      "type": "function"
    },
    {
      "inputs": [],
      "name": "retplayerCards",
      "outputs": [
        {
          "internalType": "uint256[]",
          "name": "",
          "type": "uint256[]"
        }
      ],
      "stateMutability": "view",
      "type": "function"
    },
    {
      "inputs": [],
      "name": "retplayerScore",
      "outputs": [
        {
          "internalType": "uint256",
          "name": "",
          "type": "uint256"
        }
      ],
      "stateMutability": "view",
      "type": "function"
    },
    {
      "inputs": [],
      "name": "retplayerTurnsDone",
      "outputs": [
        {
          "internalType": "uint256",
          "name": "",
          "type": "uint256"
        }
      ],
      "stateMutability": "view",
      "type": "function"
    },
    {
      "inputs": [],
      "name": "startGame",
      "outputs": [
        {
          "internalType": "bool",
          "name": "",
          "type": "bool"
        }
      ],
      "stateMutability": "view",
      "type": "function"
    },
    {
      "inputs": [],
      "name": "startTheGame",
      "outputs": [],
      "stateMutability": "nonpayable",
      "type": "function"
    },
    {
      "inputs": [],
      "name": "totalPlayers",
      "outputs": [
        {
          "internalType": "uint16",
          "name": "",
          "type": "uint16"
        }
      ],
      "stateMutability": "view",
      "type": "function"
    },
    {
      "inputs": [
        {
          "internalType": "uint256",
          "name": "",
          "type": "uint256"
        }
      ],
      "name": "trades",
      "outputs": [
        {
          "internalType": "uint16",
          "name": "ownerOffer",
          "type": "uint16"
        },
        {
          "internalType": "uint16",
          "name": "ownerCard",
          "type": "uint16"
        },
        {
          "internalType": "uint16",
          "name": "buyerOffer",
          "type": "uint16"
        },
        {
          "internalType": "uint16",
          "name": "buyerCard",
          "type": "uint16"
        },
        {
          "internalType": "bool",
          "name": "tradeComplete",
          "type": "bool"
        },
        {
          "internalType": "bool",
          "name": "tradeAvailable",
          "type": "bool"
        },
        {
          "internalType": "address",
          "name": "ownerAddr",
          "type": "address"
        },
        {
          "internalType": "address",
          "name": "buyerAddr",
          "type": "address"
        }
      ],
      "stateMutability": "view",
      "type": "function"
    },
    {
      "inputs": [
        {
          "internalType": "uint16",
          "name": "_ownerOffer",
          "type": "uint16"
        },
        {
          "internalType": "uint16",
          "name": "_ownerCard",
          "type": "uint16"
        }
      ],
      "name": "startTrade",
      "outputs": [],
      "stateMutability": "nonpayable",
      "type": "function"
    },
    {
      "inputs": [
        {
          "internalType": "address",
          "name": "ownerAddr",
          "type": "address"
        }
      ],
      "name": "retTrade",
      "outputs": [
        {
          "internalType": "bool",
          "name": "",
          "type": "bool"
        }
      ],
      "stateMutability": "view",
      "type": "function"
    },
    {
      "inputs": [],
      "name": "retAllTrades",
      "outputs": [
        {
          "components": [
            {
              "internalType": "uint16",
              "name": "ownerOffer",
              "type": "uint16"
            },
            {
              "internalType": "uint16",
              "name": "ownerCard",
              "type": "uint16"
            },
            {
              "internalType": "uint16",
              "name": "buyerOffer",
              "type": "uint16"
            },
            {
              "internalType": "uint16",
              "name": "buyerCard",
              "type": "uint16"
            },
            {
              "internalType": "bool",
              "name": "tradeComplete",
              "type": "bool"
            },
            {
              "internalType": "bool",
              "name": "tradeAvailable",
              "type": "bool"
            },
            {
              "internalType": "address",
              "name": "ownerAddr",
              "type": "address"
            },
            {
              "internalType": "address",
              "name": "buyerAddr",
              "type": "address"
            }
          ],
          "internalType": "struct tradeGame.tradeCard[]",
          "name": "",
          "type": "tuple[]"
        }
      ],
      "stateMutability": "view",
      "type": "function"
    },
    {
      "inputs": [],
      "name": "retTradeIndex",
      "outputs": [
        {
          "internalType": "uint256",
          "name": "",
          "type": "uint256"
        }
      ],
      "stateMutability": "view",
      "type": "function"
    },
    {
      "inputs": [
        {
          "internalType": "uint16",
          "name": "_buyerOffer",
          "type": "uint16"
        },
        {
          "internalType": "uint16",
          "name": "_buyerCard",
          "type": "uint16"
        },
        {
          "internalType": "address",
          "name": "_ownerAddr",
          "type": "address"
        }
      ],
      "name": "offerTrade",
      "outputs": [],
      "stateMutability": "nonpayable",
      "type": "function"
    },
    {
      "inputs": [
        {
          "internalType": "bool",
          "name": "_tradeConfirm",
          "type": "bool"
        }
      ],
      "name": "tradeComplete",
      "outputs": [],
      "stateMutability": "nonpayable",
      "type": "function"
    }
  ],
  "bytecode": "0x608060405260008060006101000a81548161ffff021916908361ffff16021790555060006001556000600260006101000a81548160ff02191690831515021790555061271060035560016008556000600955600a8060006101000a81548161ffff021916908361ffff1602179055506000600a60026101000a81548173ffffffffffffffffffffffffffffffffffffffff021916908373ffffffffffffffffffffffffffffffffffffffff1602179055506000600b553480156100c157600080fd5b5033600460006101000a81548173ffffffffffffffffffffffffffffffffffffffff021916908373ffffffffffffffffffffffffffffffffffffffff16021790555060008060006101000a81548161ffff021916908361ffff1602179055506139f78061012f6000396000f3fe608060405234801561001057600080fd5b50600436106101f05760003560e01c80636e3afc1d1161010f578063b401f221116100a2578063ef034d8a11610071578063ef034d8a14610584578063ef75dff9146105a2578063f60cdcf6146105d9578063ffb976ec146105f7576101f0565b8063b401f22114610520578063d65ab5f21461052a578063e4fda63614610548578063ee42179414610566576101f0565b8063a6113551116100de578063a611355114610486578063a7def311146104a4578063ac89fa63146104c0578063afc779b8146104f0576101f0565b80636e3afc1d146103fc5780638a19c8bc1461041a5780638da5cb5b146104385780638dc1076814610456576101f0565b80633fa9fcf811610187578063555f8f5111610156578063555f8f511461038857806356927767146103b8578063604c528d146103d657806366c7ef3a146103f2576101f0565b80633fa9fcf8146103245780633fb876cc1461032e5780634eee0f461461034c57806353b32eb21461036a576101f0565b80631e6c598e116101c35780631e6c598e1461027d5780631f47390c146102b45780633a3fc6fc146102d25780633ca7aac3146102f0576101f0565b806301fb72cf146101f55780630737f0311461022557806309b6056f1461024157806318d7f5721461025f575b600080fd5b61020f600480360381019061020a919061304c565b610627565b60405161021c9190613094565b60405180910390f35b61023f600480360381019061023a9190613147565b6106a2565b005b6102496109dd565b60405161025691906131a9565b60405180910390f35b6102676109e7565b60405161027491906131a9565b60405180910390f35b6102976004803603810190610292919061304c565b6109f1565b6040516102ab9897969594939291906131e2565b60405180910390f35b6102bc610adb565b6040516102c991906131a9565b60405180910390f35b6102da610ae1565b6040516102e7919061331e565b60405180910390f35b61030a60048036038101906103059190613340565b610c3e565b60405161031b95949392919061336d565b60405180910390f35b61032c610ccc565b005b610336610f5d565b604051610343919061331e565b60405180910390f35b610354610fb5565b60405161036191906131a9565b60405180910390f35b610372611138565b60405161037f91906131a9565b60405180910390f35b6103a2600480360381019061039d919061304c565b6111ee565b6040516103af91906131a9565b60405180910390f35b6103c061128b565b6040516103cd91906131a9565b60405180910390f35b6103f060048036038101906103eb91906133c0565b611291565b005b6103fa611857565b005b6104046118ce565b6040516104119190613486565b60405180910390f35b6104226119fb565b60405161042f91906131a9565b60405180910390f35b610440611a01565b60405161044d91906134c2565b60405180910390f35b610470600480360381019061046b919061304c565b611a27565b60405161047d91906131a9565b60405180910390f35b61048e611a4b565b60405161049b919061363e565b60405180910390f35b6104be60048036038101906104b9919061368c565b611c0d565b005b6104da60048036038101906104d5919061304c565b612841565b6040516104e791906136b9565b60405180910390f35b61050a60048036038101906105059190613340565b61287e565b6040516105179190613094565b60405180910390f35b6105286128d7565b005b610532612b1e565b60405161053f9190613094565b60405180910390f35b610550612b31565b60405161055d91906136d4565b60405180910390f35b61056e612b45565b60405161057b91906131a9565b60405180910390f35b61058c612b4b565b60405161059991906136b9565b60405180910390f35b6105bc60048036038101906105b79190613340565b612b71565b6040516105d09897969594939291906131e2565b60405180910390f35b6105e1612c4b565b6040516105ee91906136d4565b60405180910390f35b610611600480360381019061060c919061304c565b612c5d565b60405161061e91906136b9565b60405180910390f35b60008073ffffffffffffffffffffffffffffffffffffffff166006600084815260200190815260200160002060009054906101000a900473ffffffffffffffffffffffffffffffffffffffff1673ffffffffffffffffffffffffffffffffffffffff1614610698576000905061069d565b600190505b919050565b8261ffff16600760003373ffffffffffffffffffffffffffffffffffffffff1673ffffffffffffffffffffffffffffffffffffffff16815260200190815260200160002060000160009054906101000a900461ffff1661ffff16101561070757600080fd5b600d60008273ffffffffffffffffffffffffffffffffffffffff1673ffffffffffffffffffffffffffffffffffffffff16815260200190815260200160002060000160099054906101000a900460ff1661076057600080fd5b60008361ffff16101561077257600080fd5b82600d60008373ffffffffffffffffffffffffffffffffffffffff1673ffffffffffffffffffffffffffffffffffffffff16815260200190815260200160002060000160046101000a81548161ffff021916908361ffff16021790555081600d60008373ffffffffffffffffffffffffffffffffffffffff1673ffffffffffffffffffffffffffffffffffffffff16815260200190815260200160002060000160066101000a81548161ffff021916908361ffff16021790555033600d60008373ffffffffffffffffffffffffffffffffffffffff1673ffffffffffffffffffffffffffffffffffffffff16815260200190815260200160002060010160006101000a81548173ffffffffffffffffffffffffffffffffffffffff021916908373ffffffffffffffffffffffffffffffffffffffff1602179055506000600d60008373ffffffffffffffffffffffffffffffffffffffff1673ffffffffffffffffffffffffffffffffffffffff16815260200190815260200160002060000160096101000a81548160ff02191690831515021790555082600760003373ffffffffffffffffffffffffffffffffffffffff1673ffffffffffffffffffffffffffffffffffffffff16815260200190815260200160002060000160008282829054906101000a900461ffff16610967919061371e565b92506101000a81548161ffff021916908361ffff1602179055506000600660008461ffff16815260200190815260200160002060006101000a81548173ffffffffffffffffffffffffffffffffffffffff021916908373ffffffffffffffffffffffffffffffffffffffff160217905550505050565b6000600854905090565b6000600954905090565b600c8181548110610a0157600080fd5b90600052602060002090600202016000915090508060000160009054906101000a900461ffff16908060000160029054906101000a900461ffff16908060000160049054906101000a900461ffff16908060000160069054906101000a900461ffff16908060000160089054906101000a900460ff16908060000160099054906101000a900460ff169080600001600a9054906101000a900473ffffffffffffffffffffffffffffffffffffffff16908060010160009054906101000a900473ffffffffffffffffffffffffffffffffffffffff16905088565b60035481565b60606000610aed6118ce565b6040015161ffff1667ffffffffffffffff811115610b0e57610b0d613752565b5b604051908082528060200260200182016040528015610b3c5781602001602082028036833780820191505090505b5090506000805b600580549050811015610c35573373ffffffffffffffffffffffffffffffffffffffff166006600060058481548110610b7f57610b7e613781565b5b9060005260206000200154815260200190815260200160002060009054906101000a900473ffffffffffffffffffffffffffffffffffffffff1673ffffffffffffffffffffffffffffffffffffffff161415610c225760058181548110610be957610be8613781565b5b9060005260206000200154838381518110610c0757610c06613781565b5b6020026020010181815250508180610c1e906137b0565b9250505b8080610c2d906137b0565b915050610b43565b50819250505090565b60076020528060005260406000206000915090508060000160009054906101000a900461ffff16908060000160029054906101000a900461ffff16908060000160049054906101000a900461ffff16908060000160069054906101000a900461ffff16908060000160089054906101000a900473ffffffffffffffffffffffffffffffffffffffff16905085565b60001515600260009054906101000a900460ff16151514610cec57600080fd5b600073ffffffffffffffffffffffffffffffffffffffff16600760003373ffffffffffffffffffffffffffffffffffffffff1673ffffffffffffffffffffffffffffffffffffffff16815260200190815260200160002060000160089054906101000a900473ffffffffffffffffffffffffffffffffffffffff1673ffffffffffffffffffffffffffffffffffffffff1614610d8757600080fd5b60016000808282829054906101000a900461ffff16610da691906137f9565b92506101000a81548161ffff021916908361ffff1602179055506040518060a00160405280606461ffff168152602001600161ffff168152602001600061ffff16815260200160008054906101000a900461ffff1661ffff1681526020013373ffffffffffffffffffffffffffffffffffffffff16815250600760003373ffffffffffffffffffffffffffffffffffffffff1673ffffffffffffffffffffffffffffffffffffffff16815260200190815260200160002060008201518160000160006101000a81548161ffff021916908361ffff16021790555060208201518160000160026101000a81548161ffff021916908361ffff16021790555060408201518160000160046101000a81548161ffff021916908361ffff16021790555060608201518160000160066101000a81548161ffff021916908361ffff16021790555060808201518160000160086101000a81548173ffffffffffffffffffffffffffffffffffffffff021916908373ffffffffffffffffffffffffffffffffffffffff16021790555090505060005b6003811015610f5a57610f47612c90565b8080610f52906137b0565b915050610f36565b50565b60606005805480602002602001604051908101604052809291908181526020018280548015610fab57602002820191906000526020600020905b815481526020019060010190808311610f97575b5050505050905090565b600080610fc06118ce565b6040015161ffff1667ffffffffffffffff811115610fe157610fe0613752565b5b60405190808252806020026020018201604052801561100f5781602001602082028036833780820191505090505b50905061101a610ae1565b90506000805b825181101561112f576103e883828151811061103f5761103e613781565b5b6020026020010151101561106157600a8261105a9190613831565b915061111c565b61138883828151811061107757611076613781565b5b60200260200101511015611099576005826110929190613865565b915061111b565b611b588382815181106110af576110ae613781565b5b602002602001015110156110d157600a826110ca9190613865565b915061111a565b6123288382815181106110e7576110e6613781565b5b6020026020010151101561110957600f826111029190613865565b9150611119565b601e826111169190613865565b91505b5b5b5b8080611127906137b0565b915050611020565b50809250505090565b60008060009050600090505b600c805490508110156111e6573373ffffffffffffffffffffffffffffffffffffffff16600c828154811061117c5761117b613781565b5b9060005260206000209060020201600001600a9054906101000a900473ffffffffffffffffffffffffffffffffffffffff1673ffffffffffffffffffffffffffffffffffffffff1614156111d357809150506111eb565b80806111de906137b0565b915050611144565b600080fd5b90565b60005b60011561127457600082423360015460405160200161121293929190613924565b6040516020818303038152906040528051906020012060001c6112359190613990565b90506001151561124482610627565b151514156112555780915050611286565b60018060008282546112679190613865565b92505081905550506111f1565b8162bc614e6112839190613990565b90505b919050565b60015481565b8161ffff16600760003373ffffffffffffffffffffffffffffffffffffffff1673ffffffffffffffffffffffffffffffffffffffff16815260200190815260200160002060000160009054906101000a900461ffff1661ffff1610156112f657600080fd5b6040518061010001604052808361ffff1681526020018261ffff168152602001600061ffff168152602001600061ffff1681526020016000151581526020016001151581526020013373ffffffffffffffffffffffffffffffffffffffff168152602001600073ffffffffffffffffffffffffffffffffffffffff16815250600d60003373ffffffffffffffffffffffffffffffffffffffff1673ffffffffffffffffffffffffffffffffffffffff16815260200190815260200160002060008201518160000160006101000a81548161ffff021916908361ffff16021790555060208201518160000160026101000a81548161ffff021916908361ffff16021790555060408201518160000160046101000a81548161ffff021916908361ffff16021790555060608201518160000160066101000a81548161ffff021916908361ffff16021790555060808201518160000160086101000a81548160ff02191690831515021790555060a08201518160000160096101000a81548160ff02191690831515021790555060c082015181600001600a6101000a81548173ffffffffffffffffffffffffffffffffffffffff021916908373ffffffffffffffffffffffffffffffffffffffff16021790555060e08201518160010160006101000a81548173ffffffffffffffffffffffffffffffffffffffff021916908373ffffffffffffffffffffffffffffffffffffffff160217905550905050600c600d60003373ffffffffffffffffffffffffffffffffffffffff1673ffffffffffffffffffffffffffffffffffffffff16815260200190815260200160002090806001815401808255809150506001900390600052602060002090600202016000909190919091506000820160009054906101000a900461ffff168160000160006101000a81548161ffff021916908361ffff1602179055506000820160029054906101000a900461ffff168160000160026101000a81548161ffff021916908361ffff1602179055506000820160049054906101000a900461ffff168160000160046101000a81548161ffff021916908361ffff1602179055506000820160069054906101000a900461ffff168160000160066101000a81548161ffff021916908361ffff1602179055506000820160089054906101000a900460ff168160000160086101000a81548160ff0219169083151502179055506000820160099054906101000a900460ff168160000160096101000a81548160ff02191690831515021790555060008201600a9054906101000a900473ffffffffffffffffffffffffffffffffffffffff1681600001600a6101000a81548173ffffffffffffffffffffffffffffffffffffffff021916908373ffffffffffffffffffffffffffffffffffffffff1602179055506001820160009054906101000a900473ffffffffffffffffffffffffffffffffffffffff168160010160006101000a81548173ffffffffffffffffffffffffffffffffffffffff021916908373ffffffffffffffffffffffffffffffffffffffff16021790555050506000600660008361ffff16815260200190815260200160002060006101000a81548173ffffffffffffffffffffffffffffffffffffffff021916908373ffffffffffffffffffffffffffffffffffffffff16021790555081600760003373ffffffffffffffffffffffffffffffffffffffff1673ffffffffffffffffffffffffffffffffffffffff16815260200190815260200160002060000160008282829054906101000a900461ffff1661181f919061371e565b92506101000a81548161ffff021916908361ffff1602179055506001600b600082825461184c9190613865565b925050819055505050565b600460009054906101000a900473ffffffffffffffffffffffffffffffffffffffff1673ffffffffffffffffffffffffffffffffffffffff163373ffffffffffffffffffffffffffffffffffffffff16146118b157600080fd5b6001600260006101000a81548160ff021916908315150217905550565b6118d6612fbc565b600760003373ffffffffffffffffffffffffffffffffffffffff1673ffffffffffffffffffffffffffffffffffffffff1681526020019081526020016000206040518060a00160405290816000820160009054906101000a900461ffff1661ffff1661ffff1681526020016000820160029054906101000a900461ffff1661ffff1661ffff1681526020016000820160049054906101000a900461ffff1661ffff1661ffff1681526020016000820160069054906101000a900461ffff1661ffff1661ffff1681526020016000820160089054906101000a900473ffffffffffffffffffffffffffffffffffffffff1673ffffffffffffffffffffffffffffffffffffffff1673ffffffffffffffffffffffffffffffffffffffff1681525050905090565b60085481565b600460009054906101000a900473ffffffffffffffffffffffffffffffffffffffff1681565b60058181548110611a3757600080fd5b906000526020600020016000915090505481565b6060600c805480602002602001604051908101604052809291908181526020016000905b82821015611c045783829060005260206000209060020201604051806101000160405290816000820160009054906101000a900461ffff1661ffff1661ffff1681526020016000820160029054906101000a900461ffff1661ffff1661ffff1681526020016000820160049054906101000a900461ffff1661ffff1661ffff1681526020016000820160069054906101000a900461ffff1661ffff1661ffff1681526020016000820160089054906101000a900460ff161515151581526020016000820160099054906101000a900460ff1615151515815260200160008201600a9054906101000a900473ffffffffffffffffffffffffffffffffffffffff1673ffffffffffffffffffffffffffffffffffffffff1673ffffffffffffffffffffffffffffffffffffffff1681526020016001820160009054906101000a900473ffffffffffffffffffffffffffffffffffffffff1673ffffffffffffffffffffffffffffffffffffffff1673ffffffffffffffffffffffffffffffffffffffff168152505081526020019060010190611a6f565b50505050905090565b600d60003373ffffffffffffffffffffffffffffffffffffffff1673ffffffffffffffffffffffffffffffffffffffff168152602001908152602001600020600001600a9054906101000a900473ffffffffffffffffffffffffffffffffffffffff1673ffffffffffffffffffffffffffffffffffffffff163373ffffffffffffffffffffffffffffffffffffffff1614611ca757600080fd5b60001515600d60003373ffffffffffffffffffffffffffffffffffffffff1673ffffffffffffffffffffffffffffffffffffffff16815260200190815260200160002060000160099054906101000a900460ff16151514611d0757600080fd5b6000151581151514156120e157600d60003373ffffffffffffffffffffffffffffffffffffffff1673ffffffffffffffffffffffffffffffffffffffff16815260200190815260200160002060000160049054906101000a900461ffff1660076000600d60003373ffffffffffffffffffffffffffffffffffffffff1673ffffffffffffffffffffffffffffffffffffffff168152602001908152602001600020600001600a9054906101000a900473ffffffffffffffffffffffffffffffffffffffff1673ffffffffffffffffffffffffffffffffffffffff1673ffffffffffffffffffffffffffffffffffffffff16815260200190815260200160002060000160008282829054906101000a900461ffff16611e2591906137f9565b92506101000a81548161ffff021916908361ffff160217905550600d60003373ffffffffffffffffffffffffffffffffffffffff1673ffffffffffffffffffffffffffffffffffffffff16815260200190815260200160002060010160009054906101000a900473ffffffffffffffffffffffffffffffffffffffff1660066000600d60003373ffffffffffffffffffffffffffffffffffffffff1673ffffffffffffffffffffffffffffffffffffffff16815260200190815260200160002060000160069054906101000a900461ffff1661ffff16815260200190815260200160002060006101000a81548173ffffffffffffffffffffffffffffffffffffffff021916908373ffffffffffffffffffffffffffffffffffffffff1602179055506000600d60003373ffffffffffffffffffffffffffffffffffffffff1673ffffffffffffffffffffffffffffffffffffffff16815260200190815260200160002060000160046101000a81548161ffff021916908361ffff1602179055506000600d60003373ffffffffffffffffffffffffffffffffffffffff1673ffffffffffffffffffffffffffffffffffffffff16815260200190815260200160002060000160066101000a81548161ffff021916908361ffff1602179055506000600d60003373ffffffffffffffffffffffffffffffffffffffff1673ffffffffffffffffffffffffffffffffffffffff16815260200190815260200160002060010160006101000a81548173ffffffffffffffffffffffffffffffffffffffff021916908373ffffffffffffffffffffffffffffffffffffffff1602179055506001600d60003373ffffffffffffffffffffffffffffffffffffffff1673ffffffffffffffffffffffffffffffffffffffff16815260200190815260200160002060000160096101000a81548160ff0219169083151502179055505b60011515811515141561283e57600d60003373ffffffffffffffffffffffffffffffffffffffff1673ffffffffffffffffffffffffffffffffffffffff16815260200190815260200160002060000160049054906101000a900461ffff16600760003373ffffffffffffffffffffffffffffffffffffffff1673ffffffffffffffffffffffffffffffffffffffff16815260200190815260200160002060000160008282829054906101000a900461ffff1661219d91906137f9565b92506101000a81548161ffff021916908361ffff1602179055503360066000600d60003373ffffffffffffffffffffffffffffffffffffffff1673ffffffffffffffffffffffffffffffffffffffff16815260200190815260200160002060000160069054906101000a900461ffff1661ffff16815260200190815260200160002060006101000a81548173ffffffffffffffffffffffffffffffffffffffff021916908373ffffffffffffffffffffffffffffffffffffffff1602179055506000600d60003373ffffffffffffffffffffffffffffffffffffffff1673ffffffffffffffffffffffffffffffffffffffff16815260200190815260200160002060000160046101000a81548161ffff021916908361ffff1602179055506000600d60003373ffffffffffffffffffffffffffffffffffffffff1673ffffffffffffffffffffffffffffffffffffffff16815260200190815260200160002060000160066101000a81548161ffff021916908361ffff1602179055506000600d60003373ffffffffffffffffffffffffffffffffffffffff1673ffffffffffffffffffffffffffffffffffffffff16815260200190815260200160002060010160006101000a81548173ffffffffffffffffffffffffffffffffffffffff021916908373ffffffffffffffffffffffffffffffffffffffff1602179055506001600d60003373ffffffffffffffffffffffffffffffffffffffff1673ffffffffffffffffffffffffffffffffffffffff16815260200190815260200160002060000160096101000a81548160ff0219169083151502179055506000600c6001600c8054905061240c9190613831565b8154811061241d5761241c613781565b5b9060005260206000209060020201604051806101000160405290816000820160009054906101000a900461ffff1661ffff1661ffff1681526020016000820160029054906101000a900461ffff1661ffff1661ffff1681526020016000820160049054906101000a900461ffff1661ffff1661ffff1681526020016000820160069054906101000a900461ffff1661ffff1661ffff1681526020016000820160089054906101000a900460ff161515151581526020016000820160099054906101000a900460ff1615151515815260200160008201600a9054906101000a900473ffffffffffffffffffffffffffffffffffffffff1673ffffffffffffffffffffffffffffffffffffffff1673ffffffffffffffffffffffffffffffffffffffff1681526020016001820160009054906101000a900473ffffffffffffffffffffffffffffffffffffffff1673ffffffffffffffffffffffffffffffffffffffff1673ffffffffffffffffffffffffffffffffffffffff16815250509050600c6001600c805490506125af9190613831565b815481106125c0576125bf613781565b5b9060005260206000209060020201600080820160006101000a81549061ffff02191690556000820160026101000a81549061ffff02191690556000820160046101000a81549061ffff02191690556000820160066101000a81549061ffff02191690556000820160086101000a81549060ff02191690556000820160096101000a81549060ff021916905560008201600a6101000a81549073ffffffffffffffffffffffffffffffffffffffff02191690556001820160006101000a81549073ffffffffffffffffffffffffffffffffffffffff0219169055505080600c6126a6611138565b815481106126b7576126b6613781565b5b906000526020600020906002020160008201518160000160006101000a81548161ffff021916908361ffff16021790555060208201518160000160026101000a81548161ffff021916908361ffff16021790555060408201518160000160046101000a81548161ffff021916908361ffff16021790555060608201518160000160066101000a81548161ffff021916908361ffff16021790555060808201518160000160086101000a81548160ff02191690831515021790555060a08201518160000160096101000a81548160ff02191690831515021790555060c082015181600001600a6101000a81548173ffffffffffffffffffffffffffffffffffffffff021916908373ffffffffffffffffffffffffffffffffffffffff16021790555060e08201518160010160006101000a81548173ffffffffffffffffffffffffffffffffffffffff021916908373ffffffffffffffffffffffffffffffffffffffff1602179055509050506001600b60008282546128359190613831565b92505081905550505b50565b60006006600083815260200190815260200160002060009054906101000a900473ffffffffffffffffffffffffffffffffffffffff169050919050565b6000600d60008373ffffffffffffffffffffffffffffffffffffffff1673ffffffffffffffffffffffffffffffffffffffff16815260200190815260200160002060000160099054906101000a900460ff169050919050565b60011515600260009054906101000a900460ff161515146128f757600080fd5b60008054906101000a900461ffff1661ffff166009541061291757600080fd5b600854600760003373ffffffffffffffffffffffffffffffffffffffff1673ffffffffffffffffffffffffffffffffffffffff16815260200190815260200160002060000160029054906101000a900461ffff1661ffff16111561297a57600080fd5b600a60009054906101000a900461ffff1661ffff16600760003373ffffffffffffffffffffffffffffffffffffffff1673ffffffffffffffffffffffffffffffffffffffff16815260200190815260200160002060000160009054906101000a900461ffff1661ffff1610156129ef57600080fd5b6129f7612c90565b600a60009054906101000a900461ffff16600760003373ffffffffffffffffffffffffffffffffffffffff1673ffffffffffffffffffffffffffffffffffffffff16815260200190815260200160002060000160008282829054906101000a900461ffff16612a66919061371e565b92506101000a81548161ffff021916908361ffff160217905550600160096000828254612a939190613865565b925050819055506001600760003373ffffffffffffffffffffffffffffffffffffffff1673ffffffffffffffffffffffffffffffffffffffff16815260200190815260200160002060000160028282829054906101000a900461ffff16612afa91906137f9565b92506101000a81548161ffff021916908361ffff160217905550612b1c612d97565b565b600260009054906101000a900460ff1681565b600a60009054906101000a900461ffff1681565b60095481565b600a60029054906101000a900473ffffffffffffffffffffffffffffffffffffffff1681565b600d6020528060005260406000206000915090508060000160009054906101000a900461ffff16908060000160029054906101000a900461ffff16908060000160049054906101000a900461ffff16908060000160069054906101000a900461ffff16908060000160089054906101000a900460ff16908060000160099054906101000a900460ff169080600001600a9054906101000a900473ffffffffffffffffffffffffffffffffffffffff16908060010160009054906101000a900473ffffffffffffffffffffffffffffffffffffffff16905088565b60008054906101000a900461ffff1681565b60066020528060005260406000206000915054906101000a900473ffffffffffffffffffffffffffffffffffffffff1681565b6000612c9d6003546111ee565b90506005819080600181540180825580915050600190039060005260206000200160009091909190915055336006600083815260200190815260200160002060006101000a81548173ffffffffffffffffffffffffffffffffffffffff021916908373ffffffffffffffffffffffffffffffffffffffff1602179055506001600760003373ffffffffffffffffffffffffffffffffffffffff1673ffffffffffffffffffffffffffffffffffffffff16815260200190815260200160002060000160048282829054906101000a900461ffff16612d7a91906137f9565b92506101000a81548161ffff021916908361ffff16021790555050565b60011515600260009054906101000a900460ff16151514612db757600080fd5b6064612dc1610fb5565b50506000600760003373ffffffffffffffffffffffffffffffffffffffff1673ffffffffffffffffffffffffffffffffffffffff16815260200190815260200160002060000160009054906101000a900461ffff1661ffff1611612f305760016000808282829054906101000a900461ffff16612e3e919061371e565b92506101000a81548161ffff021916908361ffff160217905550600160096000828254612e6b9190613831565b92505081905550600760003373ffffffffffffffffffffffffffffffffffffffff1673ffffffffffffffffffffffffffffffffffffffff168152602001908152602001600020600080820160006101000a81549061ffff02191690556000820160026101000a81549061ffff02191690556000820160046101000a81549061ffff02191690556000820160066101000a81549061ffff02191690556000820160086101000a81549073ffffffffffffffffffffffffffffffffffffffff021916905550505b60008054906101000a900461ffff1661ffff166009541415612f5557612f54612f57565b5b565b60011515600260009054906101000a900460ff16151514612f7757600080fd5b60008054906101000a900461ffff1661ffff166009541015612f9857600080fd5b6000600981905550600160086000828254612fb39190613865565b92505081905550565b6040518060a00160405280600061ffff168152602001600061ffff168152602001600061ffff168152602001600061ffff168152602001600073ffffffffffffffffffffffffffffffffffffffff1681525090565b600080fd5b6000819050919050565b61302981613016565b811461303457600080fd5b50565b60008135905061304681613020565b92915050565b60006020828403121561306257613061613011565b5b600061307084828501613037565b91505092915050565b60008115159050919050565b61308e81613079565b82525050565b60006020820190506130a96000830184613085565b92915050565b600061ffff82169050919050565b6130c6816130af565b81146130d157600080fd5b50565b6000813590506130e3816130bd565b92915050565b600073ffffffffffffffffffffffffffffffffffffffff82169050919050565b6000613114826130e9565b9050919050565b61312481613109565b811461312f57600080fd5b50565b6000813590506131418161311b565b92915050565b6000806000606084860312156131605761315f613011565b5b600061316e868287016130d4565b935050602061317f868287016130d4565b925050604061319086828701613132565b9150509250925092565b6131a381613016565b82525050565b60006020820190506131be600083018461319a565b92915050565b6131cd816130af565b82525050565b6131dc81613109565b82525050565b6000610100820190506131f8600083018b6131c4565b613205602083018a6131c4565b61321260408301896131c4565b61321f60608301886131c4565b61322c6080830187613085565b61323960a0830186613085565b61324660c08301856131d3565b61325360e08301846131d3565b9998505050505050505050565b600081519050919050565b600082825260208201905092915050565b6000819050602082019050919050565b61329581613016565b82525050565b60006132a7838361328c565b60208301905092915050565b6000602082019050919050565b60006132cb82613260565b6132d5818561326b565b93506132e08361327c565b8060005b838110156133115781516132f8888261329b565b9750613303836132b3565b9250506001810190506132e4565b5085935050505092915050565b6000602082019050818103600083015261333881846132c0565b905092915050565b60006020828403121561335657613355613011565b5b600061336484828501613132565b91505092915050565b600060a08201905061338260008301886131c4565b61338f60208301876131c4565b61339c60408301866131c4565b6133a960608301856131c4565b6133b660808301846131d3565b9695505050505050565b600080604083850312156133d7576133d6613011565b5b60006133e5858286016130d4565b92505060206133f6858286016130d4565b9150509250929050565b613409816130af565b82525050565b61341881613109565b82525050565b60a0820160008201516134346000850182613400565b5060208201516134476020850182613400565b50604082015161345a6040850182613400565b50606082015161346d6060850182613400565b506080820151613480608085018261340f565b50505050565b600060a08201905061349b600083018461341e565b92915050565b60006134ac826130e9565b9050919050565b6134bc816134a1565b82525050565b60006020820190506134d760008301846134b3565b92915050565b600081519050919050565b600082825260208201905092915050565b6000819050602082019050919050565b61351281613079565b82525050565b6101008201600082015161352f6000850182613400565b5060208201516135426020850182613400565b5060408201516135556040850182613400565b5060608201516135686060850182613400565b50608082015161357b6080850182613509565b5060a082015161358e60a0850182613509565b5060c08201516135a160c085018261340f565b5060e08201516135b460e085018261340f565b50505050565b60006135c68383613518565b6101008301905092915050565b6000602082019050919050565b60006135eb826134dd565b6135f581856134e8565b9350613600836134f9565b8060005b8381101561363157815161361888826135ba565b9750613623836135d3565b925050600181019050613604565b5085935050505092915050565b6000602082019050818103600083015261365881846135e0565b905092915050565b61366981613079565b811461367457600080fd5b50565b60008135905061368681613660565b92915050565b6000602082840312156136a2576136a1613011565b5b60006136b084828501613677565b91505092915050565b60006020820190506136ce60008301846131d3565b92915050565b60006020820190506136e960008301846131c4565b92915050565b7f4e487b7100000000000000000000000000000000000000000000000000000000600052601160045260246000fd5b6000613729826130af565b9150613734836130af565b925082821015613747576137466136ef565b5b828203905092915050565b7f4e487b7100000000000000000000000000000000000000000000000000000000600052604160045260246000fd5b7f4e487b7100000000000000000000000000000000000000000000000000000000600052603260045260246000fd5b60006137bb82613016565b91507fffffffffffffffffffffffffffffffffffffffffffffffffffffffffffffffff8214156137ee576137ed6136ef565b5b600182019050919050565b6000613804826130af565b915061380f836130af565b92508261ffff03821115613826576138256136ef565b5b828201905092915050565b600061383c82613016565b915061384783613016565b92508282101561385a576138596136ef565b5b828203905092915050565b600061387082613016565b915061387b83613016565b9250827fffffffffffffffffffffffffffffffffffffffffffffffffffffffffffffffff038211156138b0576138af6136ef565b5b828201905092915050565b6000819050919050565b6138d66138d182613016565b6138bb565b82525050565b60008160601b9050919050565b60006138f4826138dc565b9050919050565b6000613906826138e9565b9050919050565b61391e61391982613109565b6138fb565b82525050565b600061393082866138c5565b602082019150613940828561390d565b60148201915061395082846138c5565b602082019150819050949350505050565b7f4e487b7100000000000000000000000000000000000000000000000000000000600052601260045260246000fd5b600061399b82613016565b91506139a683613016565b9250826139b6576139b5613961565b5b82820690509291505056fea26469706673582212209dae84a707cd967799b2643b67573434633c164712664520643c23632460fbde64736f6c634300080a0033",
  "immutableReferences": {},
  "source": "pragma solidity >=0.6.0;\r\n\r\nimport \"./roundsGame.sol\";\r\n\r\n/*==================================================================\r\nContains\r\n-Trade Functionality\r\n-Offer Trades\r\n-Cancel Trades\r\n-Subtract and add token/cards per trades\r\n==================================================================*/\r\n\r\ncontract tradeGame is roundsGame {\r\n    //--------------------Variables----------------------\r\n\r\n    struct tradeCard {\r\n        uint16 ownerOffer; //Owner giving tokens to take his card. (for negative ones usually)\r\n        uint16 ownerCard; //Owners card he wants to trade.\r\n        uint16 buyerOffer; //Buyer giving tokens to buy card\r\n        uint16 buyerCard; //BuyerCard\r\n        bool tradeComplete;\r\n        bool tradeAvailable;\r\n        address ownerAddr;\r\n        address buyerAddr;\r\n    }\r\n\r\n    tradeCard[] public trades;\r\n    mapping(address => tradeCard) public ownerToTrade;\r\n\r\n    //--------------------Functions----------------------\r\n\r\n    //MAKE SURE TO DOUBLE CHECK THAT ALL THE TOKENS CARDS ETC TRANSFERS ARE DONE CORRECTLY\r\n\r\n    function startTrade(uint16 _ownerOffer, uint16 _ownerCard) public {\r\n        require(ownerToPlayer[msg.sender].balance >= _ownerOffer);\r\n        ownerToTrade[msg.sender] = tradeCard(\r\n            _ownerOffer,\r\n            _ownerCard,\r\n            0,\r\n            0,\r\n            false,\r\n            true,\r\n            msg.sender,\r\n            address(0)\r\n        );\r\n        trades.push(ownerToTrade[msg.sender]);\r\n        cardToOwner[_ownerCard] = address(0);\r\n        //reduce the tokens the owner offers for trade\r\n        ownerToPlayer[msg.sender].balance -= _ownerOffer;\r\n        currentTrades += 1;\r\n    }\r\n\r\n    function retTrade(address ownerAddr) public view returns (bool) {\r\n        return ownerToTrade[ownerAddr].tradeAvailable;\r\n    }\r\n\r\n    function retAllTrades() public view returns (tradeCard[] memory) {\r\n        return trades;\r\n    }\r\n\r\n    function retTradeIndex() public view returns (uint256) {\r\n        uint256 index = 0;\r\n        for (index = 0; index < trades.length; index++) {\r\n            if (trades[index].ownerAddr == msg.sender) {\r\n                return index;\r\n            }\r\n        }\r\n        revert();\r\n    }\r\n\r\n    //The offer (tokens + cards) a buyer makes will be subtracted until the trade is cancelled or confirmed\r\n\r\n    function offerTrade(\r\n        uint16 _buyerOffer,\r\n        uint16 _buyerCard,\r\n        address _ownerAddr\r\n    ) public {\r\n        require(ownerToPlayer[msg.sender].balance >= _buyerOffer);\r\n        //to make sure no more trades available to the player\r\n        require(ownerToTrade[_ownerAddr].tradeAvailable);\r\n        require(_buyerOffer >= 0);\r\n\r\n        ownerToTrade[_ownerAddr].buyerOffer = _buyerOffer;\r\n        ownerToTrade[_ownerAddr].buyerCard = _buyerCard;\r\n        ownerToTrade[_ownerAddr].buyerAddr = address(msg.sender);\r\n        ownerToTrade[_ownerAddr].tradeAvailable = false;\r\n\r\n        ownerToPlayer[msg.sender].balance -= _buyerOffer;\r\n        //buyers Card owned by noOne;\r\n        cardToOwner[_buyerCard] = address(0);\r\n    }\r\n\r\n    //Player can use this to hold enemy tokens but in term they cant trade either until they confirm this\r\n\r\n    function tradeComplete(bool _tradeConfirm) public {\r\n        require(msg.sender == ownerToTrade[msg.sender].ownerAddr);\r\n        require(ownerToTrade[msg.sender].tradeAvailable == false);\r\n\r\n        if (_tradeConfirm == false) {\r\n            //send money back to buyer and make trade available\r\n            ownerToPlayer[ownerToTrade[msg.sender].ownerAddr]\r\n                .balance += ownerToTrade[msg.sender].buyerOffer;\r\n            //make buyer Owner of his card again\r\n            cardToOwner[ownerToTrade[msg.sender].buyerCard] = ownerToTrade[\r\n                msg.sender\r\n            ].buyerAddr;\r\n\r\n            ownerToTrade[msg.sender].buyerOffer = 0;\r\n            ownerToTrade[msg.sender].buyerCard = 0;\r\n            ownerToTrade[msg.sender].buyerAddr = address(0);\r\n            ownerToTrade[msg.sender].tradeAvailable = true;\r\n        }\r\n\r\n        if (_tradeConfirm == true) {\r\n            //send money to owner and make trade complete\r\n            ownerToPlayer[msg.sender].balance += ownerToTrade[msg.sender]\r\n                .buyerOffer;\r\n            //make tradeOwner Owner of the card\r\n            cardToOwner[ownerToTrade[msg.sender].buyerCard] = msg.sender;\r\n\r\n            ownerToTrade[msg.sender].buyerOffer = 0;\r\n            ownerToTrade[msg.sender].buyerCard = 0;\r\n            ownerToTrade[msg.sender].buyerAddr = address(0);\r\n            ownerToTrade[msg.sender].tradeAvailable = true;\r\n\r\n            tradeCard memory tempTrade = trades[trades.length - 1];\r\n            delete trades[trades.length - 1];\r\n            trades[retTradeIndex()] = tempTrade;\r\n            currentTrades -= 1;\r\n        }\r\n    }\r\n}\r\n",
  "sourcePath": "E:\\ProgrammingStuff\\BlockChain\\truffle\\Projects\\FastCards\\truffle\\contracts\\tradeGame.sol",
  "compiler": {
    "name": "solc",
    "version": "0.8.10+commit.fc410830.Emscripten.clang"
  },
  "schemaVersion": "3.4.3",
  "updatedAt": "2021-12-20T11:25:19.923Z",
  "devdoc": {
    "kind": "dev",
    "methods": {},
    "version": 1
  },
  "userdoc": {
    "kind": "user",
    "methods": {},
    "version": 1
  }
}