{
  "contractName": "tradeGame",
  "abi": [
    {
      "inputs": [],
      "name": "cardModValue",
      "outputs": [
        {
          "internalType": "uint256",
          "name": "",
          "type": "uint256"
        }
      ],
      "stateMutability": "view",
      "type": "function"
    },
    {
      "inputs": [
        {
          "internalType": "uint256",
          "name": "_card",
          "type": "uint256"
        }
      ],
      "name": "cardOwner",
      "outputs": [
        {
          "internalType": "address",
          "name": "",
          "type": "address"
        }
      ],
      "stateMutability": "view",
      "type": "function"
    },
    {
      "inputs": [
        {
          "internalType": "uint256",
          "name": "",
          "type": "uint256"
        }
      ],
      "name": "cardToOwner",
      "outputs": [
        {
          "internalType": "address",
          "name": "",
          "type": "address"
        }
      ],
      "stateMutability": "view",
      "type": "function"
    },
    {
      "inputs": [
        {
          "internalType": "uint256",
          "name": "",
          "type": "uint256"
        }
      ],
      "name": "cards",
      "outputs": [
        {
          "internalType": "uint256",
          "name": "",
          "type": "uint256"
        }
      ],
      "stateMutability": "view",
      "type": "function"
    },
    {
      "inputs": [
        {
          "internalType": "uint256",
          "name": "_newCard",
          "type": "uint256"
        }
      ],
      "name": "checkCard",
      "outputs": [
        {
          "internalType": "bool",
          "name": "",
          "type": "bool"
        }
      ],
      "stateMutability": "view",
      "type": "function"
    },
    {
      "inputs": [],
      "name": "createPlayer",
      "outputs": [],
      "stateMutability": "nonpayable",
      "type": "function"
    },
    {
      "inputs": [],
      "name": "currentRound",
      "outputs": [
        {
          "internalType": "uint256",
          "name": "",
          "type": "uint256"
        }
      ],
      "stateMutability": "view",
      "type": "function"
    },
    {
      "inputs": [
        {
          "internalType": "uint256",
          "name": "_cardModValue",
          "type": "uint256"
        }
      ],
      "name": "generateCards",
      "outputs": [
        {
          "internalType": "uint256",
          "name": "",
          "type": "uint256"
        }
      ],
      "stateMutability": "nonpayable",
      "type": "function"
    },
    {
      "inputs": [],
      "name": "nonceForRand",
      "outputs": [
        {
          "internalType": "uint256",
          "name": "",
          "type": "uint256"
        }
      ],
      "stateMutability": "view",
      "type": "function"
    },
    {
      "inputs": [],
      "name": "owner",
      "outputs": [
        {
          "internalType": "address payable",
          "name": "",
          "type": "address"
        }
      ],
      "stateMutability": "view",
      "type": "function"
    },
    {
      "inputs": [
        {
          "internalType": "address",
          "name": "",
          "type": "address"
        }
      ],
      "name": "ownerToPlayer",
      "outputs": [
        {
          "internalType": "uint16",
          "name": "balance",
          "type": "uint16"
        },
        {
          "internalType": "uint16",
          "name": "round",
          "type": "uint16"
        },
        {
          "internalType": "uint16",
          "name": "cardsOwned",
          "type": "uint16"
        },
        {
          "internalType": "uint16",
          "name": "playerNumber",
          "type": "uint16"
        },
        {
          "internalType": "address",
          "name": "playerAddr",
          "type": "address"
        }
      ],
      "stateMutability": "view",
      "type": "function"
    },
    {
      "inputs": [
        {
          "internalType": "address",
          "name": "",
          "type": "address"
        }
      ],
      "name": "ownerToTrade",
      "outputs": [
        {
          "internalType": "uint16",
          "name": "ownerOffer",
          "type": "uint16"
        },
        {
          "internalType": "uint16",
          "name": "ownerCard",
          "type": "uint16"
        },
        {
          "internalType": "uint16",
          "name": "buyerOffer",
          "type": "uint16"
        },
        {
          "internalType": "uint16",
          "name": "buyerCard",
          "type": "uint16"
        },
        {
          "internalType": "uint16",
          "name": "index",
          "type": "uint16"
        },
        {
          "internalType": "bool",
          "name": "tradeComplete",
          "type": "bool"
        },
        {
          "internalType": "bool",
          "name": "tradeAvailable",
          "type": "bool"
        },
        {
          "internalType": "address",
          "name": "ownerAddr",
          "type": "address"
        },
        {
          "internalType": "address",
          "name": "buyerAddr",
          "type": "address"
        }
      ],
      "stateMutability": "view",
      "type": "function"
    },
    {
      "inputs": [],
      "name": "playerTurnsDone",
      "outputs": [
        {
          "internalType": "uint256",
          "name": "",
          "type": "uint256"
        }
      ],
      "stateMutability": "view",
      "type": "function"
    },
    {
      "inputs": [],
      "name": "playerWon",
      "outputs": [
        {
          "internalType": "address",
          "name": "",
          "type": "address"
        }
      ],
      "stateMutability": "view",
      "type": "function"
    },
    {
      "inputs": [],
      "name": "randomCard",
      "outputs": [],
      "stateMutability": "nonpayable",
      "type": "function"
    },
    {
      "inputs": [],
      "name": "randomCost",
      "outputs": [
        {
          "internalType": "uint16",
          "name": "",
          "type": "uint16"
        }
      ],
      "stateMutability": "view",
      "type": "function"
    },
    {
      "inputs": [],
      "name": "retCards",
      "outputs": [
        {
          "internalType": "uint256[]",
          "name": "",
          "type": "uint256[]"
        }
      ],
      "stateMutability": "view",
      "type": "function"
    },
    {
      "inputs": [],
      "name": "retCurrentRound",
      "outputs": [
        {
          "internalType": "uint256",
          "name": "",
          "type": "uint256"
        }
      ],
      "stateMutability": "view",
      "type": "function"
    },
    {
      "inputs": [],
      "name": "retPlayer",
      "outputs": [
        {
          "components": [
            {
              "internalType": "uint16",
              "name": "balance",
              "type": "uint16"
            },
            {
              "internalType": "uint16",
              "name": "round",
              "type": "uint16"
            },
            {
              "internalType": "uint16",
              "name": "cardsOwned",
              "type": "uint16"
            },
            {
              "internalType": "uint16",
              "name": "playerNumber",
              "type": "uint16"
            },
            {
              "internalType": "address",
              "name": "playerAddr",
              "type": "address"
            }
          ],
          "internalType": "struct initializeGame.Player",
          "name": "",
          "type": "tuple"
        }
      ],
      "stateMutability": "view",
      "type": "function"
    },
    {
      "inputs": [],
      "name": "retPlayerCards",
      "outputs": [
        {
          "internalType": "uint256[]",
          "name": "",
          "type": "uint256[]"
        }
      ],
      "stateMutability": "view",
      "type": "function"
    },
    {
      "inputs": [],
      "name": "retPlayerScore",
      "outputs": [
        {
          "internalType": "uint256",
          "name": "",
          "type": "uint256"
        }
      ],
      "stateMutability": "view",
      "type": "function"
    },
    {
      "inputs": [],
      "name": "retPlayerTurnsDone",
      "outputs": [
        {
          "internalType": "uint256",
          "name": "",
          "type": "uint256"
        }
      ],
      "stateMutability": "view",
      "type": "function"
    },
    {
      "inputs": [],
      "name": "startGame",
      "outputs": [
        {
          "internalType": "bool",
          "name": "",
          "type": "bool"
        }
      ],
      "stateMutability": "view",
      "type": "function"
    },
    {
      "inputs": [],
      "name": "startTheGame",
      "outputs": [],
      "stateMutability": "nonpayable",
      "type": "function"
    },
    {
      "inputs": [],
      "name": "totalPlayers",
      "outputs": [
        {
          "internalType": "uint16",
          "name": "",
          "type": "uint16"
        }
      ],
      "stateMutability": "view",
      "type": "function"
    },
    {
      "inputs": [
        {
          "internalType": "uint256",
          "name": "",
          "type": "uint256"
        }
      ],
      "name": "trades",
      "outputs": [
        {
          "internalType": "uint16",
          "name": "ownerOffer",
          "type": "uint16"
        },
        {
          "internalType": "uint16",
          "name": "ownerCard",
          "type": "uint16"
        },
        {
          "internalType": "uint16",
          "name": "buyerOffer",
          "type": "uint16"
        },
        {
          "internalType": "uint16",
          "name": "buyerCard",
          "type": "uint16"
        },
        {
          "internalType": "uint16",
          "name": "index",
          "type": "uint16"
        },
        {
          "internalType": "bool",
          "name": "tradeComplete",
          "type": "bool"
        },
        {
          "internalType": "bool",
          "name": "tradeAvailable",
          "type": "bool"
        },
        {
          "internalType": "address",
          "name": "ownerAddr",
          "type": "address"
        },
        {
          "internalType": "address",
          "name": "buyerAddr",
          "type": "address"
        }
      ],
      "stateMutability": "view",
      "type": "function"
    },
    {
      "inputs": [
        {
          "internalType": "address",
          "name": "_ownerAddr",
          "type": "address"
        }
      ],
      "name": "retTradeAddr",
      "outputs": [
        {
          "components": [
            {
              "internalType": "uint16",
              "name": "ownerOffer",
              "type": "uint16"
            },
            {
              "internalType": "uint16",
              "name": "ownerCard",
              "type": "uint16"
            },
            {
              "internalType": "uint16",
              "name": "buyerOffer",
              "type": "uint16"
            },
            {
              "internalType": "uint16",
              "name": "buyerCard",
              "type": "uint16"
            },
            {
              "internalType": "uint16",
              "name": "index",
              "type": "uint16"
            },
            {
              "internalType": "bool",
              "name": "tradeComplete",
              "type": "bool"
            },
            {
              "internalType": "bool",
              "name": "tradeAvailable",
              "type": "bool"
            },
            {
              "internalType": "address",
              "name": "ownerAddr",
              "type": "address"
            },
            {
              "internalType": "address",
              "name": "buyerAddr",
              "type": "address"
            }
          ],
          "internalType": "struct tradeGame.tradeCard",
          "name": "",
          "type": "tuple"
        }
      ],
      "stateMutability": "view",
      "type": "function"
    },
    {
      "inputs": [],
      "name": "retTrade",
      "outputs": [
        {
          "components": [
            {
              "internalType": "uint16",
              "name": "ownerOffer",
              "type": "uint16"
            },
            {
              "internalType": "uint16",
              "name": "ownerCard",
              "type": "uint16"
            },
            {
              "internalType": "uint16",
              "name": "buyerOffer",
              "type": "uint16"
            },
            {
              "internalType": "uint16",
              "name": "buyerCard",
              "type": "uint16"
            },
            {
              "internalType": "uint16",
              "name": "index",
              "type": "uint16"
            },
            {
              "internalType": "bool",
              "name": "tradeComplete",
              "type": "bool"
            },
            {
              "internalType": "bool",
              "name": "tradeAvailable",
              "type": "bool"
            },
            {
              "internalType": "address",
              "name": "ownerAddr",
              "type": "address"
            },
            {
              "internalType": "address",
              "name": "buyerAddr",
              "type": "address"
            }
          ],
          "internalType": "struct tradeGame.tradeCard",
          "name": "",
          "type": "tuple"
        }
      ],
      "stateMutability": "view",
      "type": "function"
    },
    {
      "inputs": [],
      "name": "retAllTrades",
      "outputs": [
        {
          "components": [
            {
              "internalType": "uint16",
              "name": "ownerOffer",
              "type": "uint16"
            },
            {
              "internalType": "uint16",
              "name": "ownerCard",
              "type": "uint16"
            },
            {
              "internalType": "uint16",
              "name": "buyerOffer",
              "type": "uint16"
            },
            {
              "internalType": "uint16",
              "name": "buyerCard",
              "type": "uint16"
            },
            {
              "internalType": "uint16",
              "name": "index",
              "type": "uint16"
            },
            {
              "internalType": "bool",
              "name": "tradeComplete",
              "type": "bool"
            },
            {
              "internalType": "bool",
              "name": "tradeAvailable",
              "type": "bool"
            },
            {
              "internalType": "address",
              "name": "ownerAddr",
              "type": "address"
            },
            {
              "internalType": "address",
              "name": "buyerAddr",
              "type": "address"
            }
          ],
          "internalType": "struct tradeGame.tradeCard[]",
          "name": "",
          "type": "tuple[]"
        }
      ],
      "stateMutability": "view",
      "type": "function"
    },
    {
      "inputs": [
        {
          "internalType": "uint16",
          "name": "_ownerOffer",
          "type": "uint16"
        },
        {
          "internalType": "uint16",
          "name": "_ownerCard",
          "type": "uint16"
        }
      ],
      "name": "startTrade",
      "outputs": [],
      "stateMutability": "nonpayable",
      "type": "function"
    },
    {
      "inputs": [
        {
          "internalType": "uint16",
          "name": "_buyerOffer",
          "type": "uint16"
        },
        {
          "internalType": "uint16",
          "name": "_buyerCard",
          "type": "uint16"
        },
        {
          "internalType": "uint256",
          "name": "index",
          "type": "uint256"
        }
      ],
      "name": "offerTrade",
      "outputs": [],
      "stateMutability": "nonpayable",
      "type": "function"
    },
    {
      "inputs": [
        {
          "internalType": "bool",
          "name": "_tradeConfirm",
          "type": "bool"
        }
      ],
      "name": "tradeComplete",
      "outputs": [],
      "stateMutability": "nonpayable",
      "type": "function"
    }
  ],
  "bytecode": "0x608060405260008060006101000a81548161ffff021916908361ffff16021790555060006001556000600260006101000a81548160ff02191690831515021790555061271060035560016008556000600955600a8060006101000a81548161ffff021916908361ffff1602179055506000600a60026101000a81548173ffffffffffffffffffffffffffffffffffffffff021916908373ffffffffffffffffffffffffffffffffffffffff1602179055506000600b553480156100c157600080fd5b5033600460006101000a81548173ffffffffffffffffffffffffffffffffffffffff021916908373ffffffffffffffffffffffffffffffffffffffff16021790555060008060006101000a81548161ffff021916908361ffff1602179055506144608061012f6000396000f3fe608060405234801561001057600080fd5b50600436106101f05760003560e01c80638da5cb5b1161010f578063d65ab5f2116100a2578063ef75dff911610071578063ef75dff914610585578063f60cdcf6146105bd578063fb4cdcf0146105db578063ffb976ec146105f9576101f0565b8063d65ab5f21461050d578063e4fda6361461052b578063ee42179414610549578063ef034d8a14610567576101f0565b8063a7def311116100de578063a7def3111461049b578063aa467ed2146104b7578063ac89fa63146104d3578063b401f22114610503576101f0565b80638da5cb5b146104115780638dc107681461042f5780639f3c9c971461045f578063a61135511461047d576101f0565b80633fb876cc1161018757806362e925c01161015657806362e925c01461039b57806366c7ef3a146103cb5780636e3afc1d146103d55780638a19c8bc146103f3576101f0565b80633fb876cc14610313578063555f8f51146103315780635692776714610361578063604c528d1461037f576101f0565b806327d978cf116101c357806327d978cf146102995780632c9984da146102b75780633ca7aac3146102d55780633fa9fcf814610309576101f0565b806301fb72cf146101f55780631b95ba76146102255780631e6c598e146102435780631f47390c1461027b575b600080fd5b61020f600480360381019061020a91906139be565b610629565b60405161021c9190613a06565b60405180910390f35b61022d6106a4565b60405161023a9190613a30565b60405180910390f35b61025d600480360381019061025891906139be565b6106ae565b60405161027299989796959493929190613aa9565b60405180910390f35b6102836107ac565b6040516102909190613a30565b60405180910390f35b6102a16107b2565b6040516102ae9190613a30565b60405180910390f35b6102bf610935565b6040516102cc9190613a30565b60405180910390f35b6102ef60048036038101906102ea9190613b62565b61093f565b604051610300959493929190613b8f565b60405180910390f35b6103116109cd565b005b61031b610c5e565b6040516103289190613ca0565b60405180910390f35b61034b600480360381019061034691906139be565b610cb6565b6040516103589190613a30565b60405180910390f35b610369610d53565b6040516103769190613a30565b60405180910390f35b61039960048036038101906103949190613cee565b610d59565b005b6103b560048036038101906103b09190613b62565b61152d565b6040516103c29190613e12565b60405180910390f35b6103d36117a3565b005b6103dd61181a565b6040516103ea9190613e96565b60405180910390f35b6103fb611947565b6040516104089190613a30565b60405180910390f35b61041961194d565b6040516104269190613ed2565b60405180910390f35b610449600480360381019061044491906139be565b611973565b6040516104569190613a30565b60405180910390f35b610467611997565b6040516104749190613ca0565b60405180910390f35b610485611af4565b6040516104929190614054565b60405180910390f35b6104b560048036038101906104b091906140a2565b611cd6565b005b6104d160048036038101906104cc91906140cf565b612a4c565b005b6104ed60048036038101906104e891906139be565b612ef4565b6040516104fa9190614122565b60405180910390f35b61050b612f31565b005b610515613178565b6040516105229190613a06565b60405180910390f35b61053361318b565b604051610540919061413d565b60405180910390f35b61055161319f565b60405161055e9190613a30565b60405180910390f35b61056f6131a5565b60405161057c9190614122565b60405180910390f35b61059f600480360381019061059a9190613b62565b6131cb565b6040516105b499989796959493929190613aa9565b60405180910390f35b6105c56132b9565b6040516105d2919061413d565b60405180910390f35b6105e36132cb565b6040516105f09190613e12565b60405180910390f35b610613600480360381019061060e91906139be565b61353f565b6040516106209190614122565b60405180910390f35b60008073ffffffffffffffffffffffffffffffffffffffff166006600084815260200190815260200160002060009054906101000a900473ffffffffffffffffffffffffffffffffffffffff1673ffffffffffffffffffffffffffffffffffffffff161461069a576000905061069f565b600190505b919050565b6000600954905090565b600c81815481106106be57600080fd5b90600052602060002090600202016000915090508060000160009054906101000a900461ffff16908060000160029054906101000a900461ffff16908060000160049054906101000a900461ffff16908060000160069054906101000a900461ffff16908060000160089054906101000a900461ffff169080600001600a9054906101000a900460ff169080600001600b9054906101000a900460ff169080600001600c9054906101000a900473ffffffffffffffffffffffffffffffffffffffff16908060010160009054906101000a900473ffffffffffffffffffffffffffffffffffffffff16905089565b60035481565b6000806107bd61181a565b6040015161ffff1667ffffffffffffffff8111156107de576107dd614158565b5b60405190808252806020026020018201604052801561080c5781602001602082028036833780820191505090505b509050610817611997565b90506000805b825181101561092c576103e883828151811061083c5761083b614187565b5b6020026020010151101561085e57600a8261085791906141e5565b9150610919565b61138883828151811061087457610873614187565b5b602002602001015110156108965760058261088f9190614219565b9150610918565b611b588382815181106108ac576108ab614187565b5b602002602001015110156108ce57600a826108c79190614219565b9150610917565b6123288382815181106108e4576108e3614187565b5b6020026020010151101561090657600f826108ff9190614219565b9150610916565b601e826109139190614219565b91505b5b5b5b80806109249061426f565b91505061081d565b50809250505090565b6000600854905090565b60076020528060005260406000206000915090508060000160009054906101000a900461ffff16908060000160029054906101000a900461ffff16908060000160049054906101000a900461ffff16908060000160069054906101000a900461ffff16908060000160089054906101000a900473ffffffffffffffffffffffffffffffffffffffff16905085565b60001515600260009054906101000a900460ff161515146109ed57600080fd5b600073ffffffffffffffffffffffffffffffffffffffff16600760003373ffffffffffffffffffffffffffffffffffffffff1673ffffffffffffffffffffffffffffffffffffffff16815260200190815260200160002060000160089054906101000a900473ffffffffffffffffffffffffffffffffffffffff1673ffffffffffffffffffffffffffffffffffffffff1614610a8857600080fd5b60016000808282829054906101000a900461ffff16610aa791906142b8565b92506101000a81548161ffff021916908361ffff1602179055506040518060a00160405280606461ffff168152602001600161ffff168152602001600061ffff16815260200160008054906101000a900461ffff1661ffff1681526020013373ffffffffffffffffffffffffffffffffffffffff16815250600760003373ffffffffffffffffffffffffffffffffffffffff1673ffffffffffffffffffffffffffffffffffffffff16815260200190815260200160002060008201518160000160006101000a81548161ffff021916908361ffff16021790555060208201518160000160026101000a81548161ffff021916908361ffff16021790555060408201518160000160046101000a81548161ffff021916908361ffff16021790555060608201518160000160066101000a81548161ffff021916908361ffff16021790555060808201518160000160086101000a81548173ffffffffffffffffffffffffffffffffffffffff021916908373ffffffffffffffffffffffffffffffffffffffff16021790555090505060005b6003811015610c5b57610c48613572565b8080610c539061426f565b915050610c37565b50565b60606005805480602002602001604051908101604052809291908181526020018280548015610cac57602002820191906000526020600020905b815481526020019060010190808311610c98575b5050505050905090565b60005b600115610d3c576000824233600154604051602001610cda93929190614359565b6040516020818303038152906040528051906020012060001c610cfd91906143c5565b905060011515610d0c82610629565b15151415610d1d5780915050610d4e565b6001806000828254610d2f9190614219565b9250508190555050610cb9565b8162bc614e610d4b91906143c5565b90505b919050565b60015481565b60011515600260009054906101000a900460ff16151514610d7957600080fd5b8161ffff16600760003373ffffffffffffffffffffffffffffffffffffffff1673ffffffffffffffffffffffffffffffffffffffff16815260200190815260200160002060000160009054906101000a900461ffff1661ffff161015610dde57600080fd5b3373ffffffffffffffffffffffffffffffffffffffff16600d60003373ffffffffffffffffffffffffffffffffffffffff1673ffffffffffffffffffffffffffffffffffffffff168152602001908152602001600020600001600c9054906101000a900473ffffffffffffffffffffffffffffffffffffffff1673ffffffffffffffffffffffffffffffffffffffff161415610e7957600080fd5b3373ffffffffffffffffffffffffffffffffffffffff16600660008361ffff16815260200190815260200160002060009054906101000a900473ffffffffffffffffffffffffffffffffffffffff1673ffffffffffffffffffffffffffffffffffffffff1614610ee857600080fd5b6000600c8054905090506040518061012001604052808461ffff1681526020018361ffff168152602001600061ffff168152602001600061ffff1681526020018261ffff1681526020016000151581526020016001151581526020013373ffffffffffffffffffffffffffffffffffffffff168152602001600073ffffffffffffffffffffffffffffffffffffffff16815250600d60003373ffffffffffffffffffffffffffffffffffffffff1673ffffffffffffffffffffffffffffffffffffffff16815260200190815260200160002060008201518160000160006101000a81548161ffff021916908361ffff16021790555060208201518160000160026101000a81548161ffff021916908361ffff16021790555060408201518160000160046101000a81548161ffff021916908361ffff16021790555060608201518160000160066101000a81548161ffff021916908361ffff16021790555060808201518160000160086101000a81548161ffff021916908361ffff16021790555060a082015181600001600a6101000a81548160ff02191690831515021790555060c082015181600001600b6101000a81548160ff02191690831515021790555060e082015181600001600c6101000a81548173ffffffffffffffffffffffffffffffffffffffff021916908373ffffffffffffffffffffffffffffffffffffffff1602179055506101008201518160010160006101000a81548173ffffffffffffffffffffffffffffffffffffffff021916908373ffffffffffffffffffffffffffffffffffffffff1602179055509050506001600760003373ffffffffffffffffffffffffffffffffffffffff1673ffffffffffffffffffffffffffffffffffffffff16815260200190815260200160002060000160048282829054906101000a900461ffff1661119b91906143f6565b92506101000a81548161ffff021916908361ffff160217905550600c600d60003373ffffffffffffffffffffffffffffffffffffffff1673ffffffffffffffffffffffffffffffffffffffff16815260200190815260200160002090806001815401808255809150506001900390600052602060002090600202016000909190919091506000820160009054906101000a900461ffff168160000160006101000a81548161ffff021916908361ffff1602179055506000820160029054906101000a900461ffff168160000160026101000a81548161ffff021916908361ffff1602179055506000820160049054906101000a900461ffff168160000160046101000a81548161ffff021916908361ffff1602179055506000820160069054906101000a900461ffff168160000160066101000a81548161ffff021916908361ffff1602179055506000820160089054906101000a900461ffff168160000160086101000a81548161ffff021916908361ffff16021790555060008201600a9054906101000a900460ff1681600001600a6101000a81548160ff02191690831515021790555060008201600b9054906101000a900460ff1681600001600b6101000a81548160ff02191690831515021790555060008201600c9054906101000a900473ffffffffffffffffffffffffffffffffffffffff1681600001600c6101000a81548173ffffffffffffffffffffffffffffffffffffffff021916908373ffffffffffffffffffffffffffffffffffffffff1602179055506001820160009054906101000a900473ffffffffffffffffffffffffffffffffffffffff168160010160006101000a81548173ffffffffffffffffffffffffffffffffffffffff021916908373ffffffffffffffffffffffffffffffffffffffff16021790555050506000600660008461ffff16815260200190815260200160002060006101000a81548173ffffffffffffffffffffffffffffffffffffffff021916908373ffffffffffffffffffffffffffffffffffffffff16021790555082600760003373ffffffffffffffffffffffffffffffffffffffff1673ffffffffffffffffffffffffffffffffffffffff16815260200190815260200160002060000160008282829054906101000a900461ffff166114f491906143f6565b92506101000a81548161ffff021916908361ffff1602179055506001600b60008282546115219190614219565b92505081905550505050565b61153561389e565b3373ffffffffffffffffffffffffffffffffffffffff16600d60008473ffffffffffffffffffffffffffffffffffffffff1673ffffffffffffffffffffffffffffffffffffffff168152602001908152602001600020600001600c9054906101000a900473ffffffffffffffffffffffffffffffffffffffff1673ffffffffffffffffffffffffffffffffffffffff16146115cf57600080fd5b600d60008373ffffffffffffffffffffffffffffffffffffffff1673ffffffffffffffffffffffffffffffffffffffff168152602001908152602001600020604051806101200160405290816000820160009054906101000a900461ffff1661ffff1661ffff1681526020016000820160029054906101000a900461ffff1661ffff1661ffff1681526020016000820160049054906101000a900461ffff1661ffff1661ffff1681526020016000820160069054906101000a900461ffff1661ffff1661ffff1681526020016000820160089054906101000a900461ffff1661ffff1661ffff16815260200160008201600a9054906101000a900460ff1615151515815260200160008201600b9054906101000a900460ff1615151515815260200160008201600c9054906101000a900473ffffffffffffffffffffffffffffffffffffffff1673ffffffffffffffffffffffffffffffffffffffff1673ffffffffffffffffffffffffffffffffffffffff1681526020016001820160009054906101000a900473ffffffffffffffffffffffffffffffffffffffff1673ffffffffffffffffffffffffffffffffffffffff1673ffffffffffffffffffffffffffffffffffffffff16815250509050919050565b600460009054906101000a900473ffffffffffffffffffffffffffffffffffffffff1673ffffffffffffffffffffffffffffffffffffffff163373ffffffffffffffffffffffffffffffffffffffff16146117fd57600080fd5b6001600260006101000a81548160ff021916908315150217905550565b61182261392e565b600760003373ffffffffffffffffffffffffffffffffffffffff1673ffffffffffffffffffffffffffffffffffffffff1681526020019081526020016000206040518060a00160405290816000820160009054906101000a900461ffff1661ffff1661ffff1681526020016000820160029054906101000a900461ffff1661ffff1661ffff1681526020016000820160049054906101000a900461ffff1661ffff1661ffff1681526020016000820160069054906101000a900461ffff1661ffff1661ffff1681526020016000820160089054906101000a900473ffffffffffffffffffffffffffffffffffffffff1673ffffffffffffffffffffffffffffffffffffffff1673ffffffffffffffffffffffffffffffffffffffff1681525050905090565b60085481565b600460009054906101000a900473ffffffffffffffffffffffffffffffffffffffff1681565b6005818154811061198357600080fd5b906000526020600020016000915090505481565b606060006119a361181a565b6040015161ffff1667ffffffffffffffff8111156119c4576119c3614158565b5b6040519080825280602002602001820160405280156119f25781602001602082028036833780820191505090505b5090506000805b600580549050811015611aeb573373ffffffffffffffffffffffffffffffffffffffff166006600060058481548110611a3557611a34614187565b5b9060005260206000200154815260200190815260200160002060009054906101000a900473ffffffffffffffffffffffffffffffffffffffff1673ffffffffffffffffffffffffffffffffffffffff161415611ad85760058181548110611a9f57611a9e614187565b5b9060005260206000200154838381518110611abd57611abc614187565b5b6020026020010181815250508180611ad49061426f565b9250505b8080611ae39061426f565b9150506119f9565b50819250505090565b6060600c805480602002602001604051908101604052809291908181526020016000905b82821015611ccd5783829060005260206000209060020201604051806101200160405290816000820160009054906101000a900461ffff1661ffff1661ffff1681526020016000820160029054906101000a900461ffff1661ffff1661ffff1681526020016000820160049054906101000a900461ffff1661ffff1661ffff1681526020016000820160069054906101000a900461ffff1661ffff1661ffff1681526020016000820160089054906101000a900461ffff1661ffff1661ffff16815260200160008201600a9054906101000a900460ff1615151515815260200160008201600b9054906101000a900460ff1615151515815260200160008201600c9054906101000a900473ffffffffffffffffffffffffffffffffffffffff1673ffffffffffffffffffffffffffffffffffffffff1673ffffffffffffffffffffffffffffffffffffffff1681526020016001820160009054906101000a900473ffffffffffffffffffffffffffffffffffffffff1673ffffffffffffffffffffffffffffffffffffffff1673ffffffffffffffffffffffffffffffffffffffff168152505081526020019060010190611b18565b50505050905090565b600d60003373ffffffffffffffffffffffffffffffffffffffff1673ffffffffffffffffffffffffffffffffffffffff168152602001908152602001600020600001600c9054906101000a900473ffffffffffffffffffffffffffffffffffffffff1673ffffffffffffffffffffffffffffffffffffffff163373ffffffffffffffffffffffffffffffffffffffff1614611d7057600080fd5b60001515600d60003373ffffffffffffffffffffffffffffffffffffffff1673ffffffffffffffffffffffffffffffffffffffff168152602001908152602001600020600001600b9054906101000a900460ff16151514611dd057600080fd5b60001515811515141561228657600d60003373ffffffffffffffffffffffffffffffffffffffff1673ffffffffffffffffffffffffffffffffffffffff16815260200190815260200160002060000160049054906101000a900461ffff1660076000600d60003373ffffffffffffffffffffffffffffffffffffffff1673ffffffffffffffffffffffffffffffffffffffff168152602001908152602001600020600001600c9054906101000a900473ffffffffffffffffffffffffffffffffffffffff1673ffffffffffffffffffffffffffffffffffffffff1673ffffffffffffffffffffffffffffffffffffffff16815260200190815260200160002060000160008282829054906101000a900461ffff16611eee91906142b8565b92506101000a81548161ffff021916908361ffff160217905550600d60003373ffffffffffffffffffffffffffffffffffffffff1673ffffffffffffffffffffffffffffffffffffffff16815260200190815260200160002060010160009054906101000a900473ffffffffffffffffffffffffffffffffffffffff1660066000600d60003373ffffffffffffffffffffffffffffffffffffffff1673ffffffffffffffffffffffffffffffffffffffff16815260200190815260200160002060000160069054906101000a900461ffff1661ffff16815260200190815260200160002060006101000a81548173ffffffffffffffffffffffffffffffffffffffff021916908373ffffffffffffffffffffffffffffffffffffffff160217905550600160076000600d60003373ffffffffffffffffffffffffffffffffffffffff1673ffffffffffffffffffffffffffffffffffffffff168152602001908152602001600020600001600c9054906101000a900473ffffffffffffffffffffffffffffffffffffffff1673ffffffffffffffffffffffffffffffffffffffff1673ffffffffffffffffffffffffffffffffffffffff16815260200190815260200160002060000160048282829054906101000a900461ffff166120d291906142b8565b92506101000a81548161ffff021916908361ffff1602179055506000600d60003373ffffffffffffffffffffffffffffffffffffffff1673ffffffffffffffffffffffffffffffffffffffff16815260200190815260200160002060000160046101000a81548161ffff021916908361ffff1602179055506000600d60003373ffffffffffffffffffffffffffffffffffffffff1673ffffffffffffffffffffffffffffffffffffffff16815260200190815260200160002060000160066101000a81548161ffff021916908361ffff1602179055506000600d60003373ffffffffffffffffffffffffffffffffffffffff1673ffffffffffffffffffffffffffffffffffffffff16815260200190815260200160002060010160006101000a81548173ffffffffffffffffffffffffffffffffffffffff021916908373ffffffffffffffffffffffffffffffffffffffff1602179055506001600d60003373ffffffffffffffffffffffffffffffffffffffff1673ffffffffffffffffffffffffffffffffffffffff168152602001908152602001600020600001600b6101000a81548160ff0219169083151502179055505b600115158115151415612a4957600d60003373ffffffffffffffffffffffffffffffffffffffff1673ffffffffffffffffffffffffffffffffffffffff16815260200190815260200160002060000160049054906101000a900461ffff16600760003373ffffffffffffffffffffffffffffffffffffffff1673ffffffffffffffffffffffffffffffffffffffff16815260200190815260200160002060000160008282829054906101000a900461ffff1661234291906142b8565b92506101000a81548161ffff021916908361ffff1602179055503360066000600d60003373ffffffffffffffffffffffffffffffffffffffff1673ffffffffffffffffffffffffffffffffffffffff16815260200190815260200160002060000160069054906101000a900461ffff1661ffff16815260200190815260200160002060006101000a81548173ffffffffffffffffffffffffffffffffffffffff021916908373ffffffffffffffffffffffffffffffffffffffff1602179055506001600760003373ffffffffffffffffffffffffffffffffffffffff1673ffffffffffffffffffffffffffffffffffffffff16815260200190815260200160002060000160048282829054906101000a900461ffff1661246291906142b8565b92506101000a81548161ffff021916908361ffff1602179055506000600d60003373ffffffffffffffffffffffffffffffffffffffff1673ffffffffffffffffffffffffffffffffffffffff16815260200190815260200160002060000160006101000a81548161ffff021916908361ffff1602179055506000600d60003373ffffffffffffffffffffffffffffffffffffffff1673ffffffffffffffffffffffffffffffffffffffff16815260200190815260200160002060000160026101000a81548161ffff021916908361ffff1602179055506000600d60003373ffffffffffffffffffffffffffffffffffffffff1673ffffffffffffffffffffffffffffffffffffffff168152602001908152602001600020600001600c6101000a81548173ffffffffffffffffffffffffffffffffffffffff021916908373ffffffffffffffffffffffffffffffffffffffff1602179055506000600d60003373ffffffffffffffffffffffffffffffffffffffff1673ffffffffffffffffffffffffffffffffffffffff168152602001908152602001600020600001600b6101000a81548160ff0219169083151502179055506000600d60003373ffffffffffffffffffffffffffffffffffffffff1673ffffffffffffffffffffffffffffffffffffffff16815260200190815260200160002060000160046101000a81548161ffff021916908361ffff1602179055506000600d60003373ffffffffffffffffffffffffffffffffffffffff1673ffffffffffffffffffffffffffffffffffffffff16815260200190815260200160002060000160066101000a81548161ffff021916908361ffff1602179055506000600d60003373ffffffffffffffffffffffffffffffffffffffff1673ffffffffffffffffffffffffffffffffffffffff16815260200190815260200160002060010160006101000a81548173ffffffffffffffffffffffffffffffffffffffff021916908373ffffffffffffffffffffffffffffffffffffffff1602179055506000600c6001600c8054905061276991906141e5565b8154811061277a57612779614187565b5b9060005260206000209060020201604051806101200160405290816000820160009054906101000a900461ffff1661ffff1661ffff1681526020016000820160029054906101000a900461ffff1661ffff1661ffff1681526020016000820160049054906101000a900461ffff1661ffff1661ffff1681526020016000820160069054906101000a900461ffff1661ffff1661ffff1681526020016000820160089054906101000a900461ffff1661ffff1661ffff16815260200160008201600a9054906101000a900460ff1615151515815260200160008201600b9054906101000a900460ff1615151515815260200160008201600c9054906101000a900473ffffffffffffffffffffffffffffffffffffffff1673ffffffffffffffffffffffffffffffffffffffff1673ffffffffffffffffffffffffffffffffffffffff1681526020016001820160009054906101000a900473ffffffffffffffffffffffffffffffffffffffff1673ffffffffffffffffffffffffffffffffffffffff1673ffffffffffffffffffffffffffffffffffffffff16815250509050600c6001600c8054905061292c91906141e5565b8154811061293d5761293c614187565b5b9060005260206000209060020201600080820160006101000a81549061ffff02191690556000820160026101000a81549061ffff02191690556000820160046101000a81549061ffff02191690556000820160066101000a81549061ffff02191690556000820160086101000a81549061ffff021916905560008201600a6101000a81549060ff021916905560008201600b6101000a81549060ff021916905560008201600c6101000a81549073ffffffffffffffffffffffffffffffffffffffff02191690556001820160006101000a81549073ffffffffffffffffffffffffffffffffffffffff021916905550506001600b6000828254612a4091906141e5565b92505081905550505b50565b6000600c8281548110612a6257612a61614187565b5b9060005260206000209060020201600001600c9054906101000a900473ffffffffffffffffffffffffffffffffffffffff1690508361ffff16600760003373ffffffffffffffffffffffffffffffffffffffff1673ffffffffffffffffffffffffffffffffffffffff16815260200190815260200160002060000160009054906101000a900461ffff1661ffff161015612afb57600080fd5b600d60008273ffffffffffffffffffffffffffffffffffffffff1673ffffffffffffffffffffffffffffffffffffffff168152602001908152602001600020600001600b9054906101000a900460ff16612b5457600080fd5b60008461ffff161015612b6657600080fd5b3373ffffffffffffffffffffffffffffffffffffffff168173ffffffffffffffffffffffffffffffffffffffff161415612b9f57600080fd5b3373ffffffffffffffffffffffffffffffffffffffff16600660008561ffff16815260200190815260200160002060009054906101000a900473ffffffffffffffffffffffffffffffffffffffff1673ffffffffffffffffffffffffffffffffffffffff1614612c0e57600080fd5b83600d60008373ffffffffffffffffffffffffffffffffffffffff1673ffffffffffffffffffffffffffffffffffffffff16815260200190815260200160002060000160046101000a81548161ffff021916908361ffff16021790555082600d60008373ffffffffffffffffffffffffffffffffffffffff1673ffffffffffffffffffffffffffffffffffffffff16815260200190815260200160002060000160066101000a81548161ffff021916908361ffff16021790555033600d60008373ffffffffffffffffffffffffffffffffffffffff1673ffffffffffffffffffffffffffffffffffffffff16815260200190815260200160002060010160006101000a81548173ffffffffffffffffffffffffffffffffffffffff021916908373ffffffffffffffffffffffffffffffffffffffff1602179055506000600d60008373ffffffffffffffffffffffffffffffffffffffff1673ffffffffffffffffffffffffffffffffffffffff168152602001908152602001600020600001600b6101000a81548160ff02191690831515021790555083600760003373ffffffffffffffffffffffffffffffffffffffff1673ffffffffffffffffffffffffffffffffffffffff16815260200190815260200160002060000160008282829054906101000a900461ffff16612e0391906143f6565b92506101000a81548161ffff021916908361ffff1602179055506001600760003373ffffffffffffffffffffffffffffffffffffffff1673ffffffffffffffffffffffffffffffffffffffff16815260200190815260200160002060000160048282829054906101000a900461ffff16612e7d91906143f6565b92506101000a81548161ffff021916908361ffff1602179055506000600660008561ffff16815260200190815260200160002060006101000a81548173ffffffffffffffffffffffffffffffffffffffff021916908373ffffffffffffffffffffffffffffffffffffffff16021790555050505050565b60006006600083815260200190815260200160002060009054906101000a900473ffffffffffffffffffffffffffffffffffffffff169050919050565b60011515600260009054906101000a900460ff16151514612f5157600080fd5b60008054906101000a900461ffff1661ffff1660095410612f7157600080fd5b600854600760003373ffffffffffffffffffffffffffffffffffffffff1673ffffffffffffffffffffffffffffffffffffffff16815260200190815260200160002060000160029054906101000a900461ffff1661ffff161115612fd457600080fd5b600a60009054906101000a900461ffff1661ffff16600760003373ffffffffffffffffffffffffffffffffffffffff1673ffffffffffffffffffffffffffffffffffffffff16815260200190815260200160002060000160009054906101000a900461ffff1661ffff16101561304957600080fd5b613051613572565b600a60009054906101000a900461ffff16600760003373ffffffffffffffffffffffffffffffffffffffff1673ffffffffffffffffffffffffffffffffffffffff16815260200190815260200160002060000160008282829054906101000a900461ffff166130c091906143f6565b92506101000a81548161ffff021916908361ffff1602179055506001600960008282546130ed9190614219565b925050819055506001600760003373ffffffffffffffffffffffffffffffffffffffff1673ffffffffffffffffffffffffffffffffffffffff16815260200190815260200160002060000160028282829054906101000a900461ffff1661315491906142b8565b92506101000a81548161ffff021916908361ffff160217905550613176613679565b565b600260009054906101000a900460ff1681565b600a60009054906101000a900461ffff1681565b60095481565b600a60029054906101000a900473ffffffffffffffffffffffffffffffffffffffff1681565b600d6020528060005260406000206000915090508060000160009054906101000a900461ffff16908060000160029054906101000a900461ffff16908060000160049054906101000a900461ffff16908060000160069054906101000a900461ffff16908060000160089054906101000a900461ffff169080600001600a9054906101000a900460ff169080600001600b9054906101000a900460ff169080600001600c9054906101000a900473ffffffffffffffffffffffffffffffffffffffff16908060010160009054906101000a900473ffffffffffffffffffffffffffffffffffffffff16905089565b60008054906101000a900461ffff1681565b6132d361389e565b3373ffffffffffffffffffffffffffffffffffffffff16600d60003373ffffffffffffffffffffffffffffffffffffffff1673ffffffffffffffffffffffffffffffffffffffff168152602001908152602001600020600001600c9054906101000a900473ffffffffffffffffffffffffffffffffffffffff1673ffffffffffffffffffffffffffffffffffffffff161461336d57600080fd5b600d60003373ffffffffffffffffffffffffffffffffffffffff1673ffffffffffffffffffffffffffffffffffffffff168152602001908152602001600020604051806101200160405290816000820160009054906101000a900461ffff1661ffff1661ffff1681526020016000820160029054906101000a900461ffff1661ffff1661ffff1681526020016000820160049054906101000a900461ffff1661ffff1661ffff1681526020016000820160069054906101000a900461ffff1661ffff1661ffff1681526020016000820160089054906101000a900461ffff1661ffff1661ffff16815260200160008201600a9054906101000a900460ff1615151515815260200160008201600b9054906101000a900460ff1615151515815260200160008201600c9054906101000a900473ffffffffffffffffffffffffffffffffffffffff1673ffffffffffffffffffffffffffffffffffffffff1673ffffffffffffffffffffffffffffffffffffffff1681526020016001820160009054906101000a900473ffffffffffffffffffffffffffffffffffffffff1673ffffffffffffffffffffffffffffffffffffffff1673ffffffffffffffffffffffffffffffffffffffff1681525050905090565b60066020528060005260406000206000915054906101000a900473ffffffffffffffffffffffffffffffffffffffff1681565b600061357f600354610cb6565b90506005819080600181540180825580915050600190039060005260206000200160009091909190915055336006600083815260200190815260200160002060006101000a81548173ffffffffffffffffffffffffffffffffffffffff021916908373ffffffffffffffffffffffffffffffffffffffff1602179055506001600760003373ffffffffffffffffffffffffffffffffffffffff1673ffffffffffffffffffffffffffffffffffffffff16815260200190815260200160002060000160048282829054906101000a900461ffff1661365c91906142b8565b92506101000a81548161ffff021916908361ffff16021790555050565b60011515600260009054906101000a900460ff1615151461369957600080fd5b60646136a36107b2565b50506000600760003373ffffffffffffffffffffffffffffffffffffffff1673ffffffffffffffffffffffffffffffffffffffff16815260200190815260200160002060000160009054906101000a900461ffff1661ffff16116138125760016000808282829054906101000a900461ffff1661372091906143f6565b92506101000a81548161ffff021916908361ffff16021790555060016009600082825461374d91906141e5565b92505081905550600760003373ffffffffffffffffffffffffffffffffffffffff1673ffffffffffffffffffffffffffffffffffffffff168152602001908152602001600020600080820160006101000a81549061ffff02191690556000820160026101000a81549061ffff02191690556000820160046101000a81549061ffff02191690556000820160066101000a81549061ffff02191690556000820160086101000a81549073ffffffffffffffffffffffffffffffffffffffff021916905550505b60008054906101000a900461ffff1661ffff16600954141561383757613836613839565b5b565b60011515600260009054906101000a900460ff1615151461385957600080fd5b60008054906101000a900461ffff1661ffff16600954101561387a57600080fd5b60006009819055506001600860008282546138959190614219565b92505081905550565b604051806101200160405280600061ffff168152602001600061ffff168152602001600061ffff168152602001600061ffff168152602001600061ffff168152602001600015158152602001600015158152602001600073ffffffffffffffffffffffffffffffffffffffff168152602001600073ffffffffffffffffffffffffffffffffffffffff1681525090565b6040518060a00160405280600061ffff168152602001600061ffff168152602001600061ffff168152602001600061ffff168152602001600073ffffffffffffffffffffffffffffffffffffffff1681525090565b600080fd5b6000819050919050565b61399b81613988565b81146139a657600080fd5b50565b6000813590506139b881613992565b92915050565b6000602082840312156139d4576139d3613983565b5b60006139e2848285016139a9565b91505092915050565b60008115159050919050565b613a00816139eb565b82525050565b6000602082019050613a1b60008301846139f7565b92915050565b613a2a81613988565b82525050565b6000602082019050613a456000830184613a21565b92915050565b600061ffff82169050919050565b613a6281613a4b565b82525050565b600073ffffffffffffffffffffffffffffffffffffffff82169050919050565b6000613a9382613a68565b9050919050565b613aa381613a88565b82525050565b600061012082019050613abf600083018c613a59565b613acc602083018b613a59565b613ad9604083018a613a59565b613ae66060830189613a59565b613af36080830188613a59565b613b0060a08301876139f7565b613b0d60c08301866139f7565b613b1a60e0830185613a9a565b613b28610100830184613a9a565b9a9950505050505050505050565b613b3f81613a88565b8114613b4a57600080fd5b50565b600081359050613b5c81613b36565b92915050565b600060208284031215613b7857613b77613983565b5b6000613b8684828501613b4d565b91505092915050565b600060a082019050613ba46000830188613a59565b613bb16020830187613a59565b613bbe6040830186613a59565b613bcb6060830185613a59565b613bd86080830184613a9a565b9695505050505050565b600081519050919050565b600082825260208201905092915050565b6000819050602082019050919050565b613c1781613988565b82525050565b6000613c298383613c0e565b60208301905092915050565b6000602082019050919050565b6000613c4d82613be2565b613c578185613bed565b9350613c6283613bfe565b8060005b83811015613c93578151613c7a8882613c1d565b9750613c8583613c35565b925050600181019050613c66565b5085935050505092915050565b60006020820190508181036000830152613cba8184613c42565b905092915050565b613ccb81613a4b565b8114613cd657600080fd5b50565b600081359050613ce881613cc2565b92915050565b60008060408385031215613d0557613d04613983565b5b6000613d1385828601613cd9565b9250506020613d2485828601613cd9565b9150509250929050565b613d3781613a4b565b82525050565b613d46816139eb565b82525050565b613d5581613a88565b82525050565b61012082016000820151613d726000850182613d2e565b506020820151613d856020850182613d2e565b506040820151613d986040850182613d2e565b506060820151613dab6060850182613d2e565b506080820151613dbe6080850182613d2e565b5060a0820151613dd160a0850182613d3d565b5060c0820151613de460c0850182613d3d565b5060e0820151613df760e0850182613d4c565b50610100820151613e0c610100850182613d4c565b50505050565b600061012082019050613e286000830184613d5b565b92915050565b60a082016000820151613e446000850182613d2e565b506020820151613e576020850182613d2e565b506040820151613e6a6040850182613d2e565b506060820151613e7d6060850182613d2e565b506080820151613e906080850182613d4c565b50505050565b600060a082019050613eab6000830184613e2e565b92915050565b6000613ebc82613a68565b9050919050565b613ecc81613eb1565b82525050565b6000602082019050613ee76000830184613ec3565b92915050565b600081519050919050565b600082825260208201905092915050565b6000819050602082019050919050565b61012082016000820151613f306000850182613d2e565b506020820151613f436020850182613d2e565b506040820151613f566040850182613d2e565b506060820151613f696060850182613d2e565b506080820151613f7c6080850182613d2e565b5060a0820151613f8f60a0850182613d3d565b5060c0820151613fa260c0850182613d3d565b5060e0820151613fb560e0850182613d4c565b50610100820151613fca610100850182613d4c565b50505050565b6000613fdc8383613f19565b6101208301905092915050565b6000602082019050919050565b600061400182613eed565b61400b8185613ef8565b935061401683613f09565b8060005b8381101561404757815161402e8882613fd0565b975061403983613fe9565b92505060018101905061401a565b5085935050505092915050565b6000602082019050818103600083015261406e8184613ff6565b905092915050565b61407f816139eb565b811461408a57600080fd5b50565b60008135905061409c81614076565b92915050565b6000602082840312156140b8576140b7613983565b5b60006140c68482850161408d565b91505092915050565b6000806000606084860312156140e8576140e7613983565b5b60006140f686828701613cd9565b935050602061410786828701613cd9565b9250506040614118868287016139a9565b9150509250925092565b60006020820190506141376000830184613a9a565b92915050565b60006020820190506141526000830184613a59565b92915050565b7f4e487b7100000000000000000000000000000000000000000000000000000000600052604160045260246000fd5b7f4e487b7100000000000000000000000000000000000000000000000000000000600052603260045260246000fd5b7f4e487b7100000000000000000000000000000000000000000000000000000000600052601160045260246000fd5b60006141f082613988565b91506141fb83613988565b92508282101561420e5761420d6141b6565b5b828203905092915050565b600061422482613988565b915061422f83613988565b9250827fffffffffffffffffffffffffffffffffffffffffffffffffffffffffffffffff03821115614264576142636141b6565b5b828201905092915050565b600061427a82613988565b91507fffffffffffffffffffffffffffffffffffffffffffffffffffffffffffffffff8214156142ad576142ac6141b6565b5b600182019050919050565b60006142c382613a4b565b91506142ce83613a4b565b92508261ffff038211156142e5576142e46141b6565b5b828201905092915050565b6000819050919050565b61430b61430682613988565b6142f0565b82525050565b60008160601b9050919050565b600061432982614311565b9050919050565b600061433b8261431e565b9050919050565b61435361434e82613a88565b614330565b82525050565b600061436582866142fa565b6020820191506143758285614342565b60148201915061438582846142fa565b602082019150819050949350505050565b7f4e487b7100000000000000000000000000000000000000000000000000000000600052601260045260246000fd5b60006143d082613988565b91506143db83613988565b9250826143eb576143ea614396565b5b828206905092915050565b600061440182613a4b565b915061440c83613a4b565b92508282101561441f5761441e6141b6565b5b82820390509291505056fea26469706673582212202a497ceea76cfb3e5fd0d91429710f1e73ac998facc7c3800929d7ccf6082a9e64736f6c634300080a0033",
  "immutableReferences": {},
  "source": "pragma solidity >=0.6.0;\r\n\r\nimport \"./roundsGame.sol\";\r\n\r\n/*==================================================================\r\nContains\r\n-Trade Functionality\r\n-Offer Trades\r\n-Cancel Trades\r\n-Subtract and add token/cards per trades\r\n==================================================================*/\r\n\r\ncontract tradeGame is roundsGame {\r\n    //--------------------Variables----------------------\r\n\r\n    struct tradeCard {\r\n        uint16 ownerOffer; //Owner giving tokens to take his card. (for negative ones usually)\r\n        uint16 ownerCard; //Owners card he wants to trade.\r\n        uint16 buyerOffer; //Buyer giving tokens to buy card\r\n        uint16 buyerCard; //BuyerCard\r\n        uint16 index;\r\n        bool tradeComplete;\r\n        bool tradeAvailable;\r\n        address ownerAddr;\r\n        address buyerAddr;\r\n    }\r\n\r\n    tradeCard[] public trades;\r\n    mapping(address => tradeCard) public ownerToTrade;\r\n\r\n    //--------------------Functions----------------------\r\n\r\n    //Return trades of specified address\r\n\r\n    function retTradeAddr(address _ownerAddr)\r\n        public\r\n        view\r\n        returns (tradeCard memory)\r\n    {\r\n        require(ownerToTrade[_ownerAddr].ownerAddr == msg.sender);\r\n        return ownerToTrade[_ownerAddr];\r\n    }\r\n\r\n    function retTrade() public view returns (tradeCard memory) {\r\n        require(ownerToTrade[msg.sender].ownerAddr == msg.sender);\r\n        return ownerToTrade[msg.sender];\r\n    }\r\n\r\n    function retAllTrades() public view returns (tradeCard[] memory) {\r\n        return trades;\r\n    }\r\n\r\n    function retTradeIndex() internal view returns (uint256) {\r\n        uint256 index = 0;\r\n        for (index = 0; index < trades.length; index++) {\r\n            if (trades[index].ownerAddr == msg.sender) {\r\n                return index;\r\n            }\r\n        }\r\n        revert();\r\n    }\r\n\r\n    //MAKE SURE TO DOUBLE CHECK THAT ALL THE TOKENS CARDS ETC TRANSFERS ARE DONE CORRECTLY\r\n\r\n    function startTrade(uint16 _ownerOffer, uint16 _ownerCard)\r\n        public\r\n        gameStarted\r\n    {\r\n        require(ownerToPlayer[msg.sender].balance >= _ownerOffer);\r\n        require(ownerToTrade[msg.sender].ownerAddr != msg.sender); //Make sure owner doesnt have a trade alrdy\r\n        require(cardToOwner[_ownerCard] == msg.sender);\r\n\r\n        uint16 currentIndex = uint16(trades.length);\r\n        ownerToTrade[msg.sender] = tradeCard(\r\n            _ownerOffer,\r\n            _ownerCard,\r\n            0,\r\n            0,\r\n            currentIndex,\r\n            false,\r\n            true,\r\n            msg.sender,\r\n            address(0)\r\n        );\r\n        ownerToPlayer[msg.sender].cardsOwned -= 1;\r\n        trades.push(ownerToTrade[msg.sender]);\r\n        cardToOwner[_ownerCard] = address(0);\r\n        //reduce the tokens the owner offers for trade\r\n        ownerToPlayer[msg.sender].balance -= _ownerOffer;\r\n        currentTrades += 1;\r\n    }\r\n\r\n    //The offer (tokens + cards) a buyer makes will be subtracted until the trade is cancelled or confirmed\r\n\r\n    function offerTrade(\r\n        uint16 _buyerOffer,\r\n        uint16 _buyerCard,\r\n        uint256 index\r\n    ) public {\r\n        address _ownerAddr = address(trades[index].ownerAddr);\r\n        require(ownerToPlayer[msg.sender].balance >= _buyerOffer);\r\n        //to make sure no more trades available to the player\r\n        require(ownerToTrade[_ownerAddr].tradeAvailable);\r\n        require(_buyerOffer >= 0);\r\n        require(_ownerAddr != msg.sender);\r\n        require(cardToOwner[_buyerCard] == msg.sender);\r\n\r\n        ownerToTrade[_ownerAddr].buyerOffer = _buyerOffer;\r\n        ownerToTrade[_ownerAddr].buyerCard = _buyerCard;\r\n        ownerToTrade[_ownerAddr].buyerAddr = address(msg.sender);\r\n        ownerToTrade[_ownerAddr].tradeAvailable = false;\r\n\r\n        ownerToPlayer[msg.sender].balance -= _buyerOffer;\r\n        ownerToPlayer[msg.sender].cardsOwned -= 1;\r\n        //buyers Card owned by noOne;\r\n        cardToOwner[_buyerCard] = address(0);\r\n    }\r\n\r\n    //Player can use this to hold enemy tokens but in term they cant trade either until they confirm this\r\n    //TRY TO MAKE THIS MORE EFFICIENT IN NEXT ITERATIONS\r\n\r\n    function tradeComplete(bool _tradeConfirm) public {\r\n        require(msg.sender == ownerToTrade[msg.sender].ownerAddr);\r\n        require(ownerToTrade[msg.sender].tradeAvailable == false);\r\n\r\n        if (_tradeConfirm == false) {\r\n            //send money back to buyer and make trade available\r\n            ownerToPlayer[ownerToTrade[msg.sender].ownerAddr]\r\n                .balance += ownerToTrade[msg.sender].buyerOffer;\r\n            //make buyer Owner of his card again\r\n            cardToOwner[ownerToTrade[msg.sender].buyerCard] = ownerToTrade[\r\n                msg.sender\r\n            ].buyerAddr;\r\n            //Add card number in buyer\r\n            ownerToPlayer[ownerToTrade[msg.sender].ownerAddr].cardsOwned += 1;\r\n\r\n            ownerToTrade[msg.sender].buyerOffer = 0;\r\n            ownerToTrade[msg.sender].buyerCard = 0;\r\n            ownerToTrade[msg.sender].buyerAddr = address(0);\r\n            ownerToTrade[msg.sender].tradeAvailable = true;\r\n        }\r\n\r\n        if (_tradeConfirm == true) {\r\n            //send money to owner and make trade complete\r\n            ownerToPlayer[msg.sender].balance += ownerToTrade[msg.sender]\r\n                .buyerOffer;\r\n            //make tradeOwner Owner of the card\r\n            cardToOwner[ownerToTrade[msg.sender].buyerCard] = msg.sender;\r\n            //Add card numbers in owner\r\n            ownerToPlayer[msg.sender].cardsOwned += 1;\r\n\r\n            ownerToTrade[msg.sender].ownerOffer = 0;\r\n            ownerToTrade[msg.sender].ownerCard = 0;\r\n            ownerToTrade[msg.sender].ownerAddr = address(0);\r\n            ownerToTrade[msg.sender].tradeAvailable = false;\r\n\r\n            ownerToTrade[msg.sender].buyerOffer = 0;\r\n            ownerToTrade[msg.sender].buyerCard = 0;\r\n            ownerToTrade[msg.sender].buyerAddr = address(0);\r\n\r\n            tradeCard memory tempTrade = trades[trades.length - 1];\r\n            delete trades[trades.length - 1];\r\n            // trades[retTradeIndex()] = tempTrade;\r\n            currentTrades -= 1;\r\n        }\r\n    }\r\n}\r\n",
  "sourcePath": "E:\\ProgrammingStuff\\BlockChain\\truffle\\Projects\\FastCards\\truffle\\contracts\\tradeGame.sol",
  "compiler": {
    "name": "solc",
    "version": "0.8.10+commit.fc410830.Emscripten.clang"
  },
  "schemaVersion": "3.4.3",
  "updatedAt": "2021-12-20T14:42:54.786Z",
  "devdoc": {
    "kind": "dev",
    "methods": {},
    "version": 1
  },
  "userdoc": {
    "kind": "user",
    "methods": {},
    "version": 1
  }
}