{
  "contractName": "initializeGame",
  "abi": [
    {
      "inputs": [],
      "stateMutability": "nonpayable",
      "type": "constructor"
    },
    {
      "inputs": [],
      "name": "cardModValue",
      "outputs": [
        {
          "internalType": "uint256",
          "name": "",
          "type": "uint256"
        }
      ],
      "stateMutability": "view",
      "type": "function"
    },
    {
      "inputs": [
        {
          "internalType": "uint256",
          "name": "",
          "type": "uint256"
        }
      ],
      "name": "cardToOwner",
      "outputs": [
        {
          "internalType": "address",
          "name": "",
          "type": "address"
        }
      ],
      "stateMutability": "view",
      "type": "function"
    },
    {
      "inputs": [
        {
          "internalType": "uint256",
          "name": "",
          "type": "uint256"
        }
      ],
      "name": "cards",
      "outputs": [
        {
          "internalType": "uint256",
          "name": "",
          "type": "uint256"
        }
      ],
      "stateMutability": "view",
      "type": "function"
    },
    {
      "inputs": [],
      "name": "nonceForRand",
      "outputs": [
        {
          "internalType": "uint256",
          "name": "",
          "type": "uint256"
        }
      ],
      "stateMutability": "view",
      "type": "function"
    },
    {
      "inputs": [],
      "name": "owner",
      "outputs": [
        {
          "internalType": "address payable",
          "name": "",
          "type": "address"
        }
      ],
      "stateMutability": "view",
      "type": "function"
    },
    {
      "inputs": [
        {
          "internalType": "address",
          "name": "",
          "type": "address"
        }
      ],
      "name": "ownerToPlayer",
      "outputs": [
        {
          "internalType": "uint16",
          "name": "balance",
          "type": "uint16"
        },
        {
          "internalType": "uint16",
          "name": "round",
          "type": "uint16"
        },
        {
          "internalType": "uint16",
          "name": "cardsOwned",
          "type": "uint16"
        },
        {
          "internalType": "uint16",
          "name": "playerNumber",
          "type": "uint16"
        },
        {
          "internalType": "address",
          "name": "playerAddr",
          "type": "address"
        }
      ],
      "stateMutability": "view",
      "type": "function"
    },
    {
      "inputs": [],
      "name": "startGame",
      "outputs": [
        {
          "internalType": "bool",
          "name": "",
          "type": "bool"
        }
      ],
      "stateMutability": "view",
      "type": "function"
    },
    {
      "inputs": [],
      "name": "totalPlayers",
      "outputs": [
        {
          "internalType": "uint16",
          "name": "",
          "type": "uint16"
        }
      ],
      "stateMutability": "view",
      "type": "function"
    },
    {
      "inputs": [],
      "name": "startTheGame",
      "outputs": [],
      "stateMutability": "nonpayable",
      "type": "function"
    },
    {
      "inputs": [],
      "name": "createPlayer",
      "outputs": [],
      "stateMutability": "nonpayable",
      "type": "function"
    },
    {
      "inputs": [
        {
          "internalType": "uint256",
          "name": "_cardModValue",
          "type": "uint256"
        }
      ],
      "name": "generateCards",
      "outputs": [
        {
          "internalType": "uint256",
          "name": "",
          "type": "uint256"
        }
      ],
      "stateMutability": "nonpayable",
      "type": "function"
    },
    {
      "inputs": [
        {
          "internalType": "uint256",
          "name": "_newCard",
          "type": "uint256"
        }
      ],
      "name": "checkCard",
      "outputs": [
        {
          "internalType": "bool",
          "name": "",
          "type": "bool"
        }
      ],
      "stateMutability": "view",
      "type": "function"
    }
  ],
  "bytecode": "0x608060405260008060006101000a81548161ffff021916908361ffff16021790555060006001556000600260006101000a81548160ff02191690831515021790555061271060035534801561005357600080fd5b5033600460006101000a81548173ffffffffffffffffffffffffffffffffffffffff021916908373ffffffffffffffffffffffffffffffffffffffff16021790555060008060006101000a81548161ffff021916908361ffff160217905550610d40806100c16000396000f3fe608060405234801561001057600080fd5b50600436106100b45760003560e01c806366c7ef3a1161007157806366c7ef3a146101935780638da5cb5b1461019d5780638dc10768146101bb578063d65ab5f2146101eb578063f60cdcf614610209578063ffb976ec14610227576100b4565b806301fb72cf146100b95780631f47390c146100e95780633ca7aac3146101075780633fa9fcf81461013b578063555f8f51146101455780635692776714610175575b600080fd5b6100d360048036038101906100ce91906108f5565b610257565b6040516100e0919061093d565b60405180910390f35b6100f16102d2565b6040516100fe9190610967565b60405180910390f35b610121600480360381019061011c91906109e0565b6102d8565b604051610132959493929190610a39565b60405180910390f35b610143610366565b005b61015f600480360381019061015a91906108f5565b6105f7565b60405161016c9190610967565b60405180910390f35b61017d610694565b60405161018a9190610967565b60405180910390f35b61019b61069a565b005b6101a5610711565b6040516101b29190610aad565b60405180910390f35b6101d560048036038101906101d091906108f5565b610737565b6040516101e29190610967565b60405180910390f35b6101f361075b565b604051610200919061093d565b60405180910390f35b61021161076e565b60405161021e9190610ac8565b60405180910390f35b610241600480360381019061023c91906108f5565b610780565b60405161024e9190610ae3565b60405180910390f35b60008073ffffffffffffffffffffffffffffffffffffffff166006600084815260200190815260200160002060009054906101000a900473ffffffffffffffffffffffffffffffffffffffff1673ffffffffffffffffffffffffffffffffffffffff16146102c857600090506102cd565b600190505b919050565b60035481565b60076020528060005260406000206000915090508060000160009054906101000a900461ffff16908060000160029054906101000a900461ffff16908060000160049054906101000a900461ffff16908060000160069054906101000a900461ffff16908060000160089054906101000a900473ffffffffffffffffffffffffffffffffffffffff16905085565b60001515600260009054906101000a900460ff1615151461038657600080fd5b600073ffffffffffffffffffffffffffffffffffffffff16600760003373ffffffffffffffffffffffffffffffffffffffff1673ffffffffffffffffffffffffffffffffffffffff16815260200190815260200160002060000160089054906101000a900473ffffffffffffffffffffffffffffffffffffffff1673ffffffffffffffffffffffffffffffffffffffff161461042157600080fd5b60016000808282829054906101000a900461ffff166104409190610b2d565b92506101000a81548161ffff021916908361ffff1602179055506040518060a00160405280606461ffff168152602001600161ffff168152602001600061ffff16815260200160008054906101000a900461ffff1661ffff1681526020013373ffffffffffffffffffffffffffffffffffffffff16815250600760003373ffffffffffffffffffffffffffffffffffffffff1673ffffffffffffffffffffffffffffffffffffffff16815260200190815260200160002060008201518160000160006101000a81548161ffff021916908361ffff16021790555060208201518160000160026101000a81548161ffff021916908361ffff16021790555060408201518160000160046101000a81548161ffff021916908361ffff16021790555060608201518160000160066101000a81548161ffff021916908361ffff16021790555060808201518160000160086101000a81548173ffffffffffffffffffffffffffffffffffffffff021916908373ffffffffffffffffffffffffffffffffffffffff16021790555090505060005b60038110156105f4576105e16107b3565b80806105ec90610b65565b9150506105d0565b50565b60005b60011561067d57600082423360015460405160200161061b93929190610c17565b6040516020818303038152906040528051906020012060001c61063e9190610c83565b90506001151561064d82610257565b1515141561065e578091505061068f565b60018060008282546106709190610cb4565b92505081905550506105fa565b8162bc614e61068c9190610c83565b90505b919050565b60015481565b600460009054906101000a900473ffffffffffffffffffffffffffffffffffffffff1673ffffffffffffffffffffffffffffffffffffffff163373ffffffffffffffffffffffffffffffffffffffff16146106f457600080fd5b6001600260006101000a81548160ff021916908315150217905550565b600460009054906101000a900473ffffffffffffffffffffffffffffffffffffffff1681565b6005818154811061074757600080fd5b906000526020600020016000915090505481565b600260009054906101000a900460ff1681565b60008054906101000a900461ffff1681565b60066020528060005260406000206000915054906101000a900473ffffffffffffffffffffffffffffffffffffffff1681565b60006107c06003546105f7565b90506005819080600181540180825580915050600190039060005260206000200160009091909190915055336006600083815260200190815260200160002060006101000a81548173ffffffffffffffffffffffffffffffffffffffff021916908373ffffffffffffffffffffffffffffffffffffffff1602179055506001600760003373ffffffffffffffffffffffffffffffffffffffff1673ffffffffffffffffffffffffffffffffffffffff16815260200190815260200160002060000160048282829054906101000a900461ffff1661089d9190610b2d565b92506101000a81548161ffff021916908361ffff16021790555050565b600080fd5b6000819050919050565b6108d2816108bf565b81146108dd57600080fd5b50565b6000813590506108ef816108c9565b92915050565b60006020828403121561090b5761090a6108ba565b5b6000610919848285016108e0565b91505092915050565b60008115159050919050565b61093781610922565b82525050565b6000602082019050610952600083018461092e565b92915050565b610961816108bf565b82525050565b600060208201905061097c6000830184610958565b92915050565b600073ffffffffffffffffffffffffffffffffffffffff82169050919050565b60006109ad82610982565b9050919050565b6109bd816109a2565b81146109c857600080fd5b50565b6000813590506109da816109b4565b92915050565b6000602082840312156109f6576109f56108ba565b5b6000610a04848285016109cb565b91505092915050565b600061ffff82169050919050565b610a2481610a0d565b82525050565b610a33816109a2565b82525050565b600060a082019050610a4e6000830188610a1b565b610a5b6020830187610a1b565b610a686040830186610a1b565b610a756060830185610a1b565b610a826080830184610a2a565b9695505050505050565b6000610a9782610982565b9050919050565b610aa781610a8c565b82525050565b6000602082019050610ac26000830184610a9e565b92915050565b6000602082019050610add6000830184610a1b565b92915050565b6000602082019050610af86000830184610a2a565b92915050565b7f4e487b7100000000000000000000000000000000000000000000000000000000600052601160045260246000fd5b6000610b3882610a0d565b9150610b4383610a0d565b92508261ffff03821115610b5a57610b59610afe565b5b828201905092915050565b6000610b70826108bf565b91507fffffffffffffffffffffffffffffffffffffffffffffffffffffffffffffffff821415610ba357610ba2610afe565b5b600182019050919050565b6000819050919050565b610bc9610bc4826108bf565b610bae565b82525050565b60008160601b9050919050565b6000610be782610bcf565b9050919050565b6000610bf982610bdc565b9050919050565b610c11610c0c826109a2565b610bee565b82525050565b6000610c238286610bb8565b602082019150610c338285610c00565b601482019150610c438284610bb8565b602082019150819050949350505050565b7f4e487b7100000000000000000000000000000000000000000000000000000000600052601260045260246000fd5b6000610c8e826108bf565b9150610c99836108bf565b925082610ca957610ca8610c54565b5b828206905092915050565b6000610cbf826108bf565b9150610cca836108bf565b9250827fffffffffffffffffffffffffffffffffffffffffffffffffffffffffffffffff03821115610cff57610cfe610afe565b5b82820190509291505056fea26469706673582212208c9aafe914a899cfb9a082527a65cea3793a8cad3253b0edfc1781749ab33dba64736f6c634300080a0033",
  "immutableReferences": {},
  "source": "pragma solidity >=0.6.0;\n\n/*==================================================================\nContains\n-Setting Players\n-Setting Variables\n-Initialization\nFunctionality \n==================================================================*/\n\ncontract initializeGame {\n    //--------------------Variables----------------------\n\n    //totalPlayer increments only when new players added\n    uint16 public totalPlayers = 0;\n    uint256 public nonceForRand = 0;\n    bool public startGame = false;\n\n    /*first 2 numbers identify the card Type \n    (e.g if its 01 it will be a +1 point card)\n    */\n\n    uint256 public cardModValue = 10000;\n    address payable public owner;\n\n    struct Player {\n        uint16 balance;\n        uint16 round; //Makes sure everyone is on the same round\n        uint16 cardsOwned;\n        uint16 playerNumber;\n        address playerAddr;\n    }\n\n    // Player[] public players;\n\n    /*=========================================\n    Owner = Address\n    Player = Address structure with player information\n    cards = all the cards generated\n    ============================================*/\n\n    //=====================MAIN STORAGE==========================\n    uint256[] public cards;\n    mapping(uint256 => address) public cardToOwner;\n    mapping(address => Player) public ownerToPlayer;\n    //=====================MAIN STORAGE==========================\n\n    /*\n    Will call player according to id\n    planning on opening a new tab for each player\n    */\n\n    modifier onlyOwnerAllowed() {\n        require(msg.sender == owner);\n        _;\n    }\n\n    //--------------------Functions----------------------\n    constructor() {\n        owner = payable(msg.sender);\n        totalPlayers = 0;\n    }\n\n    function startTheGame() public onlyOwnerAllowed {\n        startGame = true;\n    }\n\n    //Will add a player into the game\n\n    function createPlayer() public {\n        require(startGame == false);\n        require(ownerToPlayer[msg.sender].playerAddr == address(0));\n        totalPlayers += 1; //Increments total players\n\n        ownerToPlayer[msg.sender] = Player(\n            100,\n            1,\n            0,\n            totalPlayers,\n            address(msg.sender)\n        );\n        //create 3 cards for the user to start with\n        for (uint256 i = 0; i < 3; i++) {\n            addCard();\n        }\n    }\n\n    //ADDS CARD TO LIST\n    function addCard() internal {\n        uint256 _newCard = generateCards(cardModValue);\n        cards.push(_newCard); //Creates one card for player to start with\n        cardToOwner[_newCard] = msg.sender; //Assigns currentPlayer as the owner of card\n        ownerToPlayer[msg.sender].cardsOwned += 1;\n    }\n\n    //used to Generate Cards for the game\n\n    function generateCards(uint256 _cardModValue) public returns (uint256) {\n        while (true) {\n            uint256 newCard = uint256(\n                keccak256(\n                    abi.encodePacked(block.timestamp, msg.sender, nonceForRand)\n                )\n            ) % _cardModValue;\n\n            //9560\n            //9300\n\n            if (checkCard(newCard) == true) {\n                return newCard;\n            }\n            nonceForRand += 1;\n        }\n        return 12345678 % _cardModValue;\n    }\n\n    function checkCard(uint256 _newCard) public view returns (bool) {\n        //check if key exists thn false\n        if (cardToOwner[_newCard] != address(0)) {\n            //means that it exists\n            return false;\n        }\n        return true;\n    }\n}\n",
  "sourcePath": "/Users/saadbazaz/Documents/FAST Studies/Introduction to Blockchain and Cryptocurrency/Project/FastCards/truffle/contracts/initializeGame.sol",
  "compiler": {
    "name": "solc",
    "version": "0.8.10+commit.fc410830.Emscripten.clang"
  },
  "schemaVersion": "3.4.3",
  "updatedAt": "2021-12-20T15:06:07.207Z",
  "devdoc": {
    "kind": "dev",
    "methods": {},
    "version": 1
  },
  "userdoc": {
    "kind": "user",
    "methods": {},
    "version": 1
  }
}