{
  "contractName": "initializeGame",
  "abi": [
    {
      "inputs": [],
      "stateMutability": "nonpayable",
      "type": "constructor"
    },
    {
      "inputs": [],
      "name": "cardModValue",
      "outputs": [
        {
          "internalType": "uint256",
          "name": "",
          "type": "uint256"
        }
      ],
      "stateMutability": "view",
      "type": "function"
    },
    {
      "inputs": [
        {
          "internalType": "uint256",
          "name": "",
          "type": "uint256"
        }
      ],
      "name": "cardToOwner",
      "outputs": [
        {
          "internalType": "address",
          "name": "",
          "type": "address"
        }
      ],
      "stateMutability": "view",
      "type": "function"
    },
    {
      "inputs": [
        {
          "internalType": "uint256",
          "name": "",
          "type": "uint256"
        }
      ],
      "name": "cards",
      "outputs": [
        {
          "internalType": "uint256",
          "name": "",
          "type": "uint256"
        }
      ],
      "stateMutability": "view",
      "type": "function"
    },
    {
      "inputs": [],
      "name": "nonceForRand",
      "outputs": [
        {
          "internalType": "uint256",
          "name": "",
          "type": "uint256"
        }
      ],
      "stateMutability": "view",
      "type": "function"
    },
    {
      "inputs": [],
      "name": "owner",
      "outputs": [
        {
          "internalType": "address payable",
          "name": "",
          "type": "address"
        }
      ],
      "stateMutability": "view",
      "type": "function"
    },
    {
      "inputs": [
        {
          "internalType": "address",
          "name": "",
          "type": "address"
        }
      ],
      "name": "ownerToPlayer",
      "outputs": [
        {
          "internalType": "uint16",
          "name": "balance",
          "type": "uint16"
        },
        {
          "internalType": "uint16",
          "name": "round",
          "type": "uint16"
        },
        {
          "internalType": "uint16",
          "name": "cardsOwned",
          "type": "uint16"
        },
        {
          "internalType": "uint16",
          "name": "playerNumber",
          "type": "uint16"
        },
        {
          "internalType": "address",
          "name": "playerAddr",
          "type": "address"
        }
      ],
      "stateMutability": "view",
      "type": "function"
    },
    {
      "inputs": [],
      "name": "startGame",
      "outputs": [
        {
          "internalType": "bool",
          "name": "",
          "type": "bool"
        }
      ],
      "stateMutability": "view",
      "type": "function"
    },
    {
      "inputs": [],
      "name": "totalPlayers",
      "outputs": [
        {
          "internalType": "uint16",
          "name": "",
          "type": "uint16"
        }
      ],
      "stateMutability": "view",
      "type": "function"
    },
    {
      "inputs": [],
      "name": "startTheGame",
      "outputs": [],
      "stateMutability": "nonpayable",
      "type": "function"
    },
    {
      "inputs": [],
      "name": "createPlayer",
      "outputs": [],
      "stateMutability": "nonpayable",
      "type": "function"
    },
    {
      "inputs": [
        {
          "internalType": "uint256",
          "name": "_cardModValue",
          "type": "uint256"
        }
      ],
      "name": "generateCards",
      "outputs": [
        {
          "internalType": "uint256",
          "name": "",
          "type": "uint256"
        }
      ],
      "stateMutability": "nonpayable",
      "type": "function"
    },
    {
      "inputs": [
        {
          "internalType": "uint256",
          "name": "_newCard",
          "type": "uint256"
        }
      ],
      "name": "checkCard",
      "outputs": [
        {
          "internalType": "bool",
          "name": "",
          "type": "bool"
        }
      ],
      "stateMutability": "view",
      "type": "function"
    }
  ],
  "bytecode": "0x608060405260008060006101000a81548161ffff021916908361ffff16021790555060006001556000600260006101000a81548160ff02191690831515021790555061271060035534801561005357600080fd5b5033600460006101000a81548173ffffffffffffffffffffffffffffffffffffffff021916908373ffffffffffffffffffffffffffffffffffffffff16021790555060008060006101000a81548161ffff021916908361ffff160217905550610ca5806100c16000396000f3fe608060405234801561001057600080fd5b50600436106100b45760003560e01c806366c7ef3a1161007157806366c7ef3a146101935780638da5cb5b1461019d5780638dc10768146101bb578063d65ab5f2146101eb578063f60cdcf614610209578063ffb976ec14610227576100b4565b806301fb72cf146100b95780631f47390c146100e95780633ca7aac3146101075780633fa9fcf81461013b578063555f8f51146101455780635692776714610175575b600080fd5b6100d360048036038101906100ce919061085a565b610257565b6040516100e091906108a2565b60405180910390f35b6100f16102d2565b6040516100fe91906108cc565b60405180910390f35b610121600480360381019061011c9190610945565b6102d8565b60405161013295949392919061099e565b60405180910390f35b610143610366565b005b61015f600480360381019061015a919061085a565b61055c565b60405161016c91906108cc565b60405180910390f35b61017d6105f9565b60405161018a91906108cc565b60405180910390f35b61019b6105ff565b005b6101a5610676565b6040516101b29190610a12565b60405180910390f35b6101d560048036038101906101d0919061085a565b61069c565b6040516101e291906108cc565b60405180910390f35b6101f36106c0565b60405161020091906108a2565b60405180910390f35b6102116106d3565b60405161021e9190610a2d565b60405180910390f35b610241600480360381019061023c919061085a565b6106e5565b60405161024e9190610a48565b60405180910390f35b60008073ffffffffffffffffffffffffffffffffffffffff166006600084815260200190815260200160002060009054906101000a900473ffffffffffffffffffffffffffffffffffffffff1673ffffffffffffffffffffffffffffffffffffffff16146102c857600090506102cd565b600190505b919050565b60035481565b60076020528060005260406000206000915090508060000160009054906101000a900461ffff16908060000160029054906101000a900461ffff16908060000160049054906101000a900461ffff16908060000160069054906101000a900461ffff16908060000160089054906101000a900473ffffffffffffffffffffffffffffffffffffffff16905085565b60001515600260009054906101000a900460ff1615151461038657600080fd5b60016000808282829054906101000a900461ffff166103a59190610a92565b92506101000a81548161ffff021916908361ffff1602179055506040518060a00160405280606461ffff168152602001600161ffff168152602001600061ffff16815260200160008054906101000a900461ffff1661ffff1681526020013373ffffffffffffffffffffffffffffffffffffffff16815250600760003373ffffffffffffffffffffffffffffffffffffffff1673ffffffffffffffffffffffffffffffffffffffff16815260200190815260200160002060008201518160000160006101000a81548161ffff021916908361ffff16021790555060208201518160000160026101000a81548161ffff021916908361ffff16021790555060408201518160000160046101000a81548161ffff021916908361ffff16021790555060608201518160000160066101000a81548161ffff021916908361ffff16021790555060808201518160000160086101000a81548173ffffffffffffffffffffffffffffffffffffffff021916908373ffffffffffffffffffffffffffffffffffffffff16021790555090505060005b600381101561055957610546610718565b808061055190610aca565b915050610535565b50565b60005b6001156105e257600082423360015460405160200161058093929190610b7c565b6040516020818303038152906040528051906020012060001c6105a39190610be8565b9050600115156105b282610257565b151514156105c357809150506105f4565b60018060008282546105d59190610c19565b925050819055505061055f565b8162bc614e6105f19190610be8565b90505b919050565b60015481565b600460009054906101000a900473ffffffffffffffffffffffffffffffffffffffff1673ffffffffffffffffffffffffffffffffffffffff163373ffffffffffffffffffffffffffffffffffffffff161461065957600080fd5b6001600260006101000a81548160ff021916908315150217905550565b600460009054906101000a900473ffffffffffffffffffffffffffffffffffffffff1681565b600581815481106106ac57600080fd5b906000526020600020016000915090505481565b600260009054906101000a900460ff1681565b60008054906101000a900461ffff1681565b60066020528060005260406000206000915054906101000a900473ffffffffffffffffffffffffffffffffffffffff1681565b600061072560035461055c565b90506005819080600181540180825580915050600190039060005260206000200160009091909190915055336006600083815260200190815260200160002060006101000a81548173ffffffffffffffffffffffffffffffffffffffff021916908373ffffffffffffffffffffffffffffffffffffffff1602179055506001600760003373ffffffffffffffffffffffffffffffffffffffff1673ffffffffffffffffffffffffffffffffffffffff16815260200190815260200160002060000160048282829054906101000a900461ffff166108029190610a92565b92506101000a81548161ffff021916908361ffff16021790555050565b600080fd5b6000819050919050565b61083781610824565b811461084257600080fd5b50565b6000813590506108548161082e565b92915050565b6000602082840312156108705761086f61081f565b5b600061087e84828501610845565b91505092915050565b60008115159050919050565b61089c81610887565b82525050565b60006020820190506108b76000830184610893565b92915050565b6108c681610824565b82525050565b60006020820190506108e160008301846108bd565b92915050565b600073ffffffffffffffffffffffffffffffffffffffff82169050919050565b6000610912826108e7565b9050919050565b61092281610907565b811461092d57600080fd5b50565b60008135905061093f81610919565b92915050565b60006020828403121561095b5761095a61081f565b5b600061096984828501610930565b91505092915050565b600061ffff82169050919050565b61098981610972565b82525050565b61099881610907565b82525050565b600060a0820190506109b36000830188610980565b6109c06020830187610980565b6109cd6040830186610980565b6109da6060830185610980565b6109e7608083018461098f565b9695505050505050565b60006109fc826108e7565b9050919050565b610a0c816109f1565b82525050565b6000602082019050610a276000830184610a03565b92915050565b6000602082019050610a426000830184610980565b92915050565b6000602082019050610a5d600083018461098f565b92915050565b7f4e487b7100000000000000000000000000000000000000000000000000000000600052601160045260246000fd5b6000610a9d82610972565b9150610aa883610972565b92508261ffff03821115610abf57610abe610a63565b5b828201905092915050565b6000610ad582610824565b91507fffffffffffffffffffffffffffffffffffffffffffffffffffffffffffffffff821415610b0857610b07610a63565b5b600182019050919050565b6000819050919050565b610b2e610b2982610824565b610b13565b82525050565b60008160601b9050919050565b6000610b4c82610b34565b9050919050565b6000610b5e82610b41565b9050919050565b610b76610b7182610907565b610b53565b82525050565b6000610b888286610b1d565b602082019150610b988285610b65565b601482019150610ba88284610b1d565b602082019150819050949350505050565b7f4e487b7100000000000000000000000000000000000000000000000000000000600052601260045260246000fd5b6000610bf382610824565b9150610bfe83610824565b925082610c0e57610c0d610bb9565b5b828206905092915050565b6000610c2482610824565b9150610c2f83610824565b9250827fffffffffffffffffffffffffffffffffffffffffffffffffffffffffffffffff03821115610c6457610c63610a63565b5b82820190509291505056fea264697066735822122080934f9dd5b08dfc700a61f45d64bc1a511c2bc05a7a2e174e043d4b9f6c2edf64736f6c634300080a0033",
  "immutableReferences": {},
  "source": "pragma solidity >=0.6.0;\r\n\r\n/*==================================================================\r\nContains\r\n-Setting Players\r\n-Setting Variables\r\n-Initialization\r\nFunctionality \r\n==================================================================*/\r\n\r\ncontract initializeGame {\r\n    //--------------------Variables----------------------\r\n\r\n    //totalPlayer increments only when new players added\r\n    uint16 public totalPlayers = 0;\r\n    uint256 public nonceForRand = 0;\r\n    bool public startGame = false;\r\n\r\n    /*first 2 numbers identify the card Type \r\n    (e.g if its 01 it will be a +1 point card)\r\n    */\r\n\r\n    uint256 public cardModValue = 10000;\r\n    address payable public owner;\r\n\r\n    struct Player {\r\n        uint16 balance;\r\n        uint16 round; //Makes sure everyone is on the same round\r\n        uint16 cardsOwned;\r\n        uint16 playerNumber;\r\n        address playerAddr;\r\n    }\r\n\r\n    // Player[] public players;\r\n\r\n    /*=========================================\r\n    Owner = Address\r\n    Player = Address structure with player information\r\n    cards = all the cards generated\r\n    ============================================*/\r\n\r\n    //=====================MAIN STORAGE==========================\r\n    uint256[] public cards;\r\n    mapping(uint256 => address) public cardToOwner;\r\n    mapping(address => Player) public ownerToPlayer;\r\n    //=====================MAIN STORAGE==========================\r\n\r\n    /*\r\n    Will call player according to id\r\n    planning on opening a new tab for each player\r\n    */\r\n\r\n    modifier onlyOwnerAllowed() {\r\n        require(msg.sender == owner);\r\n        _;\r\n    }\r\n\r\n    //--------------------Functions----------------------\r\n    constructor() {\r\n        owner = payable(msg.sender);\r\n        totalPlayers = 0;\r\n    }\r\n\r\n    function startTheGame() public onlyOwnerAllowed {\r\n        startGame = true;\r\n    }\r\n\r\n    //Will add a player into the game\r\n\r\n    function createPlayer() public {\r\n        require(startGame == false);\r\n        totalPlayers += 1; //Increments total players\r\n\r\n        ownerToPlayer[msg.sender] = Player(\r\n            100,\r\n            1,\r\n            0,\r\n            totalPlayers,\r\n            address(msg.sender)\r\n        );\r\n        //create 3 cards for the user to start with\r\n        for (uint256 i = 0; i < 3; i++) {\r\n            addCard();\r\n        }\r\n    }\r\n\r\n    //ADDS CARD TO LIST\r\n    function addCard() internal {\r\n        uint256 _newCard = generateCards(cardModValue);\r\n        cards.push(_newCard); //Creates one card for player to start with\r\n        cardToOwner[_newCard] = msg.sender; //Assigns currentPlayer as the owner of card\r\n        ownerToPlayer[msg.sender].cardsOwned += 1;\r\n    }\r\n\r\n    //used to Generate Cards for the game\r\n\r\n    function generateCards(uint256 _cardModValue) public returns (uint256) {\r\n        while (true) {\r\n            uint256 newCard = uint256(\r\n                keccak256(\r\n                    abi.encodePacked(block.timestamp, msg.sender, nonceForRand)\r\n                )\r\n            ) % _cardModValue;\r\n\r\n            //9560\r\n            //9300\r\n\r\n            if (checkCard(newCard) == true) {\r\n                return newCard;\r\n            }\r\n            nonceForRand += 1;\r\n        }\r\n        return 12345678 % _cardModValue;\r\n    }\r\n\r\n    function checkCard(uint256 _newCard) public view returns (bool) {\r\n        //check if key exists thn false\r\n        if (cardToOwner[_newCard] != address(0)) {\r\n            //means that it exists\r\n            return false;\r\n        }\r\n        return true;\r\n    }\r\n}\r\n",
  "sourcePath": "E:\\ProgrammingStuff\\BlockChain\\truffle\\Projects\\FastCards\\truffle\\contracts\\initializeGame.sol",
  "compiler": {
    "name": "solc",
    "version": "0.8.10+commit.fc410830.Emscripten.clang"
  },
  "schemaVersion": "3.4.3",
  "updatedAt": "2021-12-19T23:02:37.014Z",
  "devdoc": {
    "kind": "dev",
    "methods": {},
    "version": 1
  },
  "userdoc": {
    "kind": "user",
    "methods": {},
    "version": 1
  }
}