{
  "contractName": "tradeGame",
  "abi": [
    {
      "inputs": [],
      "name": "cardModValue",
      "outputs": [
        {
          "internalType": "uint256",
          "name": "",
          "type": "uint256"
        }
      ],
      "stateMutability": "view",
      "type": "function"
    },
    {
      "inputs": [
        {
          "internalType": "uint256",
          "name": "_card",
          "type": "uint256"
        }
      ],
      "name": "cardOwner",
      "outputs": [
        {
          "internalType": "address",
          "name": "",
          "type": "address"
        }
      ],
      "stateMutability": "view",
      "type": "function"
    },
    {
      "inputs": [
        {
          "internalType": "uint256",
          "name": "",
          "type": "uint256"
        }
      ],
      "name": "cardToOwner",
      "outputs": [
        {
          "internalType": "address",
          "name": "",
          "type": "address"
        }
      ],
      "stateMutability": "view",
      "type": "function"
    },
    {
      "inputs": [
        {
          "internalType": "uint256",
          "name": "",
          "type": "uint256"
        }
      ],
      "name": "cards",
      "outputs": [
        {
          "internalType": "uint256",
          "name": "",
          "type": "uint256"
        }
      ],
      "stateMutability": "view",
      "type": "function"
    },
    {
      "inputs": [
        {
          "internalType": "uint256",
          "name": "_newCard",
          "type": "uint256"
        }
      ],
      "name": "checkCard",
      "outputs": [
        {
          "internalType": "bool",
          "name": "",
          "type": "bool"
        }
      ],
      "stateMutability": "view",
      "type": "function"
    },
    {
      "inputs": [],
      "name": "createPlayer",
      "outputs": [],
      "stateMutability": "nonpayable",
      "type": "function"
    },
    {
      "inputs": [],
      "name": "currentRound",
      "outputs": [
        {
          "internalType": "uint256",
          "name": "",
          "type": "uint256"
        }
      ],
      "stateMutability": "view",
      "type": "function"
    },
    {
      "inputs": [
        {
          "internalType": "uint256",
          "name": "_cardModValue",
          "type": "uint256"
        }
      ],
      "name": "generateCards",
      "outputs": [
        {
          "internalType": "uint256",
          "name": "",
          "type": "uint256"
        }
      ],
      "stateMutability": "nonpayable",
      "type": "function"
    },
    {
      "inputs": [],
      "name": "nonceForRand",
      "outputs": [
        {
          "internalType": "uint256",
          "name": "",
          "type": "uint256"
        }
      ],
      "stateMutability": "view",
      "type": "function"
    },
    {
      "inputs": [],
      "name": "owner",
      "outputs": [
        {
          "internalType": "address payable",
          "name": "",
          "type": "address"
        }
      ],
      "stateMutability": "view",
      "type": "function"
    },
    {
      "inputs": [
        {
          "internalType": "address",
          "name": "",
          "type": "address"
        }
      ],
      "name": "ownerToPlayer",
      "outputs": [
        {
          "internalType": "uint16",
          "name": "balance",
          "type": "uint16"
        },
        {
          "internalType": "uint16",
          "name": "round",
          "type": "uint16"
        },
        {
          "internalType": "uint16",
          "name": "cardsOwned",
          "type": "uint16"
        },
        {
          "internalType": "uint16",
          "name": "playerNumber",
          "type": "uint16"
        },
        {
          "internalType": "address",
          "name": "playerAddr",
          "type": "address"
        }
      ],
      "stateMutability": "view",
      "type": "function"
    },
    {
      "inputs": [
        {
          "internalType": "address",
          "name": "",
          "type": "address"
        }
      ],
      "name": "ownerToTrade",
      "outputs": [
        {
          "internalType": "uint16",
          "name": "ownerOffer",
          "type": "uint16"
        },
        {
          "internalType": "uint16",
          "name": "ownerCard",
          "type": "uint16"
        },
        {
          "internalType": "uint16",
          "name": "buyerOffer",
          "type": "uint16"
        },
        {
          "internalType": "uint16",
          "name": "buyerCard",
          "type": "uint16"
        },
        {
          "internalType": "uint16",
          "name": "index",
          "type": "uint16"
        },
        {
          "internalType": "bool",
          "name": "tradeComplete",
          "type": "bool"
        },
        {
          "internalType": "bool",
          "name": "tradeAvailable",
          "type": "bool"
        },
        {
          "internalType": "address",
          "name": "ownerAddr",
          "type": "address"
        },
        {
          "internalType": "address",
          "name": "buyerAddr",
          "type": "address"
        }
      ],
      "stateMutability": "view",
      "type": "function"
    },
    {
      "inputs": [],
      "name": "playerTurnsDone",
      "outputs": [
        {
          "internalType": "uint256",
          "name": "",
          "type": "uint256"
        }
      ],
      "stateMutability": "view",
      "type": "function"
    },
    {
      "inputs": [],
      "name": "playerWon",
      "outputs": [
        {
          "internalType": "address",
          "name": "",
          "type": "address"
        }
      ],
      "stateMutability": "view",
      "type": "function"
    },
    {
      "inputs": [],
      "name": "randomCard",
      "outputs": [],
      "stateMutability": "nonpayable",
      "type": "function"
    },
    {
      "inputs": [],
      "name": "randomCost",
      "outputs": [
        {
          "internalType": "uint16",
          "name": "",
          "type": "uint16"
        }
      ],
      "stateMutability": "view",
      "type": "function"
    },
    {
      "inputs": [],
      "name": "retCards",
      "outputs": [
        {
          "internalType": "uint256[]",
          "name": "",
          "type": "uint256[]"
        }
      ],
      "stateMutability": "view",
      "type": "function"
    },
    {
      "inputs": [],
      "name": "retCurrentRound",
      "outputs": [
        {
          "internalType": "uint256",
          "name": "",
          "type": "uint256"
        }
      ],
      "stateMutability": "view",
      "type": "function"
    },
    {
      "inputs": [],
      "name": "retPlayer",
      "outputs": [
        {
          "components": [
            {
              "internalType": "uint16",
              "name": "balance",
              "type": "uint16"
            },
            {
              "internalType": "uint16",
              "name": "round",
              "type": "uint16"
            },
            {
              "internalType": "uint16",
              "name": "cardsOwned",
              "type": "uint16"
            },
            {
              "internalType": "uint16",
              "name": "playerNumber",
              "type": "uint16"
            },
            {
              "internalType": "address",
              "name": "playerAddr",
              "type": "address"
            }
          ],
          "internalType": "struct initializeGame.Player",
          "name": "",
          "type": "tuple"
        }
      ],
      "stateMutability": "view",
      "type": "function"
    },
    {
      "inputs": [],
      "name": "retPlayerCards",
      "outputs": [
        {
          "internalType": "uint256[]",
          "name": "",
          "type": "uint256[]"
        }
      ],
      "stateMutability": "view",
      "type": "function"
    },
    {
      "inputs": [],
      "name": "retPlayerScore",
      "outputs": [
        {
          "internalType": "uint256",
          "name": "",
          "type": "uint256"
        }
      ],
      "stateMutability": "view",
      "type": "function"
    },
    {
      "inputs": [],
      "name": "retPlayerTurnsDone",
      "outputs": [
        {
          "internalType": "uint256",
          "name": "",
          "type": "uint256"
        }
      ],
      "stateMutability": "view",
      "type": "function"
    },
    {
      "inputs": [],
      "name": "startGame",
      "outputs": [
        {
          "internalType": "bool",
          "name": "",
          "type": "bool"
        }
      ],
      "stateMutability": "view",
      "type": "function"
    },
    {
      "inputs": [],
      "name": "startTheGame",
      "outputs": [],
      "stateMutability": "nonpayable",
      "type": "function"
    },
    {
      "inputs": [],
      "name": "totalPlayers",
      "outputs": [
        {
          "internalType": "uint16",
          "name": "",
          "type": "uint16"
        }
      ],
      "stateMutability": "view",
      "type": "function"
    },
    {
      "inputs": [
        {
          "internalType": "uint256",
          "name": "",
          "type": "uint256"
        }
      ],
      "name": "trades",
      "outputs": [
        {
          "internalType": "uint16",
          "name": "ownerOffer",
          "type": "uint16"
        },
        {
          "internalType": "uint16",
          "name": "ownerCard",
          "type": "uint16"
        },
        {
          "internalType": "uint16",
          "name": "buyerOffer",
          "type": "uint16"
        },
        {
          "internalType": "uint16",
          "name": "buyerCard",
          "type": "uint16"
        },
        {
          "internalType": "uint16",
          "name": "index",
          "type": "uint16"
        },
        {
          "internalType": "bool",
          "name": "tradeComplete",
          "type": "bool"
        },
        {
          "internalType": "bool",
          "name": "tradeAvailable",
          "type": "bool"
        },
        {
          "internalType": "address",
          "name": "ownerAddr",
          "type": "address"
        },
        {
          "internalType": "address",
          "name": "buyerAddr",
          "type": "address"
        }
      ],
      "stateMutability": "view",
      "type": "function"
    },
    {
      "inputs": [
        {
          "internalType": "uint16",
          "name": "_ownerOffer",
          "type": "uint16"
        },
        {
          "internalType": "uint16",
          "name": "_ownerCard",
          "type": "uint16"
        }
      ],
      "name": "startTrade",
      "outputs": [],
      "stateMutability": "nonpayable",
      "type": "function"
    },
    {
      "inputs": [
        {
          "internalType": "address",
          "name": "_ownerAddr",
          "type": "address"
        }
      ],
      "name": "retTradeAddr",
      "outputs": [
        {
          "components": [
            {
              "internalType": "uint16",
              "name": "ownerOffer",
              "type": "uint16"
            },
            {
              "internalType": "uint16",
              "name": "ownerCard",
              "type": "uint16"
            },
            {
              "internalType": "uint16",
              "name": "buyerOffer",
              "type": "uint16"
            },
            {
              "internalType": "uint16",
              "name": "buyerCard",
              "type": "uint16"
            },
            {
              "internalType": "uint16",
              "name": "index",
              "type": "uint16"
            },
            {
              "internalType": "bool",
              "name": "tradeComplete",
              "type": "bool"
            },
            {
              "internalType": "bool",
              "name": "tradeAvailable",
              "type": "bool"
            },
            {
              "internalType": "address",
              "name": "ownerAddr",
              "type": "address"
            },
            {
              "internalType": "address",
              "name": "buyerAddr",
              "type": "address"
            }
          ],
          "internalType": "struct tradeGame.tradeCard",
          "name": "",
          "type": "tuple"
        }
      ],
      "stateMutability": "view",
      "type": "function"
    },
    {
      "inputs": [],
      "name": "retTrade",
      "outputs": [
        {
          "components": [
            {
              "internalType": "uint16",
              "name": "ownerOffer",
              "type": "uint16"
            },
            {
              "internalType": "uint16",
              "name": "ownerCard",
              "type": "uint16"
            },
            {
              "internalType": "uint16",
              "name": "buyerOffer",
              "type": "uint16"
            },
            {
              "internalType": "uint16",
              "name": "buyerCard",
              "type": "uint16"
            },
            {
              "internalType": "uint16",
              "name": "index",
              "type": "uint16"
            },
            {
              "internalType": "bool",
              "name": "tradeComplete",
              "type": "bool"
            },
            {
              "internalType": "bool",
              "name": "tradeAvailable",
              "type": "bool"
            },
            {
              "internalType": "address",
              "name": "ownerAddr",
              "type": "address"
            },
            {
              "internalType": "address",
              "name": "buyerAddr",
              "type": "address"
            }
          ],
          "internalType": "struct tradeGame.tradeCard",
          "name": "",
          "type": "tuple"
        }
      ],
      "stateMutability": "view",
      "type": "function"
    },
    {
      "inputs": [],
      "name": "retAllTrades",
      "outputs": [
        {
          "components": [
            {
              "internalType": "uint16",
              "name": "ownerOffer",
              "type": "uint16"
            },
            {
              "internalType": "uint16",
              "name": "ownerCard",
              "type": "uint16"
            },
            {
              "internalType": "uint16",
              "name": "buyerOffer",
              "type": "uint16"
            },
            {
              "internalType": "uint16",
              "name": "buyerCard",
              "type": "uint16"
            },
            {
              "internalType": "uint16",
              "name": "index",
              "type": "uint16"
            },
            {
              "internalType": "bool",
              "name": "tradeComplete",
              "type": "bool"
            },
            {
              "internalType": "bool",
              "name": "tradeAvailable",
              "type": "bool"
            },
            {
              "internalType": "address",
              "name": "ownerAddr",
              "type": "address"
            },
            {
              "internalType": "address",
              "name": "buyerAddr",
              "type": "address"
            }
          ],
          "internalType": "struct tradeGame.tradeCard[]",
          "name": "",
          "type": "tuple[]"
        }
      ],
      "stateMutability": "view",
      "type": "function"
    },
    {
      "inputs": [
        {
          "internalType": "uint16",
          "name": "_buyerOffer",
          "type": "uint16"
        },
        {
          "internalType": "uint16",
          "name": "_buyerCard",
          "type": "uint16"
        },
        {
          "internalType": "uint256",
          "name": "index",
          "type": "uint256"
        }
      ],
      "name": "offerTrade",
      "outputs": [],
      "stateMutability": "nonpayable",
      "type": "function"
    },
    {
      "inputs": [
        {
          "internalType": "bool",
          "name": "_tradeConfirm",
          "type": "bool"
        }
      ],
      "name": "tradeComplete",
      "outputs": [],
      "stateMutability": "nonpayable",
      "type": "function"
    }
  ],
  "bytecode": "0x608060405260008060006101000a81548161ffff021916908361ffff16021790555060006001556000600260006101000a81548160ff02191690831515021790555061271060035560016008556000600955600a8060006101000a81548161ffff021916908361ffff1602179055506000600a60026101000a81548173ffffffffffffffffffffffffffffffffffffffff021916908373ffffffffffffffffffffffffffffffffffffffff1602179055506000600b553480156100c157600080fd5b5033600460006101000a81548173ffffffffffffffffffffffffffffffffffffffff021916908373ffffffffffffffffffffffffffffffffffffffff16021790555060008060006101000a81548161ffff021916908361ffff1602179055506144918061012f6000396000f3fe608060405234801561001057600080fd5b50600436106101f05760003560e01c80638da5cb5b1161010f578063d65ab5f2116100a2578063ef75dff911610071578063ef75dff914610585578063f60cdcf6146105bd578063fb4cdcf0146105db578063ffb976ec146105f9576101f0565b8063d65ab5f21461050d578063e4fda6361461052b578063ee42179414610549578063ef034d8a14610567576101f0565b8063a7def311116100de578063a7def3111461049b578063aa467ed2146104b7578063ac89fa63146104d3578063b401f22114610503576101f0565b80638da5cb5b146104115780638dc107681461042f5780639f3c9c971461045f578063a61135511461047d576101f0565b80633fb876cc1161018757806362e925c01161015657806362e925c01461039b57806366c7ef3a146103cb5780636e3afc1d146103d55780638a19c8bc146103f3576101f0565b80633fb876cc14610313578063555f8f51146103315780635692776714610361578063604c528d1461037f576101f0565b806327d978cf116101c357806327d978cf146102995780632c9984da146102b75780633ca7aac3146102d55780633fa9fcf814610309576101f0565b806301fb72cf146101f55780631b95ba76146102255780631e6c598e146102435780631f47390c1461027b575b600080fd5b61020f600480360381019061020a91906139ef565b610629565b60405161021c9190613a37565b60405180910390f35b61022d6106a4565b60405161023a9190613a61565b60405180910390f35b61025d600480360381019061025891906139ef565b6106ae565b60405161027299989796959493929190613ada565b60405180910390f35b6102836107ac565b6040516102909190613a61565b60405180910390f35b6102a16107b2565b6040516102ae9190613a61565b60405180910390f35b6102bf610935565b6040516102cc9190613a61565b60405180910390f35b6102ef60048036038101906102ea9190613b93565b61093f565b604051610300959493929190613bc0565b60405180910390f35b6103116109cd565b005b61031b610c5e565b6040516103289190613cd1565b60405180910390f35b61034b600480360381019061034691906139ef565b610cb6565b6040516103589190613a61565b60405180910390f35b610369610d53565b6040516103769190613a61565b60405180910390f35b61039960048036038101906103949190613d1f565b610d59565b005b6103b560048036038101906103b09190613b93565b6114aa565b6040516103c29190613e43565b60405180910390f35b6103d3611720565b005b6103dd611797565b6040516103ea9190613ec7565b60405180910390f35b6103fb6118c4565b6040516104089190613a61565b60405180910390f35b6104196118ca565b6040516104269190613f03565b60405180910390f35b610449600480360381019061044491906139ef565b6118f0565b6040516104569190613a61565b60405180910390f35b610467611914565b6040516104749190613cd1565b60405180910390f35b610485611a71565b6040516104929190614085565b60405180910390f35b6104b560048036038101906104b091906140d3565b611c53565b005b6104d160048036038101906104cc9190614100565b612a36565b005b6104ed60048036038101906104e891906139ef565b612e6f565b6040516104fa9190614153565b60405180910390f35b61050b612eac565b005b6105156130f3565b6040516105229190613a37565b60405180910390f35b610533613106565b604051610540919061416e565b60405180910390f35b61055161311a565b60405161055e9190613a61565b60405180910390f35b61056f613120565b60405161057c9190614153565b60405180910390f35b61059f600480360381019061059a9190613b93565b613146565b6040516105b499989796959493929190613ada565b60405180910390f35b6105c5613234565b6040516105d2919061416e565b60405180910390f35b6105e3613246565b6040516105f09190613e43565b60405180910390f35b610613600480360381019061060e91906139ef565b6134ba565b6040516106209190614153565b60405180910390f35b60008073ffffffffffffffffffffffffffffffffffffffff166006600084815260200190815260200160002060009054906101000a900473ffffffffffffffffffffffffffffffffffffffff1673ffffffffffffffffffffffffffffffffffffffff161461069a576000905061069f565b600190505b919050565b6000600954905090565b600c81815481106106be57600080fd5b90600052602060002090600202016000915090508060000160009054906101000a900461ffff16908060000160029054906101000a900461ffff16908060000160049054906101000a900461ffff16908060000160069054906101000a900461ffff16908060000160089054906101000a900461ffff169080600001600a9054906101000a900460ff169080600001600b9054906101000a900460ff169080600001600c9054906101000a900473ffffffffffffffffffffffffffffffffffffffff16908060010160009054906101000a900473ffffffffffffffffffffffffffffffffffffffff16905089565b60035481565b6000806107bd611797565b6040015161ffff1667ffffffffffffffff8111156107de576107dd614189565b5b60405190808252806020026020018201604052801561080c5781602001602082028036833780820191505090505b509050610817611914565b90506000805b825181101561092c576103e883828151811061083c5761083b6141b8565b5b6020026020010151101561085e57600a826108579190614216565b9150610919565b611388838281518110610874576108736141b8565b5b602002602001015110156108965760058261088f919061424a565b9150610918565b611b588382815181106108ac576108ab6141b8565b5b602002602001015110156108ce57600a826108c7919061424a565b9150610917565b6123288382815181106108e4576108e36141b8565b5b6020026020010151101561090657600f826108ff919061424a565b9150610916565b601e82610913919061424a565b91505b5b5b5b8080610924906142a0565b91505061081d565b50809250505090565b6000600854905090565b60076020528060005260406000206000915090508060000160009054906101000a900461ffff16908060000160029054906101000a900461ffff16908060000160049054906101000a900461ffff16908060000160069054906101000a900461ffff16908060000160089054906101000a900473ffffffffffffffffffffffffffffffffffffffff16905085565b60001515600260009054906101000a900460ff161515146109ed57600080fd5b600073ffffffffffffffffffffffffffffffffffffffff16600760003373ffffffffffffffffffffffffffffffffffffffff1673ffffffffffffffffffffffffffffffffffffffff16815260200190815260200160002060000160089054906101000a900473ffffffffffffffffffffffffffffffffffffffff1673ffffffffffffffffffffffffffffffffffffffff1614610a8857600080fd5b60016000808282829054906101000a900461ffff16610aa791906142e9565b92506101000a81548161ffff021916908361ffff1602179055506040518060a00160405280606461ffff168152602001600161ffff168152602001600061ffff16815260200160008054906101000a900461ffff1661ffff1681526020013373ffffffffffffffffffffffffffffffffffffffff16815250600760003373ffffffffffffffffffffffffffffffffffffffff1673ffffffffffffffffffffffffffffffffffffffff16815260200190815260200160002060008201518160000160006101000a81548161ffff021916908361ffff16021790555060208201518160000160026101000a81548161ffff021916908361ffff16021790555060408201518160000160046101000a81548161ffff021916908361ffff16021790555060608201518160000160066101000a81548161ffff021916908361ffff16021790555060808201518160000160086101000a81548173ffffffffffffffffffffffffffffffffffffffff021916908373ffffffffffffffffffffffffffffffffffffffff16021790555090505060005b6003811015610c5b57610c486134ed565b8080610c53906142a0565b915050610c37565b50565b60606005805480602002602001604051908101604052809291908181526020018280548015610cac57602002820191906000526020600020905b815481526020019060010190808311610c98575b5050505050905090565b60005b600115610d3c576000824233600154604051602001610cda9392919061438a565b6040516020818303038152906040528051906020012060001c610cfd91906143f6565b905060011515610d0c82610629565b15151415610d1d5780915050610d4e565b6001806000828254610d2f919061424a565b9250508190555050610cb9565b8162bc614e610d4b91906143f6565b90505b919050565b60015481565b8161ffff16600760003373ffffffffffffffffffffffffffffffffffffffff1673ffffffffffffffffffffffffffffffffffffffff16815260200190815260200160002060000160009054906101000a900461ffff1661ffff161015610dbe57600080fd5b3373ffffffffffffffffffffffffffffffffffffffff16600d60003373ffffffffffffffffffffffffffffffffffffffff1673ffffffffffffffffffffffffffffffffffffffff168152602001908152602001600020600001600c9054906101000a900473ffffffffffffffffffffffffffffffffffffffff1673ffffffffffffffffffffffffffffffffffffffff161415610e5957600080fd5b60006001600c80549050610e6d9190614216565b90506040518061012001604052808461ffff1681526020018361ffff168152602001600061ffff168152602001600061ffff1681526020018261ffff1681526020016000151581526020016001151581526020013373ffffffffffffffffffffffffffffffffffffffff168152602001600073ffffffffffffffffffffffffffffffffffffffff16815250600d60003373ffffffffffffffffffffffffffffffffffffffff1673ffffffffffffffffffffffffffffffffffffffff16815260200190815260200160002060008201518160000160006101000a81548161ffff021916908361ffff16021790555060208201518160000160026101000a81548161ffff021916908361ffff16021790555060408201518160000160046101000a81548161ffff021916908361ffff16021790555060608201518160000160066101000a81548161ffff021916908361ffff16021790555060808201518160000160086101000a81548161ffff021916908361ffff16021790555060a082015181600001600a6101000a81548160ff02191690831515021790555060c082015181600001600b6101000a81548160ff02191690831515021790555060e082015181600001600c6101000a81548173ffffffffffffffffffffffffffffffffffffffff021916908373ffffffffffffffffffffffffffffffffffffffff1602179055506101008201518160010160006101000a81548173ffffffffffffffffffffffffffffffffffffffff021916908373ffffffffffffffffffffffffffffffffffffffff1602179055509050506001600760003373ffffffffffffffffffffffffffffffffffffffff1673ffffffffffffffffffffffffffffffffffffffff16815260200190815260200160002060000160048282829054906101000a900461ffff166111189190614427565b92506101000a81548161ffff021916908361ffff160217905550600c600d60003373ffffffffffffffffffffffffffffffffffffffff1673ffffffffffffffffffffffffffffffffffffffff16815260200190815260200160002090806001815401808255809150506001900390600052602060002090600202016000909190919091506000820160009054906101000a900461ffff168160000160006101000a81548161ffff021916908361ffff1602179055506000820160029054906101000a900461ffff168160000160026101000a81548161ffff021916908361ffff1602179055506000820160049054906101000a900461ffff168160000160046101000a81548161ffff021916908361ffff1602179055506000820160069054906101000a900461ffff168160000160066101000a81548161ffff021916908361ffff1602179055506000820160089054906101000a900461ffff168160000160086101000a81548161ffff021916908361ffff16021790555060008201600a9054906101000a900460ff1681600001600a6101000a81548160ff02191690831515021790555060008201600b9054906101000a900460ff1681600001600b6101000a81548160ff02191690831515021790555060008201600c9054906101000a900473ffffffffffffffffffffffffffffffffffffffff1681600001600c6101000a81548173ffffffffffffffffffffffffffffffffffffffff021916908373ffffffffffffffffffffffffffffffffffffffff1602179055506001820160009054906101000a900473ffffffffffffffffffffffffffffffffffffffff168160010160006101000a81548173ffffffffffffffffffffffffffffffffffffffff021916908373ffffffffffffffffffffffffffffffffffffffff16021790555050506000600660008461ffff16815260200190815260200160002060006101000a81548173ffffffffffffffffffffffffffffffffffffffff021916908373ffffffffffffffffffffffffffffffffffffffff16021790555082600760003373ffffffffffffffffffffffffffffffffffffffff1673ffffffffffffffffffffffffffffffffffffffff16815260200190815260200160002060000160008282829054906101000a900461ffff166114719190614427565b92506101000a81548161ffff021916908361ffff1602179055506001600b600082825461149e919061424a565b92505081905550505050565b6114b26138cf565b3373ffffffffffffffffffffffffffffffffffffffff16600d60008473ffffffffffffffffffffffffffffffffffffffff1673ffffffffffffffffffffffffffffffffffffffff168152602001908152602001600020600001600c9054906101000a900473ffffffffffffffffffffffffffffffffffffffff1673ffffffffffffffffffffffffffffffffffffffff161461154c57600080fd5b600d60008373ffffffffffffffffffffffffffffffffffffffff1673ffffffffffffffffffffffffffffffffffffffff168152602001908152602001600020604051806101200160405290816000820160009054906101000a900461ffff1661ffff1661ffff1681526020016000820160029054906101000a900461ffff1661ffff1661ffff1681526020016000820160049054906101000a900461ffff1661ffff1661ffff1681526020016000820160069054906101000a900461ffff1661ffff1661ffff1681526020016000820160089054906101000a900461ffff1661ffff1661ffff16815260200160008201600a9054906101000a900460ff1615151515815260200160008201600b9054906101000a900460ff1615151515815260200160008201600c9054906101000a900473ffffffffffffffffffffffffffffffffffffffff1673ffffffffffffffffffffffffffffffffffffffff1673ffffffffffffffffffffffffffffffffffffffff1681526020016001820160009054906101000a900473ffffffffffffffffffffffffffffffffffffffff1673ffffffffffffffffffffffffffffffffffffffff1673ffffffffffffffffffffffffffffffffffffffff16815250509050919050565b600460009054906101000a900473ffffffffffffffffffffffffffffffffffffffff1673ffffffffffffffffffffffffffffffffffffffff163373ffffffffffffffffffffffffffffffffffffffff161461177a57600080fd5b6001600260006101000a81548160ff021916908315150217905550565b61179f61395f565b600760003373ffffffffffffffffffffffffffffffffffffffff1673ffffffffffffffffffffffffffffffffffffffff1681526020019081526020016000206040518060a00160405290816000820160009054906101000a900461ffff1661ffff1661ffff1681526020016000820160029054906101000a900461ffff1661ffff1661ffff1681526020016000820160049054906101000a900461ffff1661ffff1661ffff1681526020016000820160069054906101000a900461ffff1661ffff1661ffff1681526020016000820160089054906101000a900473ffffffffffffffffffffffffffffffffffffffff1673ffffffffffffffffffffffffffffffffffffffff1673ffffffffffffffffffffffffffffffffffffffff1681525050905090565b60085481565b600460009054906101000a900473ffffffffffffffffffffffffffffffffffffffff1681565b6005818154811061190057600080fd5b906000526020600020016000915090505481565b60606000611920611797565b6040015161ffff1667ffffffffffffffff81111561194157611940614189565b5b60405190808252806020026020018201604052801561196f5781602001602082028036833780820191505090505b5090506000805b600580549050811015611a68573373ffffffffffffffffffffffffffffffffffffffff1660066000600584815481106119b2576119b16141b8565b5b9060005260206000200154815260200190815260200160002060009054906101000a900473ffffffffffffffffffffffffffffffffffffffff1673ffffffffffffffffffffffffffffffffffffffff161415611a555760058181548110611a1c57611a1b6141b8565b5b9060005260206000200154838381518110611a3a57611a396141b8565b5b6020026020010181815250508180611a51906142a0565b9250505b8080611a60906142a0565b915050611976565b50819250505090565b6060600c805480602002602001604051908101604052809291908181526020016000905b82821015611c4a5783829060005260206000209060020201604051806101200160405290816000820160009054906101000a900461ffff1661ffff1661ffff1681526020016000820160029054906101000a900461ffff1661ffff1661ffff1681526020016000820160049054906101000a900461ffff1661ffff1661ffff1681526020016000820160069054906101000a900461ffff1661ffff1661ffff1681526020016000820160089054906101000a900461ffff1661ffff1661ffff16815260200160008201600a9054906101000a900460ff1615151515815260200160008201600b9054906101000a900460ff1615151515815260200160008201600c9054906101000a900473ffffffffffffffffffffffffffffffffffffffff1673ffffffffffffffffffffffffffffffffffffffff1673ffffffffffffffffffffffffffffffffffffffff1681526020016001820160009054906101000a900473ffffffffffffffffffffffffffffffffffffffff1673ffffffffffffffffffffffffffffffffffffffff1673ffffffffffffffffffffffffffffffffffffffff168152505081526020019060010190611a95565b50505050905090565b600d60003373ffffffffffffffffffffffffffffffffffffffff1673ffffffffffffffffffffffffffffffffffffffff168152602001908152602001600020600001600c9054906101000a900473ffffffffffffffffffffffffffffffffffffffff1673ffffffffffffffffffffffffffffffffffffffff163373ffffffffffffffffffffffffffffffffffffffff1614611ced57600080fd5b60001515600d60003373ffffffffffffffffffffffffffffffffffffffff1673ffffffffffffffffffffffffffffffffffffffff168152602001908152602001600020600001600b9054906101000a900460ff16151514611d4d57600080fd5b60001515811515141561220357600d60003373ffffffffffffffffffffffffffffffffffffffff1673ffffffffffffffffffffffffffffffffffffffff16815260200190815260200160002060000160049054906101000a900461ffff1660076000600d60003373ffffffffffffffffffffffffffffffffffffffff1673ffffffffffffffffffffffffffffffffffffffff168152602001908152602001600020600001600c9054906101000a900473ffffffffffffffffffffffffffffffffffffffff1673ffffffffffffffffffffffffffffffffffffffff1673ffffffffffffffffffffffffffffffffffffffff16815260200190815260200160002060000160008282829054906101000a900461ffff16611e6b91906142e9565b92506101000a81548161ffff021916908361ffff160217905550600d60003373ffffffffffffffffffffffffffffffffffffffff1673ffffffffffffffffffffffffffffffffffffffff16815260200190815260200160002060010160009054906101000a900473ffffffffffffffffffffffffffffffffffffffff1660066000600d60003373ffffffffffffffffffffffffffffffffffffffff1673ffffffffffffffffffffffffffffffffffffffff16815260200190815260200160002060000160069054906101000a900461ffff1661ffff16815260200190815260200160002060006101000a81548173ffffffffffffffffffffffffffffffffffffffff021916908373ffffffffffffffffffffffffffffffffffffffff160217905550600160076000600d60003373ffffffffffffffffffffffffffffffffffffffff1673ffffffffffffffffffffffffffffffffffffffff168152602001908152602001600020600001600c9054906101000a900473ffffffffffffffffffffffffffffffffffffffff1673ffffffffffffffffffffffffffffffffffffffff1673ffffffffffffffffffffffffffffffffffffffff16815260200190815260200160002060000160048282829054906101000a900461ffff1661204f91906142e9565b92506101000a81548161ffff021916908361ffff1602179055506000600d60003373ffffffffffffffffffffffffffffffffffffffff1673ffffffffffffffffffffffffffffffffffffffff16815260200190815260200160002060000160046101000a81548161ffff021916908361ffff1602179055506000600d60003373ffffffffffffffffffffffffffffffffffffffff1673ffffffffffffffffffffffffffffffffffffffff16815260200190815260200160002060000160066101000a81548161ffff021916908361ffff1602179055506000600d60003373ffffffffffffffffffffffffffffffffffffffff1673ffffffffffffffffffffffffffffffffffffffff16815260200190815260200160002060010160006101000a81548173ffffffffffffffffffffffffffffffffffffffff021916908373ffffffffffffffffffffffffffffffffffffffff1602179055506001600d60003373ffffffffffffffffffffffffffffffffffffffff1673ffffffffffffffffffffffffffffffffffffffff168152602001908152602001600020600001600b6101000a81548160ff0219169083151502179055505b600115158115151415612a3357600d60003373ffffffffffffffffffffffffffffffffffffffff1673ffffffffffffffffffffffffffffffffffffffff16815260200190815260200160002060000160049054906101000a900461ffff16600760003373ffffffffffffffffffffffffffffffffffffffff1673ffffffffffffffffffffffffffffffffffffffff16815260200190815260200160002060000160008282829054906101000a900461ffff166122bf91906142e9565b92506101000a81548161ffff021916908361ffff1602179055503360066000600d60003373ffffffffffffffffffffffffffffffffffffffff1673ffffffffffffffffffffffffffffffffffffffff16815260200190815260200160002060000160069054906101000a900461ffff1661ffff16815260200190815260200160002060006101000a81548173ffffffffffffffffffffffffffffffffffffffff021916908373ffffffffffffffffffffffffffffffffffffffff1602179055506001600760003373ffffffffffffffffffffffffffffffffffffffff1673ffffffffffffffffffffffffffffffffffffffff16815260200190815260200160002060000160048282829054906101000a900461ffff166123df91906142e9565b92506101000a81548161ffff021916908361ffff1602179055506000600d60003373ffffffffffffffffffffffffffffffffffffffff1673ffffffffffffffffffffffffffffffffffffffff16815260200190815260200160002060000160046101000a81548161ffff021916908361ffff1602179055506000600d60003373ffffffffffffffffffffffffffffffffffffffff1673ffffffffffffffffffffffffffffffffffffffff16815260200190815260200160002060000160066101000a81548161ffff021916908361ffff1602179055506000600d60003373ffffffffffffffffffffffffffffffffffffffff1673ffffffffffffffffffffffffffffffffffffffff16815260200190815260200160002060010160006101000a81548173ffffffffffffffffffffffffffffffffffffffff021916908373ffffffffffffffffffffffffffffffffffffffff1602179055506001600d60003373ffffffffffffffffffffffffffffffffffffffff1673ffffffffffffffffffffffffffffffffffffffff168152602001908152602001600020600001600b6101000a81548160ff0219169083151502179055506000600c6001600c805490506125a89190614216565b815481106125b9576125b86141b8565b5b9060005260206000209060020201604051806101200160405290816000820160009054906101000a900461ffff1661ffff1661ffff1681526020016000820160029054906101000a900461ffff1661ffff1661ffff1681526020016000820160049054906101000a900461ffff1661ffff1661ffff1681526020016000820160069054906101000a900461ffff1661ffff1661ffff1681526020016000820160089054906101000a900461ffff1661ffff1661ffff16815260200160008201600a9054906101000a900460ff1615151515815260200160008201600b9054906101000a900460ff1615151515815260200160008201600c9054906101000a900473ffffffffffffffffffffffffffffffffffffffff1673ffffffffffffffffffffffffffffffffffffffff1673ffffffffffffffffffffffffffffffffffffffff1681526020016001820160009054906101000a900473ffffffffffffffffffffffffffffffffffffffff1673ffffffffffffffffffffffffffffffffffffffff1673ffffffffffffffffffffffffffffffffffffffff16815250509050600c6001600c8054905061276b9190614216565b8154811061277c5761277b6141b8565b5b9060005260206000209060020201600080820160006101000a81549061ffff02191690556000820160026101000a81549061ffff02191690556000820160046101000a81549061ffff02191690556000820160066101000a81549061ffff02191690556000820160086101000a81549061ffff021916905560008201600a6101000a81549060ff021916905560008201600b6101000a81549060ff021916905560008201600c6101000a81549073ffffffffffffffffffffffffffffffffffffffff02191690556001820160006101000a81549073ffffffffffffffffffffffffffffffffffffffff0219169055505080600c6128776135f4565b81548110612888576128876141b8565b5b906000526020600020906002020160008201518160000160006101000a81548161ffff021916908361ffff16021790555060208201518160000160026101000a81548161ffff021916908361ffff16021790555060408201518160000160046101000a81548161ffff021916908361ffff16021790555060608201518160000160066101000a81548161ffff021916908361ffff16021790555060808201518160000160086101000a81548161ffff021916908361ffff16021790555060a082015181600001600a6101000a81548160ff02191690831515021790555060c082015181600001600b6101000a81548160ff02191690831515021790555060e082015181600001600c6101000a81548173ffffffffffffffffffffffffffffffffffffffff021916908373ffffffffffffffffffffffffffffffffffffffff1602179055506101008201518160010160006101000a81548173ffffffffffffffffffffffffffffffffffffffff021916908373ffffffffffffffffffffffffffffffffffffffff1602179055509050506001600b6000828254612a2a9190614216565b92505081905550505b50565b6000600c8281548110612a4c57612a4b6141b8565b5b9060005260206000209060020201600001600c9054906101000a900473ffffffffffffffffffffffffffffffffffffffff1690508361ffff16600760003373ffffffffffffffffffffffffffffffffffffffff1673ffffffffffffffffffffffffffffffffffffffff16815260200190815260200160002060000160009054906101000a900461ffff1661ffff161015612ae557600080fd5b600d60008273ffffffffffffffffffffffffffffffffffffffff1673ffffffffffffffffffffffffffffffffffffffff168152602001908152602001600020600001600b9054906101000a900460ff16612b3e57600080fd5b60008461ffff161015612b5057600080fd5b3373ffffffffffffffffffffffffffffffffffffffff168173ffffffffffffffffffffffffffffffffffffffff161415612b8957600080fd5b83600d60008373ffffffffffffffffffffffffffffffffffffffff1673ffffffffffffffffffffffffffffffffffffffff16815260200190815260200160002060000160046101000a81548161ffff021916908361ffff16021790555082600d60008373ffffffffffffffffffffffffffffffffffffffff1673ffffffffffffffffffffffffffffffffffffffff16815260200190815260200160002060000160066101000a81548161ffff021916908361ffff16021790555033600d60008373ffffffffffffffffffffffffffffffffffffffff1673ffffffffffffffffffffffffffffffffffffffff16815260200190815260200160002060010160006101000a81548173ffffffffffffffffffffffffffffffffffffffff021916908373ffffffffffffffffffffffffffffffffffffffff1602179055506000600d60008373ffffffffffffffffffffffffffffffffffffffff1673ffffffffffffffffffffffffffffffffffffffff168152602001908152602001600020600001600b6101000a81548160ff02191690831515021790555083600760003373ffffffffffffffffffffffffffffffffffffffff1673ffffffffffffffffffffffffffffffffffffffff16815260200190815260200160002060000160008282829054906101000a900461ffff16612d7e9190614427565b92506101000a81548161ffff021916908361ffff1602179055506001600760003373ffffffffffffffffffffffffffffffffffffffff1673ffffffffffffffffffffffffffffffffffffffff16815260200190815260200160002060000160048282829054906101000a900461ffff16612df89190614427565b92506101000a81548161ffff021916908361ffff1602179055506000600660008561ffff16815260200190815260200160002060006101000a81548173ffffffffffffffffffffffffffffffffffffffff021916908373ffffffffffffffffffffffffffffffffffffffff16021790555050505050565b60006006600083815260200190815260200160002060009054906101000a900473ffffffffffffffffffffffffffffffffffffffff169050919050565b60011515600260009054906101000a900460ff16151514612ecc57600080fd5b60008054906101000a900461ffff1661ffff1660095410612eec57600080fd5b600854600760003373ffffffffffffffffffffffffffffffffffffffff1673ffffffffffffffffffffffffffffffffffffffff16815260200190815260200160002060000160029054906101000a900461ffff1661ffff161115612f4f57600080fd5b600a60009054906101000a900461ffff1661ffff16600760003373ffffffffffffffffffffffffffffffffffffffff1673ffffffffffffffffffffffffffffffffffffffff16815260200190815260200160002060000160009054906101000a900461ffff1661ffff161015612fc457600080fd5b612fcc6134ed565b600a60009054906101000a900461ffff16600760003373ffffffffffffffffffffffffffffffffffffffff1673ffffffffffffffffffffffffffffffffffffffff16815260200190815260200160002060000160008282829054906101000a900461ffff1661303b9190614427565b92506101000a81548161ffff021916908361ffff160217905550600160096000828254613068919061424a565b925050819055506001600760003373ffffffffffffffffffffffffffffffffffffffff1673ffffffffffffffffffffffffffffffffffffffff16815260200190815260200160002060000160028282829054906101000a900461ffff166130cf91906142e9565b92506101000a81548161ffff021916908361ffff1602179055506130f16136aa565b565b600260009054906101000a900460ff1681565b600a60009054906101000a900461ffff1681565b60095481565b600a60029054906101000a900473ffffffffffffffffffffffffffffffffffffffff1681565b600d6020528060005260406000206000915090508060000160009054906101000a900461ffff16908060000160029054906101000a900461ffff16908060000160049054906101000a900461ffff16908060000160069054906101000a900461ffff16908060000160089054906101000a900461ffff169080600001600a9054906101000a900460ff169080600001600b9054906101000a900460ff169080600001600c9054906101000a900473ffffffffffffffffffffffffffffffffffffffff16908060010160009054906101000a900473ffffffffffffffffffffffffffffffffffffffff16905089565b60008054906101000a900461ffff1681565b61324e6138cf565b3373ffffffffffffffffffffffffffffffffffffffff16600d60003373ffffffffffffffffffffffffffffffffffffffff1673ffffffffffffffffffffffffffffffffffffffff168152602001908152602001600020600001600c9054906101000a900473ffffffffffffffffffffffffffffffffffffffff1673ffffffffffffffffffffffffffffffffffffffff16146132e857600080fd5b600d60003373ffffffffffffffffffffffffffffffffffffffff1673ffffffffffffffffffffffffffffffffffffffff168152602001908152602001600020604051806101200160405290816000820160009054906101000a900461ffff1661ffff1661ffff1681526020016000820160029054906101000a900461ffff1661ffff1661ffff1681526020016000820160049054906101000a900461ffff1661ffff1661ffff1681526020016000820160069054906101000a900461ffff1661ffff1661ffff1681526020016000820160089054906101000a900461ffff1661ffff1661ffff16815260200160008201600a9054906101000a900460ff1615151515815260200160008201600b9054906101000a900460ff1615151515815260200160008201600c9054906101000a900473ffffffffffffffffffffffffffffffffffffffff1673ffffffffffffffffffffffffffffffffffffffff1673ffffffffffffffffffffffffffffffffffffffff1681526020016001820160009054906101000a900473ffffffffffffffffffffffffffffffffffffffff1673ffffffffffffffffffffffffffffffffffffffff1673ffffffffffffffffffffffffffffffffffffffff1681525050905090565b60066020528060005260406000206000915054906101000a900473ffffffffffffffffffffffffffffffffffffffff1681565b60006134fa600354610cb6565b90506005819080600181540180825580915050600190039060005260206000200160009091909190915055336006600083815260200190815260200160002060006101000a81548173ffffffffffffffffffffffffffffffffffffffff021916908373ffffffffffffffffffffffffffffffffffffffff1602179055506001600760003373ffffffffffffffffffffffffffffffffffffffff1673ffffffffffffffffffffffffffffffffffffffff16815260200190815260200160002060000160048282829054906101000a900461ffff166135d791906142e9565b92506101000a81548161ffff021916908361ffff16021790555050565b60008060009050600090505b600c805490508110156136a2573373ffffffffffffffffffffffffffffffffffffffff16600c8281548110613638576136376141b8565b5b9060005260206000209060020201600001600c9054906101000a900473ffffffffffffffffffffffffffffffffffffffff1673ffffffffffffffffffffffffffffffffffffffff16141561368f57809150506136a7565b808061369a906142a0565b915050613600565b600080fd5b90565b60011515600260009054906101000a900460ff161515146136ca57600080fd5b60646136d46107b2565b50506000600760003373ffffffffffffffffffffffffffffffffffffffff1673ffffffffffffffffffffffffffffffffffffffff16815260200190815260200160002060000160009054906101000a900461ffff1661ffff16116138435760016000808282829054906101000a900461ffff166137519190614427565b92506101000a81548161ffff021916908361ffff16021790555060016009600082825461377e9190614216565b92505081905550600760003373ffffffffffffffffffffffffffffffffffffffff1673ffffffffffffffffffffffffffffffffffffffff168152602001908152602001600020600080820160006101000a81549061ffff02191690556000820160026101000a81549061ffff02191690556000820160046101000a81549061ffff02191690556000820160066101000a81549061ffff02191690556000820160086101000a81549073ffffffffffffffffffffffffffffffffffffffff021916905550505b60008054906101000a900461ffff1661ffff1660095414156138685761386761386a565b5b565b60011515600260009054906101000a900460ff1615151461388a57600080fd5b60008054906101000a900461ffff1661ffff1660095410156138ab57600080fd5b60006009819055506001600860008282546138c6919061424a565b92505081905550565b604051806101200160405280600061ffff168152602001600061ffff168152602001600061ffff168152602001600061ffff168152602001600061ffff168152602001600015158152602001600015158152602001600073ffffffffffffffffffffffffffffffffffffffff168152602001600073ffffffffffffffffffffffffffffffffffffffff1681525090565b6040518060a00160405280600061ffff168152602001600061ffff168152602001600061ffff168152602001600061ffff168152602001600073ffffffffffffffffffffffffffffffffffffffff1681525090565b600080fd5b6000819050919050565b6139cc816139b9565b81146139d757600080fd5b50565b6000813590506139e9816139c3565b92915050565b600060208284031215613a0557613a046139b4565b5b6000613a13848285016139da565b91505092915050565b60008115159050919050565b613a3181613a1c565b82525050565b6000602082019050613a4c6000830184613a28565b92915050565b613a5b816139b9565b82525050565b6000602082019050613a766000830184613a52565b92915050565b600061ffff82169050919050565b613a9381613a7c565b82525050565b600073ffffffffffffffffffffffffffffffffffffffff82169050919050565b6000613ac482613a99565b9050919050565b613ad481613ab9565b82525050565b600061012082019050613af0600083018c613a8a565b613afd602083018b613a8a565b613b0a604083018a613a8a565b613b176060830189613a8a565b613b246080830188613a8a565b613b3160a0830187613a28565b613b3e60c0830186613a28565b613b4b60e0830185613acb565b613b59610100830184613acb565b9a9950505050505050505050565b613b7081613ab9565b8114613b7b57600080fd5b50565b600081359050613b8d81613b67565b92915050565b600060208284031215613ba957613ba86139b4565b5b6000613bb784828501613b7e565b91505092915050565b600060a082019050613bd56000830188613a8a565b613be26020830187613a8a565b613bef6040830186613a8a565b613bfc6060830185613a8a565b613c096080830184613acb565b9695505050505050565b600081519050919050565b600082825260208201905092915050565b6000819050602082019050919050565b613c48816139b9565b82525050565b6000613c5a8383613c3f565b60208301905092915050565b6000602082019050919050565b6000613c7e82613c13565b613c888185613c1e565b9350613c9383613c2f565b8060005b83811015613cc4578151613cab8882613c4e565b9750613cb683613c66565b925050600181019050613c97565b5085935050505092915050565b60006020820190508181036000830152613ceb8184613c73565b905092915050565b613cfc81613a7c565b8114613d0757600080fd5b50565b600081359050613d1981613cf3565b92915050565b60008060408385031215613d3657613d356139b4565b5b6000613d4485828601613d0a565b9250506020613d5585828601613d0a565b9150509250929050565b613d6881613a7c565b82525050565b613d7781613a1c565b82525050565b613d8681613ab9565b82525050565b61012082016000820151613da36000850182613d5f565b506020820151613db66020850182613d5f565b506040820151613dc96040850182613d5f565b506060820151613ddc6060850182613d5f565b506080820151613def6080850182613d5f565b5060a0820151613e0260a0850182613d6e565b5060c0820151613e1560c0850182613d6e565b5060e0820151613e2860e0850182613d7d565b50610100820151613e3d610100850182613d7d565b50505050565b600061012082019050613e596000830184613d8c565b92915050565b60a082016000820151613e756000850182613d5f565b506020820151613e886020850182613d5f565b506040820151613e9b6040850182613d5f565b506060820151613eae6060850182613d5f565b506080820151613ec16080850182613d7d565b50505050565b600060a082019050613edc6000830184613e5f565b92915050565b6000613eed82613a99565b9050919050565b613efd81613ee2565b82525050565b6000602082019050613f186000830184613ef4565b92915050565b600081519050919050565b600082825260208201905092915050565b6000819050602082019050919050565b61012082016000820151613f616000850182613d5f565b506020820151613f746020850182613d5f565b506040820151613f876040850182613d5f565b506060820151613f9a6060850182613d5f565b506080820151613fad6080850182613d5f565b5060a0820151613fc060a0850182613d6e565b5060c0820151613fd360c0850182613d6e565b5060e0820151613fe660e0850182613d7d565b50610100820151613ffb610100850182613d7d565b50505050565b600061400d8383613f4a565b6101208301905092915050565b6000602082019050919050565b600061403282613f1e565b61403c8185613f29565b935061404783613f3a565b8060005b8381101561407857815161405f8882614001565b975061406a8361401a565b92505060018101905061404b565b5085935050505092915050565b6000602082019050818103600083015261409f8184614027565b905092915050565b6140b081613a1c565b81146140bb57600080fd5b50565b6000813590506140cd816140a7565b92915050565b6000602082840312156140e9576140e86139b4565b5b60006140f7848285016140be565b91505092915050565b600080600060608486031215614119576141186139b4565b5b600061412786828701613d0a565b935050602061413886828701613d0a565b9250506040614149868287016139da565b9150509250925092565b60006020820190506141686000830184613acb565b92915050565b60006020820190506141836000830184613a8a565b92915050565b7f4e487b7100000000000000000000000000000000000000000000000000000000600052604160045260246000fd5b7f4e487b7100000000000000000000000000000000000000000000000000000000600052603260045260246000fd5b7f4e487b7100000000000000000000000000000000000000000000000000000000600052601160045260246000fd5b6000614221826139b9565b915061422c836139b9565b92508282101561423f5761423e6141e7565b5b828203905092915050565b6000614255826139b9565b9150614260836139b9565b9250827fffffffffffffffffffffffffffffffffffffffffffffffffffffffffffffffff03821115614295576142946141e7565b5b828201905092915050565b60006142ab826139b9565b91507fffffffffffffffffffffffffffffffffffffffffffffffffffffffffffffffff8214156142de576142dd6141e7565b5b600182019050919050565b60006142f482613a7c565b91506142ff83613a7c565b92508261ffff03821115614316576143156141e7565b5b828201905092915050565b6000819050919050565b61433c614337826139b9565b614321565b82525050565b60008160601b9050919050565b600061435a82614342565b9050919050565b600061436c8261434f565b9050919050565b61438461437f82613ab9565b614361565b82525050565b6000614396828661432b565b6020820191506143a68285614373565b6014820191506143b6828461432b565b602082019150819050949350505050565b7f4e487b7100000000000000000000000000000000000000000000000000000000600052601260045260246000fd5b6000614401826139b9565b915061440c836139b9565b92508261441c5761441b6143c7565b5b828206905092915050565b600061443282613a7c565b915061443d83613a7c565b9250828210156144505761444f6141e7565b5b82820390509291505056fea26469706673582212202c46843435d5d6fa835b03aa75a0f1c6e8ff9ef908e3e3c42b4a35003b0934ff64736f6c634300080a0033",
  "immutableReferences": {},
  "source": "pragma solidity >=0.6.0;\n\nimport \"./roundsGame.sol\";\n\n/*==================================================================\nContains\n-Trade Functionality\n-Offer Trades\n-Cancel Trades\n-Subtract and add token/cards per trades\n==================================================================*/\n\ncontract tradeGame is roundsGame {\n    //--------------------Variables----------------------\n\n    struct tradeCard {\n        uint16 ownerOffer; //Owner giving tokens to take his card. (for negative ones usually)\n        uint16 ownerCard; //Owners card he wants to trade.\n        uint16 buyerOffer; //Buyer giving tokens to buy card\n        uint16 buyerCard; //BuyerCard\n        uint16 index;\n        bool tradeComplete;\n        bool tradeAvailable;\n        address ownerAddr;\n        address buyerAddr;\n    }\n\n    tradeCard[] public trades;\n    mapping(address => tradeCard) public ownerToTrade;\n\n    //--------------------Functions----------------------\n\n    //MAKE SURE TO DOUBLE CHECK THAT ALL THE TOKENS CARDS ETC TRANSFERS ARE DONE CORRECTLY\n\n    function startTrade(uint16 _ownerOffer, uint16 _ownerCard) public {\n        require(ownerToPlayer[msg.sender].balance >= _ownerOffer);\n        require(ownerToTrade[msg.sender].ownerAddr != msg.sender); //Make sure owner doesnt have a trade alrdy\n        uint16 currentIndex = uint16(trades.length - 1);\n        ownerToTrade[msg.sender] = tradeCard(\n            _ownerOffer,\n            _ownerCard,\n            0,\n            0,\n            currentIndex,\n            false,\n            true,\n            msg.sender,\n            address(0)\n        );\n        ownerToPlayer[msg.sender].cardsOwned -= 1;\n        trades.push(ownerToTrade[msg.sender]);\n        cardToOwner[_ownerCard] = address(0);\n        //reduce the tokens the owner offers for trade\n        ownerToPlayer[msg.sender].balance -= _ownerOffer;\n        currentTrades += 1;\n    }\n\n    //Return trades of specified address\n\n    function retTradeAddr(address _ownerAddr)\n        public\n        view\n        returns (tradeCard memory)\n    {\n        require(ownerToTrade[_ownerAddr].ownerAddr == msg.sender);\n        return ownerToTrade[_ownerAddr];\n    }\n\n    function retTrade() public view returns (tradeCard memory) {\n        require(ownerToTrade[msg.sender].ownerAddr == msg.sender);\n        return ownerToTrade[msg.sender];\n    }\n\n    function retAllTrades() public view returns (tradeCard[] memory) {\n        return trades;\n    }\n\n    function retTradeIndex() internal view returns (uint256) {\n        uint256 index = 0;\n        for (index = 0; index < trades.length; index++) {\n            if (trades[index].ownerAddr == msg.sender) {\n                return index;\n            }\n        }\n        revert();\n    }\n\n    //The offer (tokens + cards) a buyer makes will be subtracted until the trade is cancelled or confirmed\n\n    function offerTrade(\n        uint16 _buyerOffer,\n        uint16 _buyerCard,\n        uint256 index\n    ) public {\n        address _ownerAddr = trades[index].ownerAddr;\n        require(ownerToPlayer[msg.sender].balance >= _buyerOffer);\n        //to make sure no more trades available to the player\n        require(ownerToTrade[_ownerAddr].tradeAvailable);\n        require(_buyerOffer >= 0);\n        require(_ownerAddr != msg.sender);\n\n        ownerToTrade[_ownerAddr].buyerOffer = _buyerOffer;\n        ownerToTrade[_ownerAddr].buyerCard = _buyerCard;\n        ownerToTrade[_ownerAddr].buyerAddr = address(msg.sender);\n        ownerToTrade[_ownerAddr].tradeAvailable = false;\n\n        ownerToPlayer[msg.sender].balance -= _buyerOffer;\n        ownerToPlayer[msg.sender].cardsOwned -= 1;\n        //buyers Card owned by noOne;\n        cardToOwner[_buyerCard] = address(0);\n    }\n\n    //Player can use this to hold enemy tokens but in term they cant trade either until they confirm this\n\n    function tradeComplete(bool _tradeConfirm) public {\n        require(msg.sender == ownerToTrade[msg.sender].ownerAddr);\n        require(ownerToTrade[msg.sender].tradeAvailable == false);\n\n        if (_tradeConfirm == false) {\n            //send money back to buyer and make trade available\n            ownerToPlayer[ownerToTrade[msg.sender].ownerAddr]\n                .balance += ownerToTrade[msg.sender].buyerOffer;\n            //make buyer Owner of his card again\n            cardToOwner[ownerToTrade[msg.sender].buyerCard] = ownerToTrade[\n                msg.sender\n            ].buyerAddr;\n            //Add card number in buyer\n            ownerToPlayer[ownerToTrade[msg.sender].ownerAddr].cardsOwned += 1;\n\n            ownerToTrade[msg.sender].buyerOffer = 0;\n            ownerToTrade[msg.sender].buyerCard = 0;\n            ownerToTrade[msg.sender].buyerAddr = address(0);\n            ownerToTrade[msg.sender].tradeAvailable = true;\n        }\n\n        if (_tradeConfirm == true) {\n            //send money to owner and make trade complete\n            ownerToPlayer[msg.sender].balance += ownerToTrade[msg.sender]\n                .buyerOffer;\n            //make tradeOwner Owner of the card\n            cardToOwner[ownerToTrade[msg.sender].buyerCard] = msg.sender;\n            //Add card numbers in owner\n            ownerToPlayer[msg.sender].cardsOwned += 1;\n\n            ownerToTrade[msg.sender].buyerOffer = 0;\n            ownerToTrade[msg.sender].buyerCard = 0;\n            ownerToTrade[msg.sender].buyerAddr = address(0);\n            ownerToTrade[msg.sender].tradeAvailable = true;\n\n            tradeCard memory tempTrade = trades[trades.length - 1];\n            delete trades[trades.length - 1];\n            trades[retTradeIndex()] = tempTrade;\n            currentTrades -= 1;\n        }\n    }\n}\n",
  "sourcePath": "/Users/saadbazaz/Documents/FAST Studies/Introduction to Blockchain and Cryptocurrency/Project/FastCards/truffle/contracts/tradeGame.sol",
  "compiler": {
    "name": "solc",
    "version": "0.8.10+commit.fc410830.Emscripten.clang"
  },
  "schemaVersion": "3.4.3",
  "updatedAt": "2021-12-20T15:06:07.247Z",
  "devdoc": {
    "kind": "dev",
    "methods": {},
    "version": 1
  },
  "userdoc": {
    "kind": "user",
    "methods": {},
    "version": 1
  }
}