{
  "contractName": "tradeGame",
  "abi": [
    {
      "inputs": [],
      "name": "cardModValue",
      "outputs": [
        {
          "internalType": "uint256",
          "name": "",
          "type": "uint256"
        }
      ],
      "stateMutability": "view",
      "type": "function"
    },
    {
      "inputs": [
        {
          "internalType": "uint256",
          "name": "_card",
          "type": "uint256"
        }
      ],
      "name": "cardOwner",
      "outputs": [
        {
          "internalType": "address",
          "name": "",
          "type": "address"
        }
      ],
      "stateMutability": "view",
      "type": "function"
    },
    {
      "inputs": [
        {
          "internalType": "uint256",
          "name": "",
          "type": "uint256"
        }
      ],
      "name": "cardToOwner",
      "outputs": [
        {
          "internalType": "address",
          "name": "",
          "type": "address"
        }
      ],
      "stateMutability": "view",
      "type": "function"
    },
    {
      "inputs": [
        {
          "internalType": "uint256",
          "name": "",
          "type": "uint256"
        }
      ],
      "name": "cards",
      "outputs": [
        {
          "internalType": "uint256",
          "name": "",
          "type": "uint256"
        }
      ],
      "stateMutability": "view",
      "type": "function"
    },
    {
      "inputs": [
        {
          "internalType": "uint256",
          "name": "_newCard",
          "type": "uint256"
        }
      ],
      "name": "checkCard",
      "outputs": [
        {
          "internalType": "bool",
          "name": "",
          "type": "bool"
        }
      ],
      "stateMutability": "view",
      "type": "function"
    },
    {
      "inputs": [],
      "name": "createPlayer",
      "outputs": [],
      "stateMutability": "nonpayable",
      "type": "function"
    },
    {
      "inputs": [],
      "name": "currentRound",
      "outputs": [
        {
          "internalType": "uint256",
          "name": "",
          "type": "uint256"
        }
      ],
      "stateMutability": "view",
      "type": "function"
    },
    {
      "inputs": [
        {
          "internalType": "uint256",
          "name": "_cardModValue",
          "type": "uint256"
        }
      ],
      "name": "generateCards",
      "outputs": [
        {
          "internalType": "uint256",
          "name": "",
          "type": "uint256"
        }
      ],
      "stateMutability": "nonpayable",
      "type": "function"
    },
    {
      "inputs": [],
      "name": "nonceForRand",
      "outputs": [
        {
          "internalType": "uint256",
          "name": "",
          "type": "uint256"
        }
      ],
      "stateMutability": "view",
      "type": "function"
    },
    {
      "inputs": [],
      "name": "owner",
      "outputs": [
        {
          "internalType": "address payable",
          "name": "",
          "type": "address"
        }
      ],
      "stateMutability": "view",
      "type": "function"
    },
    {
      "inputs": [
        {
          "internalType": "address",
          "name": "",
          "type": "address"
        }
      ],
      "name": "ownerToPlayer",
      "outputs": [
        {
          "internalType": "uint16",
          "name": "balance",
          "type": "uint16"
        },
        {
          "internalType": "uint16",
          "name": "round",
          "type": "uint16"
        },
        {
          "internalType": "uint16",
          "name": "cardsOwned",
          "type": "uint16"
        },
        {
          "internalType": "uint16",
          "name": "playerNumber",
          "type": "uint16"
        },
        {
          "internalType": "address",
          "name": "playerAddr",
          "type": "address"
        }
      ],
      "stateMutability": "view",
      "type": "function"
    },
    {
      "inputs": [],
      "name": "playerTurnsDone",
      "outputs": [
        {
          "internalType": "uint256",
          "name": "",
          "type": "uint256"
        }
      ],
      "stateMutability": "view",
      "type": "function"
    },
    {
      "inputs": [],
      "name": "playerWon",
      "outputs": [
        {
          "internalType": "address",
          "name": "",
          "type": "address"
        }
      ],
      "stateMutability": "view",
      "type": "function"
    },
    {
      "inputs": [],
      "name": "randomCard",
      "outputs": [],
      "stateMutability": "nonpayable",
      "type": "function"
    },
    {
      "inputs": [],
      "name": "randomCost",
      "outputs": [
        {
          "internalType": "uint16",
          "name": "",
          "type": "uint16"
        }
      ],
      "stateMutability": "view",
      "type": "function"
    },
    {
      "inputs": [],
      "name": "retCards",
      "outputs": [
        {
          "internalType": "uint256[]",
          "name": "",
          "type": "uint256[]"
        }
      ],
      "stateMutability": "view",
      "type": "function"
    },
    {
      "inputs": [],
      "name": "retPlayer",
      "outputs": [
        {
          "components": [
            {
              "internalType": "uint16",
              "name": "balance",
              "type": "uint16"
            },
            {
              "internalType": "uint16",
              "name": "round",
              "type": "uint16"
            },
            {
              "internalType": "uint16",
              "name": "cardsOwned",
              "type": "uint16"
            },
            {
              "internalType": "uint16",
              "name": "playerNumber",
              "type": "uint16"
            },
            {
              "internalType": "address",
              "name": "playerAddr",
              "type": "address"
            }
          ],
          "internalType": "struct initializeGame.Player",
          "name": "",
          "type": "tuple"
        }
      ],
      "stateMutability": "view",
      "type": "function"
    },
    {
      "inputs": [],
      "name": "retcurrentRound",
      "outputs": [
        {
          "internalType": "uint256",
          "name": "",
          "type": "uint256"
        }
      ],
      "stateMutability": "view",
      "type": "function"
    },
    {
      "inputs": [],
      "name": "retplayerCards",
      "outputs": [
        {
          "internalType": "uint256[]",
          "name": "",
          "type": "uint256[]"
        }
      ],
      "stateMutability": "view",
      "type": "function"
    },
    {
      "inputs": [],
      "name": "retplayerScore",
      "outputs": [
        {
          "internalType": "uint256",
          "name": "",
          "type": "uint256"
        }
      ],
      "stateMutability": "view",
      "type": "function"
    },
    {
      "inputs": [],
      "name": "retplayerTurnsDone",
      "outputs": [
        {
          "internalType": "uint256",
          "name": "",
          "type": "uint256"
        }
      ],
      "stateMutability": "view",
      "type": "function"
    },
    {
      "inputs": [],
      "name": "startGame",
      "outputs": [
        {
          "internalType": "bool",
          "name": "",
          "type": "bool"
        }
      ],
      "stateMutability": "view",
      "type": "function"
    },
    {
      "inputs": [],
      "name": "startTheGame",
      "outputs": [],
      "stateMutability": "nonpayable",
      "type": "function"
    },
    {
      "inputs": [],
      "name": "totalPlayers",
      "outputs": [
        {
          "internalType": "uint16",
          "name": "",
          "type": "uint16"
        }
      ],
      "stateMutability": "view",
      "type": "function"
    }
  ],
  "bytecode": "0x608060405260008060006101000a81548161ffff021916908361ffff16021790555060006001556000600260006101000a81548160ff02191690831515021790555061271060035560016008556000600955600a8060006101000a81548161ffff021916908361ffff1602179055506000600a60026101000a81548173ffffffffffffffffffffffffffffffffffffffff021916908373ffffffffffffffffffffffffffffffffffffffff1602179055503480156100bc57600080fd5b5033600460006101000a81548173ffffffffffffffffffffffffffffffffffffffff021916908373ffffffffffffffffffffffffffffffffffffffff16021790555060008060006101000a81548161ffff021916908361ffff160217905550611ab38061012a6000396000f3fe608060405234801561001057600080fd5b50600436106101585760003560e01c80636e3afc1d116100c3578063d65ab5f21161007c578063d65ab5f21461039b578063e4fda636146103b9578063ee421794146103d7578063ef034d8a146103f5578063f60cdcf614610413578063ffb976ec1461043157610158565b80636e3afc1d146102d75780638a19c8bc146102f55780638da5cb5b146103135780638dc1076814610331578063ac89fa6314610361578063b401f2211461039157610158565b80633fa9fcf8116101155780633fa9fcf8146102395780633fb876cc146102435780634eee0f4614610261578063555f8f511461027f57806356927767146102af57806366c7ef3a146102cd57610158565b806301fb72cf1461015d57806309b6056f1461018d57806318d7f572146101ab5780631f47390c146101c95780633a3fc6fc146101e75780633ca7aac314610205575b600080fd5b61017760048036038101906101729190611421565b610461565b6040516101849190611469565b60405180910390f35b6101956104dc565b6040516101a29190611493565b60405180910390f35b6101b36104e6565b6040516101c09190611493565b60405180910390f35b6101d16104f0565b6040516101de9190611493565b60405180910390f35b6101ef6104f6565b6040516101fc919061156c565b60405180910390f35b61021f600480360381019061021a91906115ec565b610653565b604051610230959493929190611645565b60405180910390f35b6102416106e1565b005b61024b6108d7565b604051610258919061156c565b60405180910390f35b61026961092f565b6040516102769190611493565b60405180910390f35b61029960048036038101906102949190611421565b610ab2565b6040516102a69190611493565b60405180910390f35b6102b7610b4f565b6040516102c49190611493565b60405180910390f35b6102d5610b55565b005b6102df610bcc565b6040516102ec919061171e565b60405180910390f35b6102fd610cf9565b60405161030a9190611493565b60405180910390f35b61031b610cff565b604051610328919061175a565b60405180910390f35b61034b60048036038101906103469190611421565b610d25565b6040516103589190611493565b60405180910390f35b61037b60048036038101906103769190611421565b610d49565b6040516103889190611775565b60405180910390f35b610399610d86565b005b6103a3610fcd565b6040516103b09190611469565b60405180910390f35b6103c1610fe0565b6040516103ce9190611790565b60405180910390f35b6103df610ff4565b6040516103ec9190611493565b60405180910390f35b6103fd610ffa565b60405161040a9190611775565b60405180910390f35b61041b611020565b6040516104289190611790565b60405180910390f35b61044b60048036038101906104469190611421565b611032565b6040516104589190611775565b60405180910390f35b60008073ffffffffffffffffffffffffffffffffffffffff166006600084815260200190815260200160002060009054906101000a900473ffffffffffffffffffffffffffffffffffffffff1673ffffffffffffffffffffffffffffffffffffffff16146104d257600090506104d7565b600190505b919050565b6000600854905090565b6000600954905090565b60035481565b60606000610502610bcc565b6040015161ffff1667ffffffffffffffff811115610523576105226117ab565b5b6040519080825280602002602001820160405280156105515781602001602082028036833780820191505090505b5090506000805b60058054905081101561064a573373ffffffffffffffffffffffffffffffffffffffff166006600060058481548110610594576105936117da565b5b9060005260206000200154815260200190815260200160002060009054906101000a900473ffffffffffffffffffffffffffffffffffffffff1673ffffffffffffffffffffffffffffffffffffffff16141561063757600581815481106105fe576105fd6117da565b5b906000526020600020015483838151811061061c5761061b6117da565b5b602002602001018181525050818061063390611838565b9250505b808061064290611838565b915050610558565b50819250505090565b60076020528060005260406000206000915090508060000160009054906101000a900461ffff16908060000160029054906101000a900461ffff16908060000160049054906101000a900461ffff16908060000160069054906101000a900461ffff16908060000160089054906101000a900473ffffffffffffffffffffffffffffffffffffffff16905085565b60001515600260009054906101000a900460ff1615151461070157600080fd5b60016000808282829054906101000a900461ffff166107209190611881565b92506101000a81548161ffff021916908361ffff1602179055506040518060a00160405280606461ffff168152602001600161ffff168152602001600061ffff16815260200160008054906101000a900461ffff1661ffff1681526020013373ffffffffffffffffffffffffffffffffffffffff16815250600760003373ffffffffffffffffffffffffffffffffffffffff1673ffffffffffffffffffffffffffffffffffffffff16815260200190815260200160002060008201518160000160006101000a81548161ffff021916908361ffff16021790555060208201518160000160026101000a81548161ffff021916908361ffff16021790555060408201518160000160046101000a81548161ffff021916908361ffff16021790555060608201518160000160066101000a81548161ffff021916908361ffff16021790555060808201518160000160086101000a81548173ffffffffffffffffffffffffffffffffffffffff021916908373ffffffffffffffffffffffffffffffffffffffff16021790555090505060005b60038110156108d4576108c1611065565b80806108cc90611838565b9150506108b0565b50565b6060600580548060200260200160405190810160405280929190818152602001828054801561092557602002820191906000526020600020905b815481526020019060010190808311610911575b5050505050905090565b60008061093a610bcc565b6040015161ffff1667ffffffffffffffff81111561095b5761095a6117ab565b5b6040519080825280602002602001820160405280156109895781602001602082028036833780820191505090505b5090506109946104f6565b90506000805b8251811015610aa9576103e88382815181106109b9576109b86117da565b5b602002602001015110156109db57600a826109d491906118b9565b9150610a96565b6113888382815181106109f1576109f06117da565b5b60200260200101511015610a1357600582610a0c91906118ed565b9150610a95565b611b58838281518110610a2957610a286117da565b5b60200260200101511015610a4b57600a82610a4491906118ed565b9150610a94565b612328838281518110610a6157610a606117da565b5b60200260200101511015610a8357600f82610a7c91906118ed565b9150610a93565b601482610a9091906118ed565b91505b5b5b5b8080610aa190611838565b91505061099a565b50809250505090565b60005b600115610b38576000824233600154604051602001610ad6939291906119ac565b6040516020818303038152906040528051906020012060001c610af99190611a18565b905060011515610b0882610461565b15151415610b195780915050610b4a565b6001806000828254610b2b91906118ed565b9250508190555050610ab5565b8162bc614e610b479190611a18565b90505b919050565b60015481565b600460009054906101000a900473ffffffffffffffffffffffffffffffffffffffff1673ffffffffffffffffffffffffffffffffffffffff163373ffffffffffffffffffffffffffffffffffffffff1614610baf57600080fd5b6001600260006101000a81548160ff021916908315150217905550565b610bd4611391565b600760003373ffffffffffffffffffffffffffffffffffffffff1673ffffffffffffffffffffffffffffffffffffffff1681526020019081526020016000206040518060a00160405290816000820160009054906101000a900461ffff1661ffff1661ffff1681526020016000820160029054906101000a900461ffff1661ffff1661ffff1681526020016000820160049054906101000a900461ffff1661ffff1661ffff1681526020016000820160069054906101000a900461ffff1661ffff1661ffff1681526020016000820160089054906101000a900473ffffffffffffffffffffffffffffffffffffffff1673ffffffffffffffffffffffffffffffffffffffff1673ffffffffffffffffffffffffffffffffffffffff1681525050905090565b60085481565b600460009054906101000a900473ffffffffffffffffffffffffffffffffffffffff1681565b60058181548110610d3557600080fd5b906000526020600020016000915090505481565b60006006600083815260200190815260200160002060009054906101000a900473ffffffffffffffffffffffffffffffffffffffff169050919050565b60011515600260009054906101000a900460ff16151514610da657600080fd5b60008054906101000a900461ffff1661ffff1660095410610dc657600080fd5b600854600760003373ffffffffffffffffffffffffffffffffffffffff1673ffffffffffffffffffffffffffffffffffffffff16815260200190815260200160002060000160029054906101000a900461ffff1661ffff161115610e2957600080fd5b600a60009054906101000a900461ffff1661ffff16600760003373ffffffffffffffffffffffffffffffffffffffff1673ffffffffffffffffffffffffffffffffffffffff16815260200190815260200160002060000160009054906101000a900461ffff1661ffff161015610e9e57600080fd5b610ea6611065565b600a60009054906101000a900461ffff16600760003373ffffffffffffffffffffffffffffffffffffffff1673ffffffffffffffffffffffffffffffffffffffff16815260200190815260200160002060000160008282829054906101000a900461ffff16610f159190611a49565b92506101000a81548161ffff021916908361ffff160217905550600160096000828254610f4291906118ed565b925050819055506001600760003373ffffffffffffffffffffffffffffffffffffffff1673ffffffffffffffffffffffffffffffffffffffff16815260200190815260200160002060000160028282829054906101000a900461ffff16610fa99190611881565b92506101000a81548161ffff021916908361ffff160217905550610fcb61116c565b565b600260009054906101000a900460ff1681565b600a60009054906101000a900461ffff1681565b60095481565b600a60029054906101000a900473ffffffffffffffffffffffffffffffffffffffff1681565b60008054906101000a900461ffff1681565b60066020528060005260406000206000915054906101000a900473ffffffffffffffffffffffffffffffffffffffff1681565b6000611072600354610ab2565b90506005819080600181540180825580915050600190039060005260206000200160009091909190915055336006600083815260200190815260200160002060006101000a81548173ffffffffffffffffffffffffffffffffffffffff021916908373ffffffffffffffffffffffffffffffffffffffff1602179055506001600760003373ffffffffffffffffffffffffffffffffffffffff1673ffffffffffffffffffffffffffffffffffffffff16815260200190815260200160002060000160048282829054906101000a900461ffff1661114f9190611881565b92506101000a81548161ffff021916908361ffff16021790555050565b60011515600260009054906101000a900460ff1615151461118c57600080fd5b606461119661092f565b50506000600760003373ffffffffffffffffffffffffffffffffffffffff1673ffffffffffffffffffffffffffffffffffffffff16815260200190815260200160002060000160009054906101000a900461ffff1661ffff16116113055760016000808282829054906101000a900461ffff166112139190611a49565b92506101000a81548161ffff021916908361ffff16021790555060016009600082825461124091906118b9565b92505081905550600760003373ffffffffffffffffffffffffffffffffffffffff1673ffffffffffffffffffffffffffffffffffffffff168152602001908152602001600020600080820160006101000a81549061ffff02191690556000820160026101000a81549061ffff02191690556000820160046101000a81549061ffff02191690556000820160066101000a81549061ffff02191690556000820160086101000a81549073ffffffffffffffffffffffffffffffffffffffff021916905550505b60008054906101000a900461ffff1661ffff16600954141561132a5761132961132c565b5b565b60011515600260009054906101000a900460ff1615151461134c57600080fd5b60008054906101000a900461ffff1661ffff16600954101561136d57600080fd5b600060098190555060016008600082825461138891906118ed565b92505081905550565b6040518060a00160405280600061ffff168152602001600061ffff168152602001600061ffff168152602001600061ffff168152602001600073ffffffffffffffffffffffffffffffffffffffff1681525090565b600080fd5b6000819050919050565b6113fe816113eb565b811461140957600080fd5b50565b60008135905061141b816113f5565b92915050565b600060208284031215611437576114366113e6565b5b60006114458482850161140c565b91505092915050565b60008115159050919050565b6114638161144e565b82525050565b600060208201905061147e600083018461145a565b92915050565b61148d816113eb565b82525050565b60006020820190506114a86000830184611484565b92915050565b600081519050919050565b600082825260208201905092915050565b6000819050602082019050919050565b6114e3816113eb565b82525050565b60006114f583836114da565b60208301905092915050565b6000602082019050919050565b6000611519826114ae565b61152381856114b9565b935061152e836114ca565b8060005b8381101561155f57815161154688826114e9565b975061155183611501565b925050600181019050611532565b5085935050505092915050565b60006020820190508181036000830152611586818461150e565b905092915050565b600073ffffffffffffffffffffffffffffffffffffffff82169050919050565b60006115b98261158e565b9050919050565b6115c9816115ae565b81146115d457600080fd5b50565b6000813590506115e6816115c0565b92915050565b600060208284031215611602576116016113e6565b5b6000611610848285016115d7565b91505092915050565b600061ffff82169050919050565b61163081611619565b82525050565b61163f816115ae565b82525050565b600060a08201905061165a6000830188611627565b6116676020830187611627565b6116746040830186611627565b6116816060830185611627565b61168e6080830184611636565b9695505050505050565b6116a181611619565b82525050565b6116b0816115ae565b82525050565b60a0820160008201516116cc6000850182611698565b5060208201516116df6020850182611698565b5060408201516116f26040850182611698565b5060608201516117056060850182611698565b50608082015161171860808501826116a7565b50505050565b600060a08201905061173360008301846116b6565b92915050565b60006117448261158e565b9050919050565b61175481611739565b82525050565b600060208201905061176f600083018461174b565b92915050565b600060208201905061178a6000830184611636565b92915050565b60006020820190506117a56000830184611627565b92915050565b7f4e487b7100000000000000000000000000000000000000000000000000000000600052604160045260246000fd5b7f4e487b7100000000000000000000000000000000000000000000000000000000600052603260045260246000fd5b7f4e487b7100000000000000000000000000000000000000000000000000000000600052601160045260246000fd5b6000611843826113eb565b91507fffffffffffffffffffffffffffffffffffffffffffffffffffffffffffffffff82141561187657611875611809565b5b600182019050919050565b600061188c82611619565b915061189783611619565b92508261ffff038211156118ae576118ad611809565b5b828201905092915050565b60006118c4826113eb565b91506118cf836113eb565b9250828210156118e2576118e1611809565b5b828203905092915050565b60006118f8826113eb565b9150611903836113eb565b9250827fffffffffffffffffffffffffffffffffffffffffffffffffffffffffffffffff0382111561193857611937611809565b5b828201905092915050565b6000819050919050565b61195e611959826113eb565b611943565b82525050565b60008160601b9050919050565b600061197c82611964565b9050919050565b600061198e82611971565b9050919050565b6119a66119a1826115ae565b611983565b82525050565b60006119b8828661194d565b6020820191506119c88285611995565b6014820191506119d8828461194d565b602082019150819050949350505050565b7f4e487b7100000000000000000000000000000000000000000000000000000000600052601260045260246000fd5b6000611a23826113eb565b9150611a2e836113eb565b925082611a3e57611a3d6119e9565b5b828206905092915050565b6000611a5482611619565b9150611a5f83611619565b925082821015611a7257611a71611809565b5b82820390509291505056fea264697066735822122084fd358126e22f7b53e78d92eafe5bd902a3b5c4eb51105e379300d2bf6c1a8e64736f6c634300080a0033",
  "immutableReferences": {},
  "source": "pragma solidity >=0.6.0;\r\n\r\nimport \"./roundsGame.sol\";\r\n\r\ncontract tradeGame is roundsGame {}\r\n",
  "sourcePath": "E:\\ProgrammingStuff\\BlockChain\\truffle\\Projects\\FastCards\\truffle\\contracts\\tradeGame.sol",
  "compiler": {
    "name": "solc",
    "version": "0.8.10+commit.fc410830.Emscripten.clang"
  },
  "schemaVersion": "3.4.3",
  "updatedAt": "2021-12-19T23:02:37.040Z",
  "devdoc": {
    "kind": "dev",
    "methods": {},
    "version": 1
  },
  "userdoc": {
    "kind": "user",
    "methods": {},
    "version": 1
  }
}